:100000000C946F000C9497000C9497000C9497003C
:100010000C9497000C9497000C9497000C94970004
:100020000C9497000C9497000C9497000C948A10F1
:100030000C9497000C9497000C9497000C949700E4
:100040000C947E120C9497000C9428050C945A057D
:100050000C9497000C9497000C9497000C949700C4
:100060000C945D0F0C949700F306FA06010708073D
:100070000F072607160726071D0796079A079E07EC
:10008000A207A607AA07AE070000000800020100A9
:100090000003040700000000000000000102040843
:1000A00010204080010204081020010204081020E2
:1000B000040404040404040402020202020203030E
:1000C0000303030300000000250028002B000000AC
:1000D0000000240027002A00A2028A05040F112430
:1000E0001FBECFEFD8E0DEBFCDBF11E0A0E0B1E092
:1000F000E8E0FEE202C005900D92AE3AB107D9F7F2
:1001000024E0AEEAB1E001C01D92A038B207E1F7E9
:1001100010E0CEEDD0E004C02297FE010E94E4166C
:10012000C83DD107C9F70E94D6060C9410140C9450
:100130000000E0918E03F0918F030190F081E02D9B
:100140006091EC028EE893E009948091E602909130
:10015000E7028130910571F18230910509F442C0C6
:10016000009709F06AC05091EC02511108C041E0BB
:100170002091ED023091EE022330310509F040E08C
:100180002091F002222329F02091EF02233609F476
:1001900047C0411145C02091ED023091EE0224305C
:1001A000310509F44FC0215031092230310508F0E2
:1001B00044C048C02091ED023091EE0241E024306D
:1001C000310539F02130310521F02230310509F0B7
:1001D00040E05091EC02511126C0442321F182E00D
:1001E00090E02BC02091EC02211108C041E0209149
:1001F000ED023091EE022330310509F040E020910C
:10020000F002222321F02091EF02233649F0411120
:1002100007C02091ED023091EE02232B71F40BC048
:1002200081E090E00AC04091F0024423B1F3409194
:10023000EF02473791F780E090E09093E7028093D8
:10024000E6020895552359F2F8CF64E071E081EF9A
:1002500092E00E94180660E070E08EEA91E00C9453
:1002600019126BE071E081EF92E00E94180664EBD6
:1002700070E08EEA91E00C941912CF93DF93C09155
:10028000E602D091E702C130D105A1F0C230D1051C
:1002900009F493C0209709F0C0C08091EA02882336
:1002A00031F064E171E081EF92E00E941806109253
:1002B000EC02B3C08091EA02882309F44CC069E1E2
:1002C00071E081EF92E00E94180682EA92E00E94BB
:1002D0008909665F7F4F8F4F9F4F6093B101709385
:1002E000B2018093B3019093B4018EE592E00E9435
:1002F0008909665F7F4F8F4F9F4F6093B501709361
:10030000B6018093B7019093B8018AE192E00E9410
:1003100089096A507109810991096093B901709343
:10032000BA018093BB019093BC0186ED91E00E94DD
:1003300089096A507109810991096093B901709323
:10034000BA018093BB019093BC0161EB71E081EC39
:1003500091E00E940D0D81EC91E00E94EB0D8093E5
:10036000EC02811123C044EF51E060E070E082EACA
:1003700092E00E948F0944EF51E060E070E08EE56A
:1003800092E00E948F0944EF51E060E070E08AE162
:1003900092E00E948F0944EF51E060E070E086ED4A
:1003A00091E00E948F0963E271E002C06EE271E0A9
:1003B00081EF92E00E94180630C08091EA02882303
:1003C00001F18091ED029091EE028430910569F483
:1003D00063E371E081EF92E00E94180661EB71E047
:1003E00081EC91E00E940D0D0CC08130910519F453
:1003F0000E94250104C0029721F40E94310110924D
:10040000EC028091ED029091EE02049731F481ECC0
:1004100091E00E94EB0D8093EC02D093E902C0932F
:10042000E802DF91CF91089526E040E855E260E0D0
:1004300070E081EF92E00E94C60468E371E081EF12
:1004400092E00E9418061092EB0264E070E08EE8E1
:1004500093E00E94F80E61ED72E08EE893E00E9456
:10046000FA0E69E970E08EE893E00E94FF0E44EF17
:1004700051E060E070E082EA92E00E948F0944EF70
:1004800051E060E070E08EE592E00E948F0944EF59
:1004900051E060E070E08AE192E00E948F0944EF51
:1004A00051E060E070E086ED91E00E948F0940E04D
:1004B00050E068EC72E482EA92E00E94100C40E0A6
:1004C00050E068EC72E48EE592E00E94100C40E08F
:1004D00050E068EC72E48AE192E00E94100C40E087
:1004E00050E068EC72E486ED91E00E94100C62EA44
:1004F00072E081EC91E00E94FD0C6EE572E081EC0F
:1005000091E00E94FD0C6AE172E081EC91E00E94B2
:10051000FD0C66ED71E081EC91E00E94FD0C67E05E
:1005200070E08EEA91E00E94E0111092EE021092CB
:10053000ED021092E9021092E8021092E702109286
:10054000E6020895CF92EF920F93CC24C39485E0F6
:10055000E82E04E022E043E061E082EA92E00E94BB
:10056000A40B20E141E161E08EE592E00E94A40B42
:1005700024E045E061E08AE192E00E94A40B2EE0D5
:100580004FE061E086ED91E00E94A40B81EC91E0E8
:100590000E94FA0C8EEA91E00F91EF90CF900C94AC
:1005A00046110F931F93CF93DF93CDB7DEB76297BA
:1005B0000FB6F894DEBF0FBECDBF8E010F5F1F4F89
:1005C0008EE893E00E94150E892B49F08EE893E0A7
:1005D0000E941D0EF801819391938F01F1CF20E0CD
:1005E00030E039818B819C81820F931FAA2797FD70
:1005F000A095BA2F8093B1019093B201A093B3015B
:10060000B093B40120E030E03D818F819885820F66
:10061000931FAA2797FDA095BA2F8093B5019093B9
:10062000B601A093B701B093B80120E030E039855E
:100630008B859C85820F931FAA2797FDA095BA2FC3
:100640008093B9019093BA01A093BB01B093BC0110
:1006500020E030E03D858F859889820F931FAA277F
:1006600097FDA095BA2F8093BD019093BE01A093F2
:10067000BF01B093C00109891A891093EE0200935B
:10068000ED026EE571E081EF92E00E94180660E5F0
:1006900071E081EF92E00E940B064091B101509110
:1006A000B2016091B3017091B4012AE030E081EFB2
:1006B00092E00E94830660E671E081EF92E00E9482
:1006C0000B064091B5015091B6016091B701709150
:1006D000B8012AE030E081EF92E00E94830660E6F4
:1006E00071E081EF92E00E940B064091B9015091B8
:1006F000BA016091BB017091BC012AE030E081EF4A
:1007000092E00E94830660E671E081EF92E00E9431
:100710000B064091BD015091BE016091BF017091E7
:10072000C0012AE030E081EF92E00E94830660E69B
:1007300071E081EF92E00E940B064AE050E0B801C0
:1007400081EF92E00E94CD0681E08093EB026296F9
:100750000FB6F894DEBF0FBECDBFDF91CF911F91D2
:100760000F9108958091EB02882329F01092EB02FB
:1007700081E08093EC0281EF92E00E94E303019715
:1007800049F481EF92E00E94FC038093EF0281E044
:100790008093F00208950E94B2030E94A50041E0F8
:1007A0002091E6023091E7028091E8029091E902FF
:1007B0002817390709F440E04093EA020E943D01FE
:1007C0001092F0020895FC01818D228D90E0805CF2
:1007D0009F4F821B91098F7399270895FC01918D7A
:1007E000828D981731F0828DE80FF11D858D90E094
:1007F00008958FEF9FEF0895FC01918D828D9817DA
:1008000061F0828DDF01A80FB11D5D968C91928DF4
:100810009F5F9F73928F90E008958FEF9FEF0895F1
:1008200080E895E0892B49F080E090E0892B29F061
:100830000E94800581110C9400000895FC01848DB4
:10084000DF01A80FB11DA35ABF4F2C91848D90E0FA
:1008500001968F739927848FA689B7892C93A089D5
:10086000B1898C9180648C93938D848D981306C08C
:100870000288F389E02D80818F7D80830895CF9356
:10088000DF93EC01888D8823C9F0EA89FB89808198
:1008900085FD05C0A889B9898C9186FD0FC00FB66A
:1008A00007FCF5CF808185FFF2CFA889B9898C91AB
:1008B00085FFEDCFCE010E941E04E7CFDF91CF91DF
:1008C0000895CF92DF92FF920F931F93CF93DF9300
:1008D0001F92CDB7DEB76C0181E0D60158968C939C
:1008E00058975B969C915B975C968C915C9798135C
:1008F00007C05096ED91FC915197808185FD2EC0E7
:10090000F601038D10E00F5F1F4F0F731127F02EBC
:10091000F601848DF81211C00FB607FCF9CFD6018D
:100920005096ED91FC915197808185FFF1CFC601E2
:1009300069830E941E046981EBCF838DE80FF11D4E
:10094000E35AFF4F6083D6015B960C935B975296F8
:10095000ED91FC915397808180620CC0D601569630
:10096000ED91FC91579760835096ED91FC915197D2
:1009700080818064808381E090E00F90DF91CF914F
:100980001F910F91FF90DF90CF900895BF92CF926B
:10099000DF92EF92FF92CF93DF93EC016A017B012C
:1009A000B22EE889F98982E08083411581EE5807EB
:1009B00061057105A1F060E079E08DE390E0A701A9
:1009C00096010E94A11621503109410951095695FD
:1009D000479537952795211580E1380798F0E889E4
:1009E000F989108260E874E88EE190E0A701960131
:1009F0000E94A11621503109410951095695479588
:100A000037952795EC85FD853083EE85FF8520831E
:100A1000188EEC89FD89B082EA89FB89808180612A
:100A20008083EA89FB89808188608083EA89FB89E9
:100A3000808180688083EA89FB8980818F7D8083C3
:100A4000DF91CF91FF90EF90DF90CF90BF9008950E
:100A50001F920F920FB60F9211242F938F939F9393
:100A6000EF93FF93E0910103F09102038081E09105
:100A70000703F091080382FD12C0908180910A0360
:100A80008F5F8F7320910B03821751F0E0910A035F
:100A9000F0E0EF50FD4F958F80930A0301C08081F5
:100AA000FF91EF919F918F912F910F900FBE0F901B
:100AB0001F9018951F920F920FB60F9211242F932B
:100AC0003F934F935F936F937F938F939F93AF93D6
:100AD000BF93EF93FF9381EF92E00E941E04FF917A
:100AE000EF91BF91AF919F918F917F916F915F91A6
:100AF0004F913F912F910F900FBE0F901F9018951F
:100B000081EF92E00E94E30321E0892B09F420E0C9
:100B1000822F08951092F4021092F30288EE93E06F
:100B2000A0E0B0E08093F5029093F602A093F70264
:100B3000B093F80286E691E09093F2028093F1027E
:100B400085EC90E09093FE028093FD0284EC90E0AF
:100B5000909300038093FF0280EC90E09093020357
:100B60008093010381EC90E090930403809303034E
:100B700082EC90E0909306038093050386EC90E06E
:100B8000909308038093070310920A0310920B03BB
:100B900010920C0310920D030895CF92DF92EF9202
:100BA000FF920F931F93CF93DF936C017A01EB01B8
:100BB000E60EF71E00E010E0CE15DF0561F069914A
:100BC000D601ED91FC910190F081E02DC6010995CF
:100BD000080F191FF1CFC801DF91CF911F910F911D
:100BE000FF90EF90DF90CF9008956115710581F02F
:100BF000DB010D900020E9F7AD0141505109461B82
:100C0000570BDC01ED91FC910280F381E02D0994FA
:100C100080E090E008950C94F505DC01ED91FC91E5
:100C20000190F081E02D099462E771E00C94F505E4
:100C30000F931F93CF93DF93EC010E94F5058C0176
:100C4000CE010E941406800F911FDF91CF911F915A
:100C50000F9108958F929F92AF92BF92CF92DF92A1
:100C6000EF92FF920F931F93CF93DF93CDB7DEB731
:100C7000A1970FB6F894DEBF0FBECDBF7C01C42E86
:100C8000E52FCB01D22E19A221E02D1510F02AE07C
:100C9000D22E8E010F5D1F4F8D2C912CA12CB12CCB
:100CA0006C2D7E2FA50194010E94A1168C2DD29E41
:100CB00080191124015011098A3014F4805D01C09B
:100CC000895CF8018083211531054105510521F02A
:100CD000C22EE32FCA01E4CFB801C7010E94F50577
:100CE000A1960FB6F894DEBF0FBECDBFDF91CF91B6
:100CF0001F910F91FF90EF90DF90CF90BF90AF903A
:100D00009F908F900895CF92DF92EF92FF920F9372
:100D10001F93CF93DF93EC016A017B01211531050D
:100D200079F4E881F9810190F081E02D642FDF9161
:100D3000CF911F910F91FF90EF90DF90CF9009948A
:100D40002A303105E9F477FF1AC06DE20E940D06E2
:100D50008C0144275527BA014C195D096E097F099A
:100D60002AE0CE010E942A06800F911FDF91CF91C9
:100D70001F910F91FF90EF90DF90CF9008952AE0A0
:100D8000B701A601CE01DF91CF911F910F91FF9086
:100D9000EF90DF90CF900C942A069A01AB01662762
:100DA00057FD6095762F0C94830608950E94F612E5
:100DB0000E94D5060E941402C0E1D4E00E94CB0339
:100DC0002097E1F30E941004F9CF0F931F93DC01E9
:100DD00012960C9110E009301105C0F5F801EC5C99
:100DE000FF4F0C94E216DC01ED91FC910084F1853B
:100DF000E02D29C0DC01ED91FC910284F385E02D0A
:100E000022C0DC01ED91FC910484F585E02D1BC02E
:100E1000DC01ED91FC910684F785E02D14C0DC0126
:100E2000ED91FC910088F189E02D0DC0DC01ED9180
:100E3000FC910288F389E02D06C0DC01ED91FC9164
:100E40000488F589E02D1F910F9109941F910F914E
:100E50000895CF93DF93EC01CB01BA0126E030E097
:100E600040E050E00E94C316623071058105910593
:100E700059F18CF46115710581059105F1F061302E
:100E8000710581059105C1F5E881F9810480F5813D
:100E9000E02D65E02DC0643071058105910511F1EB
:100EA000D4F0653071058105910531F5E881F9814E
:100EB0000480F581E02D66E01BC0E881F9810480A3
:100EC000F581E02D64E014C0E881F9810480F581AA
:100ED000E02D61E00DC0E881F9810480F581E02D0D
:100EE00063E006C0E881F9810480F581E02D62E0CD
:100EF000CE01DF91CF910994DF91CF910895CF93E7
:100F0000DF93477055276627772741505109DC0149
:100F1000CD91DC914730510528F4435C5F4FFA01D5
:100F20000C94E216EC81FD8161E01BC0EC81FD8137
:100F300065E017C0EC81FD8164E013C0EC81FD81A8
:100F400066E00FC0EC81FD8162E00BC0EC81FD81A9
:100F50006AE007C0EC81FD8168E003C0EC81FD819F
:100F600069E0DF91CF910994AF92BF92DF92EF9247
:100F7000FF920F931F93CF93DF931F92CDB7DEB7EE
:100F80008C01FC018281843041F0883031F0833063
:100F900031F0863021F022E003C024E001C023E0DC
:100FA000A12CB12CE62EF12CDD24D394F801EA0D0E
:100FB000FB1DC7010A2C02C0959587950A94E2F79C
:100FC000678180FD6D25838129830E949313FFEF44
:100FD000AF1ABF0A2981A21648F30F90DF91CF9173
:100FE0001F910F91FF90EF90DF90BF90AF90089509
:100FF0000F931F93CF93DF93EC01E881F981048075
:10100000F581E02D8C010D5B1F4FD8018C91882359
:1010100011F062E001C060E0CE010995E881F9813C
:101020000480F581E02DD8018C91882311F063E0D4
:1010300001C061E0CE0109958BA59CA50E94EB1231
:10104000E881F9810480F581E02DD8018C91882315
:1010500011F062E001C060E0CE01DF91CF911F91FD
:101060000F910994CF93DF93EC0120E030E0A901C8
:101070006B897C898D899E890E94C71518161CF47E
:10108000EFA5F8A902C0E9A9FAA9DF91CF910994C7
:101090004370552766277727DC01ED91FC9104808A
:1010A000F581E02D423051056105710571F0433045
:1010B00051056105710559F0413051056105710512
:1010C00011F062E005C063E003C061E001C060E0D0
:1010D0000994CF93DF93EC01CB01BA0123E030E018
:1010E00040E050E00E94C316613071058105910512
:1010F00081F0623071058105910591F0672B682BB5
:10110000692BC1F4E881F9810480F581E02D64E068
:101110000DC0E881F9810480F581E02D61E006C011
:10112000E881F9810480F581E02D62E0CE01DF9154
:10113000CF910994DF91CF91089543705527662789
:101140007727DC01ED91FC910480F581E02D4230A0
:1011500051056105710571F0433051056105710557
:1011600059F0413051056105710511F065E005C088
:1011700066E003C06AE001C069E00994CF93DF93A1
:10118000EC018A818823A1F0E881F9810480F5814E
:10119000E02D60E0CE0109958EA58F3F49F061E01A
:1011A0000E945A136DA58EA5DF91CF910C949313D5
:1011B000DF91CF910895CF93DF93EC018A8188234B
:1011C00051F161E08B810E945A1361E08C810E9491
:1011D0005A138A81843011F0883039F461E08D81AE
:1011E0000E945A1361E08E8106C0833011F0863070
:1011F00021F461E08D810E945A138EA58F3F59F032
:1012000061E00E945A136DA581E068278EA5DF91E9
:10121000CF910C949313DF91CF910895CF92DF92E9
:10122000EF92FF920F931F93CF93DF93EC014BA1AB
:101230005CA16DA17EA1452B462B472B09F44DC027
:101240000E94C8126B017C010FA118A529A53AA51F
:101250004BA15CA16DA17EA1400F511F621F731FA6
:10126000401751076207730730F0C416D506E6062B
:10127000F70658F405C0C416D506E606F70668F169
:10128000C016D106E206F30640F5FE01ED5BFF4F06
:1012900080814B855C856D857E85882329F04F5F35
:1012A0005F4F6F4F7F4F04C0415051096109710971
:1012B0004B875C876D877E87E881F9814B855C85EC
:1012C0006D857E850680F781E02DCE010995CFA240
:1012D000D8A6E9A6FAA681E001C080E0DF91CF910F
:1012E0001F910F91FF90EF90DF90CF9008950F9393
:1012F0001F93FC0167857089818992890385148514
:1013000025853685601B710B820B930B1F910F9106
:101310000895FC0163857485858596850895FC0193
:1013200043875487658776874787508B618B728B9D
:1013300013AA14AA15AA16AA13A214A215A216A2D9
:10134000138A148A158A168A08952F923F924F9213
:101350005F926F927F928F929F92AF92BF92CF9245
:10136000DF92EF92FF920F931F93CF93DF9300D002
:1013700000D0CDB7DEB71C01FC0187849088A1881E
:10138000B28883859485A585B685881A990AAA0AA4
:10139000BB0A63897489858996899B01AC010E9487
:1013A000CB156B017C01F101638D748D858D968D5C
:1013B0009B01AC010E9414149B01AC01C701B60152
:1013C0000E947C140E94E41481149104A104B104CD
:1013D000A1F462307105810591050CF07CC0F1012A
:1013E00013A214A215A216A2138A148A158A168AA9
:1013F00013AA14AA15AA16AA03C1F10103A914A9D4
:1014000025A936A9ED5BFF4F181419041A041B0413
:10141000FCF410161106120613064CF46815790533
:101420008A059B054CF52081211155C025C0011569
:1014300011052105310509F44EC0681579058A05A5
:101440009B050CF048C08081882309F444C037C054
:101450001016110612061306F4F40027112798013E
:10146000081919092A093B096017710782079307B0
:101470001CF42081222379F19B01AC018827992754
:10148000DC01821B930BA40BB50BF10183AB94AB76
:10149000A5ABB6AB20C00115110521053105D9F06A
:1014A000CC24DD247601C818D908EA08FB086C159D
:1014B0007D058E059F057CF4808181110CC03095DF
:1014C0002095109501951F4F2F4F3F4FF10103AB12
:1014D00014AB25AB36ABF101C3A8D4A8E5A8F6A898
:1014E00081010D5B1F4FC114D104E104F10491F49B
:1014F00087A990ADA1ADB2AD83AF94AFA5AFB6AFA4
:1015000081E0181419041A041B040CF080E0F8019F
:10151000808340C0F10183AC94ACA5ACB6ACA5010E
:101520009401C501B4010E9414142B013C01C701B0
:10153000B6010E94171520E030E040E850E40E9418
:10154000CB1520E030E040E85FE30E9414149B01DB
:10155000AC01C301B2010E947C149B01AC01C50126
:10156000B4010E9413142B013C01F101FF9680800D
:101570009180A280B3809401A5010E94C71518161E
:1015800014F442015301C401D501F10183AF94AFBA
:10159000A5AFB6AFFFEFCF1ADF0AEF0AFF0AF101DE
:1015A000C3AAD4AAE5AAF6AA23AD34AD45AD56AD7B
:1015B000CA01B90129833A834B835C830E94E914F1
:1015C000F10163A374A385A396A329813A814B817A
:1015D0005C8160E074E284E799E40E947C14F1018C
:1015E000638B748B858B968BF8012081211108C049
:1015F000DC01CB01B058F101838B948BA58BB68BAA
:101600000F900F900F900F90DF91CF911F910F913E
:10161000FF90EF90DF90CF90BF90AF909F908F9012
:101620007F906F905F904F903F902F9008950F9311
:101630001F93FC010785108921893289041715073A
:101640002607370741F04787508B618B728B1F91BC
:101650000F910C94A5091F910F9108954F925F92DD
:101660006F927F928F929F92AF92BF92CF92DF92B2
:10167000EF92FF92CF93DF93EC016A017B018B8C99
:101680009C8CAD8CBE8C9A01AB01C501B4010E944B
:101690007814882309F449C06BA97CA98DA99EA957
:1016A0000E9417152B013C01A7019601C501B40149
:1016B0000E947C149B01AC01C301B2010E94CB15B6
:1016C0000E94E4146BAB7CAB8DAB9EABA701960183
:1016D00060E070E080E090E40E947C140E9432168A
:1016E00026E53EE04DE25FE30E94CB1520E034E2C8
:1016F00044E759E40E94CB156FAB78AF89AF9AAF3E
:10170000CB8EDC8EED8EFE8ECE01DF91CF91FF90E1
:10171000EF90DF90CF90BF90AF909F908F907F9091
:101720006F905F904F900C94A509DF91CF91FF903F
:10173000EF90DF90CF90BF90AF909F908F907F9071
:101740006F905F904F9008958F929F92AF92BF924B
:10175000CF92EF920F93CF93DF93EC0187E891E064
:10176000998388836A831B861C861D861E861F8636
:10177000188A198A1A8A1B8A1C8A1D8A1E8A812C39
:10178000912C80E8A82E8FE3B82E8F8A988EA98E90
:10179000BA8E1B8E1C8E1D8E1E8E8F8E98A2A9A2B5
:1017A000BAA21BA21CA21DA21EA281E090E09CA7CF
:1017B0008BA78FEF8EA71FA218A619A61AA64B8378
:1017C0002C830D83EE821BAA1CAA1DAA1EAA1FAA87
:1017D00018AE19AE1AAE1BAE1CAE1DAE1EAEFE018B
:1017E000FF9680829182A282B382349610821F82F9
:1017F000188619861A86CC2019F0CE010E94DB08C3
:1018000040E050E060E87FE3CE01DF91CF910F919F
:10181000EF90CF90BF90AF909F908F900C942E0B35
:10182000CF92DF92EF92FF920F931F93CF93DF93AC
:10183000EC016A017B019A01AB016F89788D898D7A
:101840009A8D0E947814882309F446C0CF8AD88ED6
:10185000E98EFA8E8E01015C1F4FA701960160E0B0
:1018600074E284E799E40E947C14F8016083718338
:10187000828393838BA99CA9ADA9BEA918161906CA
:101880001A061B064CF56B897C898D899E899B0104
:10189000AC010E94CB156B017C016B8D7C8D8D8D15
:1018A0009E8D9B01AC010E9414149B01AC01C701E9
:1018B000B6010E947C140E94E4146BAB7CAB8DAB30
:1018C0009EABCE01DF91CF911F910F91FF90EF90D2
:1018D000DF90CF900C94A509DF91CF911F910F91CC
:1018E000FF90EF90DF90CF900895FC016789708D95
:1018F000818D928D08956F927F928F929F92AF9279
:10190000BF92CF92DF92EF92FF920F931F93CF93EC
:10191000DF93EC013A018B012B893C894D895E896B
:10192000B301C8010E947814882309F454C0CF88F9
:10193000D88CE98CFA8C46015701B7FAB094B7F805
:10194000B094A5019401B301C8010E94781487FDE9
:101950000BC0A7019601B301C8010E94C715181654
:101960002CF43601870102C03401850120E030E00B
:10197000A901B301C8010E947814811105C01BA2FE
:101980001CA21DA21EA221C09301A80160E074E266
:1019900084E799E40E947C149F770E94E9146BA36A
:1019A0007CA38DA39EA37E0183E4E80EF11CDD24BD
:1019B000D39420E030E0A901B301C8010E94C7150B
:1019C00018160CF0D12CF701D082C301D8018B8BF3
:1019D0009C8BAD8BBE8BDF91CF911F910F91FF90B0
:1019E000EF90DF90CF90BF90AF909F908F907F90BF
:1019F0006F900895FC01148A0895FC0184898A304F
:101A000010F080E0089591E0980F948BE80FF11D9D
:101A1000E80FF11D7183608308952F923F924F92DA
:101A20005F926F927F928F929F92AF92BF92CF926E
:101A3000DF92EF92FF920F931F93CF93DF93CDB777
:101A4000DEB727970FB6F894DEBF0FBECDBF8C016F
:101A50005B01912C1982212C312C812CF801848975
:101A6000981608F050C0F50124E0929EE00DF11D9B
:101A7000112440805180628073809801290D311DAE
:101A8000290D311DF901808191812C833D830E94B4
:101A900089096B017C012C813D81F9018081918153
:101AA0000E94750C9B01AC01C301B2016C197D0948
:101AB0008E099F0997FF07C0909580957095619555
:101AC0007F4F8F4F9F4F2C833D834A835B830E94C0
:101AD00017152C813D814A815B810E947C147B011A
:101AE0006C012981322D432D582D0E94C7151816DF
:101AF00024F0E980F22CC32CD82C9394E9822F2C6B
:101B00003C2C8D2CABCF20E030E0A9016981722DF7
:101B1000832D982D0E94C71518160CF043C0D12CA8
:101B2000F8018489D816F0F57501F4E0DF9EE00C29
:101B3000F11C1124F701408051806280738098016C
:101B40002D0D311D2D0D311D3F832E83F901808117
:101B500091810E948909A3019201261B370B480B32
:101B6000590BCA01B9010E9417152981322D432D45
:101B7000582D0E947C142B013C01F70140815181BA
:101B800062817381EE81FF81808191810E94170BB8
:101B9000B301A201EE81FF81808191810E947B0CC3
:101BA000D394BECF27960FB6F894DEBF0FBECDBF3D
:101BB000DF91CF911F910F91FF90EF90DF90CF9029
:101BC000BF90AF909F908F907F906F905F904F905D
:101BD0003F902F900895EF92FF920F931F93CF9312
:101BE000DF938C01E12CF12CF8018489F816A8F41C
:101BF000E801CF0DD11DCF0DD11D888199810E94A3
:101C00007709672B682B692B31F0888199810E94B5
:101C10000E09EE24E394F394E7CF8E2DDF91CF915C
:101C20001F910F91FF90EF9008958091C10390E074
:101C30002091C203821B910908952091C2038091D3
:101C4000C103281750F4E22FF0E0ED53FC4F8081E0
:101C500090E02F5F2093C20308958FEF9FEF0895C8
:101C6000E091C2038091C103E81730F4F0E0ED5336
:101C7000FC4F808190E008958FEF9FEF08950895C5
:101C8000E0919A03F0919B033097E1F03091C20309
:101C90002091C1033217B0F040E0242F30E0261726
:101CA000370754F4DC01A20FB31F5C91D901AD5387
:101CB000BC4F5C934F5FF1CF1092C2036093C1039E
:101CC000CB0109940895E0919C03F0919D03309716
:101CD00029F01092A00310929F0309940895CF92C7
:101CE000DF92EF92FF920F931F93CF93DF937C01CC
:101CF000CB018A0120919E03222389F0EB016B0125
:101D0000C40ED51ECC15DD0569F06991D701ED91A2
:101D1000FC910190F081E02DC7010995F3CF642F6C
:101D20000E942A0FC801DF91CF911F910F91FF9060
:101D3000EF90DF90CF900895CF93DF931F92CDB7B0
:101D4000DEB7698320919E032223D1F020919F0367
:101D5000203240F021E030E0FC013383228380E038
:101D600090E015C08091A003E82FF0E0EF55FC4F04
:101D7000998190838F5F8093A00380939F0305C018
:101D800061E0CE0101960E942A0F81E090E00F9061
:101D9000DF91CF910895FC011382128248EE53E047
:101DA00060E070E0448355836683778381EA91E045
:101DB0009183808308951092C2031092C103109200
:101DC000A00310929F030C94080FCF93DF93EC01B4
:101DD000862F0E94260F83E69EE00E94480F80E433
:101DE0009EE00E94430FCE01DF91CF910C94DB0E59
:101DF0000C94E50E70939B0360939A03089570937F
:101E00009D0360939C0308958EE893E00C94CB0EA1
:101E10001092500481E080934E0410924D0461E0D2
:101E200082E10E94931361E083E10E949313E9EB46
:101E3000F0E080818E7F808380818D7F808388E445
:101E40008093B80085E48093BC000895880F809348
:101E5000BA000895613298F420915004243089F436
:101E600060930504FC0187E094E0DC012A2F281B25
:101E7000261718F421912D93F9CF80E0089581E081
:101E8000089582E0089590934A0480934904089548
:101E900090934C0480934B04089585ED8093BC008F
:101EA0008091BC0084FDFCCF10925004089585EC15
:101EB0008093BC001092500408951F920F920FB6A9
:101EC0000F9211242F933F934F935F936F937F93C0
:101ED0008F939F93AF93BF93EF93FF938091B9003C
:101EE000887F803609F49CC068F5883209F45BC0AD
:101EF00090F4803109F454C038F4882309F4F5C013
:101F0000883009F44DC0F5C0883109F44CC08032E6
:101F100009F45DC0EEC0803409F468C048F4803331
:101F200009F455C0883309F0E4C08093E303A8C0E6
:101F3000803509F44FC0883509F45DC0883409F054
:101F4000D8C0D5C0883909F4C6C0A8F4883709F4C8
:101F500067C038F4883609F463C0803709F460C07C
:101F6000C8C0883809F4B7C0803909F45FC0803828
:101F700009F0BFC05BC0803B09F485C038F4803AEB
:101F800009F466C0883A09F47EC0B3C0803C09F405
:101F9000A6C0883C09F4A3C0883B09F489C0A9C045
:101FA00080914F0410C090912804809127049817C5
:101FB00070F5E091280481E08E0F80932804F0E012
:101FC000E75DFB4F80818093BB0085EC85C08093EB
:101FD000E3038DC0E091280481E08E0F80932804F4
:101FE0008091BB00F0E0E75DFB4F80839091280477
:101FF000809127046DC0E091280481E08E0F8093CA
:1020000028048091BB00F0E0E75DFB4F8083809166
:102010004E0481116CC081E080934D0484EA60C05D
:1020200083E0809350041092E403CFCF8091E403C7
:10203000803208F050C0E091E40381E08E0F80937D
:10204000E4038091BB00F0E0EB51FC4F8083BDCFF7
:102050008091E403803230F4E091E403F0E0EB514E
:10206000FC4F10820E944D0F6091E40370E0E091FC
:102070004904F0914A0485EE93E009951092E40337
:102080000E94570F36C084E08093500410920604DB
:1020900010920504E0914B04F0914C040995809155
:1020A0000504811105C081E08093050410920704A6
:1020B000E091060481E08E0F80930604F0E0E95F72
:1020C000FB4F80818093BB009091060480910504B2
:1020D000981708F47ACF85E88093BC000AC085EC95
:1020E0008093BC001092500404C01092E3030E943D
:1020F0004D0FFF91EF91BF91AF919F918F917F9184
:102100006F915F914F913F912F910F900FBE0F9064
:102110001F9018951F920F920FB60F9211242F93B4
:102120003F934F935F936F937F938F939F93AF935F
:10213000BF93EF93FF938091520487FF05C01092E5
:102140008500109284001AC020915204332727FD85
:1021500030958091510490E0281739077CF48091E4
:102160005204992787FD9095FC01EE0FFF1FE80FA1
:10217000F91FED5AFB4F808186FD15C080915204F6
:102180008F5F8093520420915204332727FD3095AE
:102190008091510490E028173907BCF480915204D3
:1021A0008C305CF112C080915204992787FD909584
:1021B000FC01EE0FFF1FE80FF91FED5AFB4F808166
:1021C00060E08F730E949313D9CF80918400909127
:1021D0008500049680349C4918F480E49CE905C08D
:1021E000809184009091850004969093890080935B
:1021F00088008FEF8093520438C020918400309182
:10220000850080915204992787FD9095FC01EE0F7F
:10221000FF1FE80FF91FED5AFB4F81819281820F5A
:10222000931F90938900809388008091520499278E
:1022300087FD9095FC01EE0FFF1FE80FF91FED5A87
:10224000FB4F808186FF11C080915204992787FD42
:102250009095FC01EE0FFF1FE80FF91FED5AFB4FA1
:10226000808161E08F730E949313FF91EF91BF9182
:10227000AF919F918F917F916F915F914F913F911E
:102280002F910F900FBE0F901F9018952091510421
:102290002C30A0F431E0320F30935104FC01208344
:1022A000822F90E0FC01EE0FFF1FE80FF91FED5A9F
:1022B000FB4F88EB9BE09283818308952FEFFC0115
:1022C00020830895DF92EF92FF920F931F93CF9395
:1022D000DF93EC01D62E7A01890188818C3008F0D9
:1022E00066C061E08D2D0E945A138881A82FB0E04E
:1022F000FD01EE0FFF1FEA0FFB1FED5AFB4F2D2DC7
:102300002F739081907C922B908360E272E06E1923
:102310007F0977FF02C06D5F7F4F75956795759553
:102320006795698340E659E0401B510B57FF02C097
:102330004D5F5F4F55954795559547954A836CE09E
:102340000E9495169CE0899FB001112420E030E0A6
:10235000A901460F571FFA01EE0FFF1FE40FF51FEB
:10236000ED5AFB4F908196FD16C02F5F3F4F2C30EA
:10237000310571F781110FC01092800082E08093C7
:1023800081001092850010928400B19A80916F00B4
:10239000826080936F00888190E0FC01EE0FFF1F48
:1023A000E80FF91FED5AFB4F80818064808388819C
:1023B000DF91CF911F910F91FF90EF90DF900895E3
:1023C00020E639E040E252E00C946211FC01808189
:1023D0008C3070F5918128E830E0291B310997FD98
:1023E0003395220F331F220F331F621773077CF0C0
:1023F000928128E532E0291B310997FD3395220FA0
:10240000331F220F331F621773070CF49B012250F6
:102410003109220F331F4FB7F89490E0FC01EE0F03
:10242000FF1FE80FF91FED5AFB4F328321834FBF87
:1024300008954F925F926F927F92AF92BF92CF9228
:10244000DF92EF92FF920F931F93CF93DF93EC01F4
:10245000603282E078070CF040C077FD06C0653B33
:1024600071052CF064EB70E002C060E070E08981DF
:1024700028E830E0281B310987FD3395220F331FF0
:10248000220F331F5901CC24B7FCC094DC2C8827C1
:1024900077FD8095982F2A8148E552E0421B51092B
:1024A00027FD5395440F551F440F551F2A016624DD
:1024B00057FC6094762C7F926F925F924F9214EB50
:1024C000E12EF12C00E010E020E030E0A9010E94B4
:1024D000C9130F900F900F900F90CE01DF91CF9105
:1024E0001F910F91FF90EF90DF90CF90BF90AF9032
:1024F0007F906F905F904F900C94E6111F920F9217
:102500000FB60F9211242F933F938F939F93AF9306
:10251000BF938091780490917904A0917A04B0914E
:102520007B043091770423E0230F2D3720F40196AC
:10253000A11DB11D05C026E8230F0296A11DB11DE6
:10254000209377048093780490937904A0937A047D
:10255000B0937B0480917C0490917D04A0917E04D3
:10256000B0917F040196A11DB11D80937C049093CE
:102570007D04A0937E04B0937F04BF91AF919F919F
:102580008F913F912F910F900FBE0F901F90189534
:102590003FB7F89480917C0490917D04A0917E04D3
:1025A000B0917F0426B5A89B05C02F3F19F0019676
:1025B000A11DB11D3FBF6627782F892F9A2F620F6B
:1025C000711D811D911D42E0660F771F881F991FA5
:1025D0004A95D1F708958230910538F0880F991FF8
:1025E000880F991F05970197F1F70895789484B59E
:1025F000826084BD84B5816084BD85B5826085BDFF
:1026000085B5816085BDEEE6F0E0808181608083E4
:10261000E1E8F0E0108280818260808380818160C7
:102620008083E0E8F0E0808181608083E1EBF0E08E
:10263000808184608083E0EBF0E080818160808332
:10264000EAE7F0E08081846080838081826080831B
:102650008081816080838081806880831092C10046
:102660000895833081F028F4813099F08230A1F010
:1026700008958730A9F08830B9F08430D1F4809182
:1026800080008F7D03C0809180008F7780938000D1
:10269000089584B58F7702C084B58F7D84BD089579
:1026A0008091B0008F7703C08091B0008F7D8093C0
:1026B000B0000895CF93DF9390E0FC01E456FF4F04
:1026C0002491FC01E055FF4F8491882349F190E06B
:1026D000880F991FFC01E253FF4FA591B4918C53D1
:1026E0009F4FFC01C591D4919FB7611108C0F89428
:1026F0008C91209582238C93888182230AC062303A
:1027000051F4F8948C91322F309583238C938881E7
:10271000822B888304C0F8948C91822B8C939FBF6A
:10272000DF91CF9108950F931F93CF93DF931F9263
:10273000CDB7DEB7282F30E0F901E857FF4F84917D
:10274000F901E456FF4F1491F901E055FF4F049150
:102750000023C9F0882321F069830E943113698125
:10276000E02FF0E0EE0FFF1FEC53FF4FA591B49167
:102770009FB7F8948C91611103C01095812301C01B
:10278000812B8C939FBF0F90DF91CF911F910F9161
:1027900008954F925F926F927F92AF92BF92CF92C5
:1027A000DF92EF92FF920F931F93CF93DF93CDB7FA
:1027B000DEB729013A01621B730B840B950B298943
:1027C0003A894B895C892A193B094C095D09298B97
:1027D0003A8B4B8B5C8B9B01AC0169897A898B8925
:1027E0009C890E948516E418F50806091709A801B6
:1027F00097010E94C3162A0D3B1D4C1D5D1DCA0189
:10280000B901DF91CF911F910F91FF90EF90DF9071
:10281000CF90BF90AF907F906F905F904F90089552
:10282000F8940C9402175058BB27AA270ED075C1F4
:1028300066D130F06BD120F031F49F3F11F41EF4DB
:102840005BC10EF4E095E7FB51C1E92F77D180F32E
:10285000BA17620773078407950718F071F49EF59D
:102860008FC10EF4E0950B2EBA2FA02D0B01B901EC
:1028700090010C01CA01A0011124FF27591B99F0F6
:10288000593F50F4503E68F11A16F040A22F232F02
:10289000342F4427585FF3CF469537952795A79552
:1028A000F0405395C9F77EF41F16BA0B620B730BF9
:1028B000840BBAF09150A1F0FF0FBB1F661F771F6A
:1028C000881FC2F70EC0BA0F621F731F841F48F41F
:1028D000879577956795B795F7959E3F08F0B3CFA5
:1028E0009395880F08F09927EE0F9795879508958F
:1028F000D9D008F481E008950CD00FC107D140F081
:10290000FED030F021F45F3F19F0F0C0511139C111
:10291000F3C014D198F39923C9F35523B1F3951B50
:10292000550BBB27AA2762177307840738F09F5FF0
:102930005F4F220F331F441FAA1FA9F333D00E2E5F
:102940003AF0E0E830D091505040E695001CCAF7CC
:1029500029D0FE2F27D0660F771F881FBB1F261791
:1029600037074807AB07B0E809F0BB0B802DBF0164
:10297000FF2793585F4F2AF09E3F510568F0B6C07D
:1029800000C15F3FECF3983EDCF386957795679541
:10299000B795F7959F5FC9F7880F911D9695879515
:1029A00097F90895E1E0660F771F881FBB1F621734
:1029B00073078407BA0720F0621B730B840BBA0BF2
:1029C000EE1F88F7E095089504D06894B111D9C03E
:1029D0000895BCD088F09F5790F0B92F9927B75130
:1029E000A0F0D1F0660F771F881F991F1AF0BA95D3
:1029F000C9F712C0B13081F0C3D0B1E00895C0C0B2
:102A0000672F782F8827B85F39F0B93FCCF38695C8
:102A100077956795B395D9F73EF490958095709525
:102A200061957F4F8F4F9F4F0895E89409C097FBA2
:102A30003EF490958095709561957F4F8F4F9F4F95
:102A40009923A9F0F92F96E9BB279395F6958795D9
:102A500077956795B795F111F8CFFAF4BB0F11F49C
:102A600060FF1BC06F5F7F4F8F4F9F4F16C0882343
:102A700011F096E911C0772321F09EE8872F762F79
:102A800005C0662371F096E8862F70E060E02AF0BA
:102A90009A95660F771F881FDAF7880F96958795A6
:102AA00097F90895990F0008550FAA0BE0E8FEEF7B
:102AB00016161706E807F907C0F012161306E40702
:102AC000F50798F0621B730B840B950B39F40A26FB
:102AD00061F0232B242B252B21F408950A2609F4D9
:102AE000A140A6958FEF811D811D089597F99F67DD
:102AF00080E870E060E008959FEF80EC0895002486
:102B00000A941616170618060906089500240A9452
:102B100012161306140605060895092E0394000CD8
:102B200011F4882352F0BB0F40F4BF2B11F460FF67
:102B300004C06F5F7F4F8F4F9F4F089557FD905890
:102B4000440F551F59F05F3F71F04795880F97FB71
:102B5000991F61F09F3F79F087950895121613062B
:102B60001406551FF2CF4695F1DF08C0161617065A
:102B70001806991FF1CF869571056105089408958F
:102B8000E894BB2766277727CB0197F908958ADF5A
:102B900008F48FEF08950BD0C0CFB1DF28F0B6DF77
:102BA00018F0952309F0A2CFA7CF1124EACFC6DFF2
:102BB000A0F3959FD1F3950F50E0551F629FF00150
:102BC000729FBB27F00DB11D639FAA27F00DB11DA9
:102BD000AA1F649F6627B00DA11D661F829F222732
:102BE000B00DA11D621F739FB00DA11D621F839FB9
:102BF000A00D611D221F749F3327A00D611D231F8F
:102C0000849F600D211D822F762F6A2F11249F57DC
:102C100050408AF0E1F088234AF0EE0FFF1FBB1FFF
:102C2000661F771F881F91505040A9F79E3F51059E
:102C300070F05CCFA6CF5F3FECF3983EDCF3869557
:102C400077956795B795F795E7959F5FC1F7FE2B49
:102C5000880F911D9695879597F9089511F40EF4B4
:102C60004BCF3EC073DFD0F39923D9F3CEF39F57F8
:102C7000550B87FF43D00024A0E640EA900180581E
:102C80005695979528F4805C660F771F881F20F073
:102C900026173707480730F4621B730B840B202973
:102CA00031294A2BA69517940794202531254A27C8
:102CB00058F7660F771F881F20F026173707480739
:102CC00030F4620B730B840B200D311D411DA09558
:102CD00081F7B901842F9158880F969587950895AB
:102CE0009F3F31F0915020F4879577956795B79580
:102CF000880F911D9695879597F9089591505040AA
:102D0000660F771F881FD2F70895DB018F939F937B
:102D10000E94E816BF91AF91A29F800D911DA39FC5
:102D2000900DB29F900D11240895991B79E004C075
:102D3000991F961708F0961B881F7A95C9F78095FA
:102D40000895A1E21A2EAA1BBB1BFD010DC0AA1FEC
:102D5000BB1FEE1FFF1FA217B307E407F50720F004
:102D6000A21BB30BE40BF50B661F771F881F991F7F
:102D70001A9469F760957095809590959B01AC01C8
:102D8000BD01CF010895052E97FB1EF400940E940B
:102D9000DA1657FD07D00E94A11607FC03D04EF4A7
:102DA0000C94DA1650954095309521953F4F4F4F32
:102DB0005F4F089590958095709561957F4F8F4FE7
:102DC0009F4F0895EE0FFF1F0590F491E02D099499
:102DD0000E94F316A59F900DB49F900DA49F800DA7
:102DE000911D11240895A29FB001B39FC001A39F1C
:102DF000700D811D1124911DB29F700D811D112434
:082E0000911D0895F894FFCF25
:102E08000100000050454E2055500050454E2044CA
:102E18004F574E00574149540043414C4942524193
:102E280054450043414C494252415445440053548F
:102E380045500044524157002D3E2053746172742E
:102E4800696E672047686F7374577269746572009A
:102E5800493243207265636569766564203A2000CB
:102E68000900000000006104CD05E303FC03EE0344
:102E78003F040D0A006E616E00696E66006F76662B
:102E8800002E0000000000BE08DB08B407E506328B
:102E980008F807480869089D0829077F0700000007
:0E2EA800009C0E6F0E150E1D0E300E3F0E001C
:00000001FF
