:100000000C946F000C9497000C9497000C9497003C
:100010000C9497000C9497000C9497000C94970004
:100020000C9497000C9497000C9497000C94D111A9
:100030000C9497000C9497000C9497000C949700E4
:100040000C94C5130C9497000C943B060C946D060D
:100050000C9497000C9497000C9497000C949700C4
:100060000C94A4100C9497003A08410848084F08D3
:1000700056086D085D086D086408DD08E108E508AC
:10008000E908ED08F108F508000000080002010089
:100090000003040700000000000000000102040843
:1000A00010204080010204081020010204081020E2
:1000B000040404040404040402020202020203030E
:1000C0000303030300000000250028002B000000AC
:1000D0000000240027002A0033039D064B10112442
:1000E0001FBECFEFD8E0DEBFCDBF12E0A0E0B1E091
:1000F000E6E9F0E302C005900D92A433B107D9F709
:1001000026E0A4E3B2E001C01D92A230B207E1F7FD
:1001100010E0CEEDD0E004C02297FE010E942B1823
:10012000C83DD107C9F70E941D080C9457150C94BF
:100130000000DC01ED91FC910190F081E02D09942B
:1001400080916E0390916F03892B19F462E070E047
:1001500002C061E070E080E195E00C94990080912C
:100160006C0390916D038130910509F440C01CF43B
:10017000009749F06FC08230910509F454C0833074
:10018000910561F167C020917303309174032330AE
:10019000310519F44091770301C040E06091760386
:1001A000662329F050917503533609F44BC0411171
:1001B00049C040917703442361F0A901445051099B
:1001C0004230510508F441C0215031092230310537
:1001D000E0F120917204211138C041C020917603D2
:1001E0002223C1F1209175032737A1F531C0209159
:1001F0007203222361F020917703211102C020E0D5
:1002000007C02091730330917403232BC1F721E0C1
:1002100030917603332321F0309175033737C1F0E5
:100220002223C1F015C020917203222389F020916E
:100230007703222379F02091730330917403232BE9
:1002400039F008C081E090E005C082E090E002C093
:1002500080E090E090936D0380936C030895662393
:10026000C9F3209175032337A9F783E090E0F2CF1B
:1002700064E071E083E794E00E942B0764EB70E098
:1002800084E392E00C9460136BE071E083E794E008
:100290000E942B0760E070E084E392E00C9460130E
:1002A0000F931F93CF93DF93CDB7DEB760970FB651
:1002B000F894DEBF0FBECDBF00916C0310916D03AB
:1002C0000130110541F124F40115110549F026C151
:1002D0000230110509F49EC00330110571F01EC1F2
:1002E00080917003882331F064E171E083E794E04A
:1002F0000E942B071092720317C18091700388230C
:1003000009F412C169E171E083E794E00E942B07D0
:1003100069E271E005C180917003882309F44CC043
:100320006BE571E083E794E00E942B0788E293E09D
:100330000E94D00A6A5071098109910960933702BD
:10034000709338028093390290933A0284EE92E0DF
:100350000E94D00A6A5071098109910960933B0299
:1003600070933C0280933D0290933E0280EA92E0BB
:100370000E94D00A6A5071098109910960933F0275
:100380007093400280934102909342028CE592E088
:100390000E94D00A6A507109810991096093430251
:1003A00070934402809345029093460267E372E0A3
:1003B00087E492E00E94540E87E492E00E94320F9C
:1003C00080937203811123C043EC52E060E070E03F
:1003D00088E293E00E94D60A43EC52E060E070E0CD
:1003E00084EE92E00E94D60A43EC52E060E070E0B6
:1003F00080EA92E00E94D60A43EC52E060E070E0AE
:100400008CE592E00E94D60A65E671E089C060E75B
:1004100071E086C080917003882331F065E771E058
:1004200083E794E00E942B0780917703882301F1F2
:1004300080917303909174038430910569F460E8AE
:1004400071E083E794E00E942B0767E372E087E4A2
:1004500092E00E94540E0CC08130910519F40E9464
:10046000380104C0029721F40E94440110927203E3
:100470008091720381114BC080917204882309F42A
:1004800046C065E871E083E794E00E942B07E091A5
:10049000710488E0E89FF0011124E459FC4F858540
:1004A0009685A0E0B0E089839A83AB83BC8387857F
:1004B0009089A0E0B0E08D839E83AF83B887818967
:1004C0009289A0E0B0E089879A87AB87BC8783894F
:1004D0009489A0E0B0E08D879E87AF87B88BBE017E
:1004E0006F5F7F4F87E492E00E94540E8091710409
:1004F0008F5F809371048E3151F4109272041092C8
:10050000710463E971E083E794E00E942B0787E4BC
:1005100092E00E94320F8093720306C066EA71E097
:1005200083E794E00E942B0710936F0300936E0300
:1005300060960FB6F894DEBF0FBECDBFDF91CF91AE
:100540001F910F91089526E040E855E260E070E0C9
:1005500083E794E00E94D90568EB71E083E794E0BB
:100560000E942B071092710364E070E080E195E037
:100570000E943F1062E673E080E195E00E94411026
:1005800060EA70E080E195E00E94461043EC52E0A2
:1005900060E070E088E293E00E94D60A43EC52E00B
:1005A00060E070E084EE92E00E94D60A43EC52E0F4
:1005B00060E070E080EA92E00E94D60A43EC52E0EC
:1005C00060E070E08CE592E00E94D60A40E050E0E6
:1005D00066E973E488E293E00E94570D40E050E042
:1005E00066E973E484EE92E00E94570D40E050E02B
:1005F00066E973E480EA92E00E94570D40E050E023
:1006000066E973E48CE592E00E94570D68E273E0BE
:1006100087E492E00E94440E64EE72E087E492E088
:100620000E94440E60EA72E087E492E00E94440E69
:100630006CE572E087E492E00E94440E67E070E0AF
:1006400084E392E00E9427131092740310927303C4
:1006500010926F0310926E0310926D0310926C0350
:10066000109272040895CF92EF920F93CC24C3940A
:1006700085E0E82E04E022E043E061E088E293E0D8
:100680000E94EB0C20E141E161E084EE92E00E94E7
:10069000EB0C24E045E061E080EA92E00E94EB0C84
:1006A0002EE04FE061E08CE592E00E94EB0C87E4E5
:1006B00092E00E94410E84E392E00F91EF90CF9080
:1006C0000C948D120F931F93CF93DF93CDB7DEB7AA
:1006D00062970FB6F894DEBF0FBECDBF8E010F5FDD
:1006E0001F4F80E195E00E945C0F892B49F080E16B
:1006F00095E00E94640FF801819391938F01F1CFEF
:1007000020E030E039818B819C81820F931FAA27E2
:1007100097FDA095BA2F8093370290933802A0934B
:100720003902B0933A0220E030E03D818F81988514
:10073000820F931FAA2797FDA095BA2F80933B02A3
:1007400090933C02A0933D02B0933E0220E030E043
:1007500039858B859C85820F931FAA2797FDA095CD
:10076000BA2F80933F0290934002A0934102B0932E
:10077000420220E030E03D858F859889820F931FEB
:10078000AA2797FDA095BA2F809343029093440225
:10079000A0934502B093460209891A891093740305
:1007A000009373036EED71E083E794E00E942B07E2
:1007B00060ED71E083E794E00E941E0740913702EC
:1007C000509138026091390270913A022AE030E08B
:1007D00083E794E00E94960760EE71E083E794E07F
:1007E0000E941E0740913B0250913C0260913D02E5
:1007F00070913E022AE030E083E794E00E94960781
:1008000060EE71E083E794E00E941E0740913F0292
:100810005091400260914102709142022AE030E022
:1008200083E794E00E94960760EE71E083E794E02E
:100830000E941E074091430250914402609145027C
:10084000709146022AE030E083E794E00E94960728
:1008500060EE71E083E794E00E941E074AE050E0FA
:10086000B80183E794E00E94E00781E08093710380
:100870008091730390917403059781F583EC92E066
:10088000A0E0B0E08093370290933802A093390241
:10089000B0933A0280933B0290933C02A0933D02B6
:1008A000B0933E0280933F0290934002A093410296
:1008B000B09342028093430290934402A093450276
:1008C000B093460267E372E087E492E00E94540E20
:1008D00062EE71E083E794E00E942B078091780339
:1008E000882349F16091710488E0689FF001112428
:1008F000E459FC4F809137029091380296878587A2
:1009000080913B0290913C02908B878780913F02BF
:1009100090914002928B818B80914302909144028E
:10092000948B838B6F5F609371044AE050E083E7A0
:1009300094E00E94050880917303909174030697D8
:1009400059F480917803811107C081E08093780386
:100950001092710410927204809171048F3139F4F5
:10096000109278031092710481E080937204629671
:100970000FB6F894DEBF0FBECDBFDF91CF911F91B0
:100980000F91089583E794E00E94F604019749F4DB
:1009900083E794E00E940F058093750381E08093C4
:1009A000760380917103882331F081E0809377038F
:1009B0001092710308951092770308950E94C20463
:1009C0000E94AF0041E020916C0330916D03809153
:1009D0006E0390916F032817390709F440E04093A4
:1009E00070030E945001109276030895FC01818DDE
:1009F000228D90E0805C9F4F821B91098F73992715
:100A00000895FC01918D828D981731F0828DE80F49
:100A1000F11D858D90E008958FEF9FEF0895FC0103
:100A2000918D828D981761F0828DDF01A80FB11D25
:100A30005D968C91928D9F5F9F73928F90E0089549
:100A40008FEF9FEF089583E996E0892B49F080E0CE
:100A500090E0892B29F00E94930681110C940000EC
:100A60000895FC01848DDF01A80FB11DA35ABF4F6B
:100A70002C91848D90E001968F739927848FA6899D
:100A8000B7892C93A089B1898C9180648C93938DC4
:100A9000848D981306C00288F389E02D80818F7DB4
:100AA00080830895CF93DF93EC01888D8823C9F06C
:100AB000EA89FB89808185FD05C0A889B9898C9167
:100AC00086FD0FC00FB607FCF5CF808185FFF2CF02
:100AD000A889B9898C9185FFEDCFCE010E9431059F
:100AE000E7CFDF91CF910895CF92DF92FF920F93DE
:100AF0001F93CF93DF931F92CDB7DEB76C0181E0D8
:100B0000D60158968C9358975B969C915B975C9610
:100B10008C915C97981307C05096ED91FC9151977A
:100B2000808185FD2EC0F601038D10E00F5F1F4F01
:100B30000F731127F02EF601848DF81211C00FB635
:100B400007FCF9CFD6015096ED91FC915197808129
:100B500085FFF1CFC60169830E9431056981EBCF22
:100B6000838DE80FF11DE35AFF4F6083D6015B963A
:100B70000C935B975296ED91FC9153978081806224
:100B80000CC0D6015696ED91FC9157976083509614
:100B9000ED91FC91519780818064808381E090E0A9
:100BA0000F90DF91CF911F910F91FF90DF90CF9029
:100BB0000895BF92CF92DF92EF92FF92CF93DF938F
:100BC000EC016A017B01B22EE889F98982E0808319
:100BD000411581EE580761057105A1F060E079E0EB
:100BE0008DE390E0A70196010E94E817215031099A
:100BF000410951095695479537952795211580E16B
:100C0000380798F0E889F989108260E874E88EE185
:100C100090E0A70196010E94E8172150310941098F
:100C200051095695479537952795EC85FD85308375
:100C3000EE85FF852083188EEC89FD89B082EA89D4
:100C4000FB89808180618083EA89FB89808188605B
:100C50008083EA89FB89808180688083EA89FB89B7
:100C600080818F7D8083DF91CF91FF90EF90DF9027
:100C7000CF90BF9008951F920F920FB60F9211243C
:100C80002F938F939F93EF93FF93E0918304F091C1
:100C900084048081E0918904F0918A0482FD12C06D
:100CA000908180918C048F5F8F7320918D048217C7
:100CB00051F0E0918C04F0E0ED58FB4F958F80935C
:100CC0008C0401C08081FF91EF919F918F912F91B2
:100CD0000F900FBE0F901F9018951F920F920FB696
:100CE0000F9211242F933F934F935F936F937F93B2
:100CF0008F939F93AF93BF93EF93FF9383E794E01A
:100D00000E943105FF91EF91BF91AF919F918F911B
:100D10007F916F915F914F913F912F910F900FBEF7
:100D20000F901F90189583E794E00E94F60421E04D
:100D3000892B09F420E0822F0895109276041092F6
:100D4000750488EE93E0A0E0B0E080937704909380
:100D50007804A0937904B0937A048CEE91E0909398
:100D600074048093730485EC90E0909380048093E6
:100D70007F0484EC90E0909382048093810480EC63
:100D800090E0909384048093830481EC90E09093AE
:100D900086048093850482EC90E09093880480938D
:100DA000870486EC90E090938A04809389041092E3
:100DB0008C0410928D0410928E0410928F0408956A
:100DC000CF92DF92EF92FF920F931F93CF93DF9317
:100DD0006C017A01EB01E60EF71E00E010E0CE1583
:100DE000DF0561F06991D601ED91FC910190F081F0
:100DF000E02DC6010995080F191FF1CFC801DF9139
:100E0000CF911F910F91FF90EF90DF90CF900895B9
:100E10006115710581F0DB010D900020E9F7AD014E
:100E200041505109461B570BDC01ED91FC910280AA
:100E3000F381E02D099480E090E008950C94080778
:100E4000DC01ED91FC910190F081E02D099468EFB7
:100E500071E00C9408070F931F93CF93DF93EC017D
:100E60000E9408078C01CE010E942707800F911F66
:100E7000DF91CF911F910F9108958F929F92AF9222
:100E8000BF92CF92DF92EF92FF920F931F93CF9377
:100E9000DF93CDB7DEB7A1970FB6F894DEBF0FBED4
:100EA000CDBF7C01C42EE52FCB01D22E19A221E0AB
:100EB0002D1510F02AE0D22E8E010F5D1F4F8D2CC4
:100EC000912CA12CB12C6C2D7E2FA50194010E9498
:100ED000E8178C2DD29E80191124015011098A30F7
:100EE00014F4805D01C0895CF8018083211531050F
:100EF0004105510521F0C22EE32FCA01E4CFB8010C
:100F0000C7010E940807A1960FB6F894DEBF0FBE76
:100F1000CDBFDF91CF911F910F91FF90EF90DF90A8
:100F2000CF90BF90AF909F908F900895CF92DF9217
:100F3000EF92FF920F931F93CF93DF93EC016A011F
:100F40007B012115310579F4E881F9810190F08167
:100F5000E02D642FDF91CF911F910F91FF90EF90C3
:100F6000DF90CF9009942A303105E9F477FF1AC059
:100F70006DE20E9420078C0144275527BA014C19C5
:100F80005D096E097F092AE0CE010E943D07800FAE
:100F9000911FDF91CF911F910F91FF90EF90DF9004
:100FA000CF9008952AE0B701A601CE01DF91CF913D
:100FB0001F910F91FF90EF90DF90CF900C943D0721
:100FC0000F931F93CF93DF93EC019A01AB01662738
:100FD00057FD6095762F0E9496078C01CE010E94E6
:100FE0002707800F911FDF91CF911F910F910895D7
:100FF0002115310541F4DC01ED91FC910190F08166
:10100000E02D642F09940C943D070F931F93CF9309
:10101000DF93EC019A01462F50E060E070E00E94FF
:10102000F8078C01CE010E942707800F911FDF91E6
:10103000CF911F910F91089508950E943D140E9431
:101040001C080E94A302C3E2D5E00E94DE042097A0
:10105000E1F30E942305F9CF0F931F93DC01129651
:101060000C9110E009301105C0F5F801EC5CFF4F60
:101070000C942918DC01ED91FC910084F185E02DA0
:1010800029C0DC01ED91FC910284F385E02D22C0A2
:10109000DC01ED91FC910484F585E02D1BC0DC01A1
:1010A000ED91FC910684F785E02D14C0DC01ED91F3
:1010B000FC910088F189E02D0DC0DC01ED91FC91DF
:1010C0000288F389E02D06C0DC01ED91FC910488D3
:1010D000F589E02D1F910F9109941F910F910895AB
:1010E000CF93DF93EC01CB01BA0126E030E040E082
:1010F00050E00E940A18623071058105910559F18E
:101100008CF46115710581059105F1F0613071056F
:1011100081059105C1F5E881F9810480F581E02D13
:1011200065E02DC0643071058105910511F1D4F0A1
:10113000653071058105910531F5E881F9810480FB
:10114000F581E02D66E01BC0E881F9810480F5811E
:10115000E02D64E014C0E881F9810480F581E02D80
:1011600061E00DC0E881F9810480F581E02D63E044
:1011700006C0E881F9810480F581E02D62E0CE01AE
:10118000DF91CF910994DF91CF910895CF93DF93B1
:10119000477055276627772741505109DC01CD91CB
:1011A000DC914730510528F4435C5F4FFA010C9401
:1011B0002918EC81FD8161E01BC0EC81FD8165E0B7
:1011C00017C0EC81FD8164E013C0EC81FD8166E015
:1011D0000FC0EC81FD8162E00BC0EC81FD816AE013
:1011E00007C0EC81FD8168E003C0EC81FD8169E00E
:1011F000DF91CF910994AF92BF92DF92EF92FF926D
:101200000F931F93CF93DF931F92CDB7DEB78C015F
:10121000FC018281843041F0883031F0833031F03C
:10122000863021F022E003C024E001C023E0A12C9D
:10123000B12CE62EF12CDD24D394F801EA0DFB1D30
:10124000C7010A2C02C0959587950A94E2F7678139
:1012500080FD6D25838129830E94DA14FFEFAF1A88
:10126000BF0A2981A21648F30F90DF91CF911F91F9
:101270000F91FF90EF90DF90BF90AF9008950F9384
:101280001F93CF93DF93EC01E881F9810480F5810E
:10129000E02D8C010D5B1F4FD8018C91882311F03C
:1012A00062E001C060E0CE010995E881F981048027
:1012B000F581E02DD8018C91882311F063E001C005
:1012C00061E0CE0109958BA59CA50E943214E881AE
:1012D000F9810480F581E02DD8018C91882311F0EB
:1012E00062E001C060E0CE01DF91CF911F910F91CC
:1012F0000994CF93DF93EC0120E030E0A9016B89E2
:101300007C898D899E890E940E1718161CF4EFA502
:10131000F8A902C0E9A9FAA9DF91CF910994437015
:10132000552766277727DC01ED91FC910480F58134
:10133000E02D423051056105710571F043305105D2
:101340006105710559F0413051056105710511F0D4
:1013500062E005C063E003C061E001C060E00994A1
:10136000CF93DF93EC01CB01BA0123E030E040E002
:1013700050E00E940A18613071058105910581F0E5
:10138000623071058105910591F0672B682B692BFF
:10139000C1F4E881F9810480F581E02D64E00DC09D
:1013A000E881F9810480F581E02D61E006C0E881E3
:1013B000F9810480F581E02D62E0CE01DF91CF91CB
:1013C0000994DF91CF9108954370552766277727B9
:1013D000DC01ED91FC910480F581E02D4230510556
:1013E0006105710571F0433051056105710559F0D2
:1013F000413051056105710511F065E005C066E0F9
:1014000003C06AE001C069E00994CF93DF93EC0167
:101410008A818823A1F0E881F9810480F581E02D9B
:1014200060E0CE0109958EA58F3F49F061E00E94F2
:10143000A1146DA58EA5DF91CF910C94DA14DF91E4
:10144000CF910895CF93DF93EC018A81882351F1E6
:1014500061E08B810E94A11461E08C810E94A11443
:101460008A81843011F0883039F461E08D810E94E6
:10147000A11461E08E8106C0833011F0863021F422
:1014800061E08D810E94A1148EA58F3F59F061E02B
:101490000E94A1146DA581E068278EA5DF91CF91F0
:1014A0000C94DA14DF91CF910895CF92DF92EF92EE
:1014B000FF920F931F93CF93DF93EC014BA15CA19D
:1014C0006DA17EA1452B462B472B09F44DC00E94F0
:1014D0000F146B017C010FA118A529A53AA54BA1FA
:1014E0005CA16DA17EA1400F511F621F731F4017A9
:1014F00051076207730730F0C416D506E606F706F3
:1015000058F405C0C416D506E606F70668F1C016FD
:10151000D106E206F30640F5FE01ED5BFF4F808148
:101520004B855C856D857E85882329F04F5F5F4FF5
:101530006F4F7F4F04C041505109610971094B87BA
:101540005C876D877E87E881F9814B855C856D8539
:101550007E850680F781E02DCE010995CFA2D8A621
:10156000E9A6FAA681E001C080E0DF91CF911F914A
:101570000F91FF90EF90DF90CF9008950F931F93FE
:10158000FC01678570898189928903851485258589
:101590003685601B710B820B930B1F910F91089581
:1015A000FC0163857485858596850895FC014387D4
:1015B0005487658776874787508B618B728B13AA18
:1015C00014AA15AA16AA13A214A215A216A2138A67
:1015D000148A158A168A08952F923F924F925F922D
:1015E0006F927F928F929F92AF92BF92CF92DF9233
:1015F000EF92FF920F931F93CF93DF9300D000D011
:10160000CDB7DEB71C01FC0187849088A188B28821
:1016100083859485A585B685881A990AAA0ABB0A86
:1016200063897489858996899B01AC010E94121790
:101630006B017C01F101638D748D858D968D9B010D
:10164000AC010E945B159B01AC01C701B6010E9471
:10165000C3150E942B1681149104A104B104A1F4B6
:1016600062307105810591050CF07CC0F10113A277
:1016700014A215A216A2138A148A158A168A13AA0E
:1016800014AA15AA16AA03C1F10103A914A925A930
:1016900036A9ED5BFF4F181419041A041B04FCF45F
:1016A00010161106120613064CF4681579058A0502
:1016B0009B054CF52081211155C025C00115110550
:1016C0002105310509F44EC0681579058A059B0589
:1016D0000CF048C08081882309F444C037C010163C
:1016E000110612061306F4F40027112798010819B1
:1016F00019092A093B0960177107820793071CF42F
:101700002081222379F19B01AC0188279927DC01F4
:10171000821B930BA40BB50BF10183AB94ABA5AB70
:10172000B6AB20C00115110521053105D9F0CC2437
:10173000DD247601C818D908EA08FB086C157D0578
:101740008E059F057CF4808181110CC03095209519
:10175000109501951F4F2F4F3F4FF10103AB14AB75
:1017600025AB36ABF101C3A8D4A8E5A8F6A8810142
:101770000D5B1F4FC114D104E104F10491F487A95A
:1017800090ADA1ADB2AD83AF94AFA5AFB6AF81E0E0
:10179000181419041A041B040CF080E0F80180836B
:1017A00040C0F10183AC94ACA5ACB6ACA5019401EA
:1017B000C501B4010E945B152B013C01C701B601B4
:1017C0000E945E1620E030E040E850E40E941217CC
:1017D00020E030E040E85FE30E945B159B01AC0134
:1017E000C301B2010E94C3159B01AC01C501B40144
:1017F0000E945A152B013C01F101FF9680809180D7
:10180000A280B3809401A5010E940E17181614F44B
:1018100042015301C401D501F10183AF94AFA5AFDB
:10182000B6AFFFEFCF1ADF0AEF0AFF0AF101C3AA32
:10183000D4AAE5AAF6AA23AD34AD45AD56ADCA018A
:10184000B90129833A834B835C830E943016F101EE
:1018500063A374A385A396A329813A814B815C81FC
:1018600060E074E284E799E40E94C315F101638BA0
:10187000748B858B968BF8012081211108C0DC01C7
:10188000CB01B058F101838B948BA58BB68B0F9055
:101890000F900F900F90DF91CF911F910F91FF90BC
:1018A000EF90DF90CF90BF90AF909F908F907F9000
:1018B0006F905F904F903F902F9008950F931F93DC
:1018C000FC0107851089218932890417150726072D
:1018D000370741F04787508B618B728B1F910F91B7
:1018E0000C94EC0A1F910F9108954F925F926F92A2
:1018F0007F928F929F92AF92BF92CF92DF92EF92A0
:10190000FF92CF93DF93EC016A017B018B8C9C8C5F
:10191000AD8CBE8C9A01AB01C501B4010E94BF150C
:10192000882309F449C06BA97CA98DA99EA90E94AE
:101930005E162B013C01A7019601C501B4010E946E
:10194000C3159B01AC01C301B2010E9412170E9492
:101950002B166BAB7CAB8DAB9EABA701960160E009
:1019600070E080E090E40E94C3150E94791726E59C
:101970003EE04DE25FE30E94121720E034E244E7CC
:1019800059E40E9412176FAB78AF89AF9AAFCB8E34
:10199000DC8EED8EFE8ECE01DF91CF91FF90EF9029
:1019A000DF90CF90BF90AF909F908F907F906F907F
:1019B0005F904F900C94EC0ADF91CF91FF90EF90E5
:1019C000DF90CF90BF90AF909F908F907F906F905F
:1019D0005F904F9008958F929F92AF92BF92CF9257
:1019E000EF920F93CF93DF93EC018DE092E0998318
:1019F00088836A831B861C861D861E861F86188A1E
:101A0000198A1A8A1B8A1C8A1D8A1E8A812C912C8B
:101A100080E8A82E8FE3B82E8F8A988EA98EBA8E72
:101A20001B8E1C8E1D8E1E8E8F8E98A2A9A2BAA20E
:101A30001BA21CA21DA21EA281E090E09CA78BA766
:101A40008FEF8EA71FA218A619A61AA64B832C8368
:101A50000D83EE821BAA1CAA1DAA1EAA1FAA18AEDD
:101A600019AE1AAE1BAE1CAE1DAE1EAEFE01FF9629
:101A700080829182A282B382349610821F8218865D
:101A800019861A86CC2019F0CE010E94220A40E065
:101A900050E060E87FE3CE01DF91CF910F91EF90AE
:101AA000CF90BF90AF909F908F900C94750CCF9279
:101AB000DF92EF92FF920F931F93CF93DF93EC018E
:101AC0006A017B019A01AB016F89788D898D9A8DAE
:101AD0000E94BF15882309F446C0CF8AD88EE98EAC
:101AE000FA8E8E01015C1F4FA701960160E074E23F
:101AF00084E799E40E94C315F801608371838283AF
:101B000093838BA99CA9ADA9BEA9181619061A061C
:101B10001B064CF56B897C898D899E899B01AC01E4
:101B20000E9412176B017C016B8D7C8D8D8D9E8DBB
:101B30009B01AC010E945B159B01AC01C701B60182
:101B40000E94C3150E942B166BAB7CAB8DAB9EAB7A
:101B5000CE01DF91CF911F910F91FF90EF90DF9019
:101B6000CF900C94EC0ADF91CF911F910F91FF90D1
:101B7000EF90DF90CF900895FC016789708D818D83
:101B8000928D08956F927F928F929F92AF92BF92A3
:101B9000CF92DF92EF92FF920F931F93CF93DF9339
:101BA000EC013A018B012B893C894D895E89B30197
:101BB000C8010E94BF15882309F454C0CF88D88C6F
:101BC000E98CFA8C46015701B7FAB094B7F8B09493
:101BD000A5019401B301C8010E94BF1587FD0BC088
:101BE000A7019601B301C8010E940E1718162CF424
:101BF0003601870102C03401850120E030E0A901EF
:101C0000B301C8010E94BF15811105C01BA21CA20F
:101C10001DA21EA221C09301A80160E074E284E726
:101C200099E40E94C3159F770E9430166BA37CA392
:101C30008DA39EA37E0183E4E80EF11CDD24D394E2
:101C400020E030E0A901B301C8010E940E17181668
:101C50000CF0D12CF701D082C301D8018B8B9C8B67
:101C6000AD8BBE8BDF91CF911F910F91FF90EF90C5
:101C7000DF90CF90BF90AF909F908F907F906F90AC
:101C80000895FC01148A0895FC0184898A3010F0BB
:101C900080E0089591E0980F948BE80FF11DE80F14
:101CA000F11D7183608308952F923F924F925F924E
:101CB0006F927F928F929F92AF92BF92CF92DF925C
:101CC000EF92FF920F931F93CF93DF93CDB7DEB7C1
:101CD00027970FB6F894DEBF0FBECDBF8C015B0116
:101CE000912C1982212C312C812CF8018489981691
:101CF00008F050C0F50124E0929EE00DF11D112482
:101D000040805180628073809801290D311D290D1A
:101D1000311DF901808191812C833D830E94D00A7D
:101D20006B017C012C813D81F901808191810E94B0
:101D3000BC0D9B01AC01C301B2016C197D098E0978
:101D40009F0997FF07C090958095709561957F4F8B
:101D50008F4F9F4F2C833D834A835B830E945E1687
:101D60002C813D814A815B810E94C3157B016C01FE
:101D70002981322D432D582D0E940E17181624F05C
:101D8000E980F22CC32CD82C9394E9822F2C3C2C84
:101D90008D2CABCF20E030E0A9016981722D832D1D
:101DA000982D0E940E1718160CF043C0D12CF80184
:101DB0008489D816F0F57501F4E0DF9EE00CF11C83
:101DC0001124F701408051806280738098012D0DAD
:101DD000311D2D0D311D3F832E83F90180819181AD
:101DE0000E94D00AA3019201261B370B480B590B06
:101DF000CA01B9010E945E162981322D432D582D4A
:101E00000E94C3152B013C01F70140815181628181
:101E10007381EE81FF81808191810E945E0CB3010C
:101E2000A201EE81FF81808191810E94C20DD39435
:101E3000BECF27960FB6F894DEBF0FBECDBFDF91A1
:101E4000CF911F910F91FF90EF90DF90CF90BF90B7
:101E5000AF909F908F907F906F905F904F903F904A
:101E60002F900895EF92FF920F931F93CF93DF93DC
:101E70008C01E12CF12CF8018489F816A8F4E80112
:101E8000CF0DD11DCF0DD11D888199810E94BE0A31
:101E9000672B682B692B31F0888199810E94550A44
:101EA000EE24E394F394E7CF8E2DDF91CF911F9131
:101EB0000F91FF90EF9008958091430590E020915D
:101EC0004405821B910908952091440580914305A2
:101ED000281750F4E22FF0E0EB5BFA4F808190E09E
:101EE0002F5F2093440508958FEF9FEF0895E091B1
:101EF000440580914305E81730F4F0E0EB5BFA4FBE
:101F0000808190E008958FEF9FEF08950895E0910C
:101F10001C05F0911D053097E1F0309144052091AA
:101F200043053217B0F040E0242F30E02617370782
:101F300054F4DC01A20FB31F5C91D901AB5BBA4F23
:101F40005C934F5FF1CF1092440560934305CB0142
:101F500009940895E0911E05F0911F05309729F02E
:101F6000109222051092210509940895CF92DF92D4
:101F7000EF92FF920F931F93CF93DF937C01CB01DE
:101F80008A0120912005222389F0EB016B01C40E08
:101F9000D51ECC15DD0569F06991D701ED91FC9155
:101FA0000190F081E02DC7010995F3CF642F0E94C5
:101FB0007110C801DF91CF911F910F91FF90EF90A9
:101FC000DF90CF900895CF93DF931F92CDB7DEB708
:101FD0006983209120052223D1F020912105203210
:101FE00040F021E030E0FC013383228380E090E088
:101FF00015C080912205E82FF0E0ED5DFA4F998140
:1020000090838F5F809322058093210505C061E056
:10201000CE0101960E94711081E090E00F90DF9157
:10202000CF910895FC011382128248EE53E060E0E4
:1020300070E0448355836683778387E292E09183DF
:102040008083089510924405109243051092220552
:10205000109221050C944F10CF93DF93EC01862F43
:102060000E946D108AEA9FE00E948F1087E89FE02F
:102070000E948A10CE01DF91CF910C9422100C9413
:102080002C1070931D0560931C05089570931F0517
:1020900060931E05089580E195E00C941210109253
:1020A000D20581E08093D0051092CF0561E082E1F6
:1020B0000E94DA1461E083E10E94DA14E9EBF0E0B7
:1020C00080818E7F808380818D7F808388E4809370
:1020D000B80085E48093BC000895880F8093BA000F
:1020E0000895613298F42091D205243089F46093E8
:1020F0008705FC0189E895E0DC012A2F281B2617BB
:1021000018F421912D93F9CF80E0089581E008958E
:1021100082E008959093CC058093CB050895909329
:10212000CE058093CD05089585ED8093BC00809108
:10213000BC0084FDFCCF1092D205089585EC8093FD
:10214000BC001092D20508951F920F920FB60F9205
:1021500011242F933F934F935F936F937F938F93AC
:102160009F93AF93BF93EF93FF938091B900887FC4
:10217000803609F49CC068F5883209F45BC090F49D
:10218000803109F454C038F4882309F4F5C088304C
:1021900009F44DC0F5C0883109F44CC0803209F40F
:1021A0005DC0EEC0803409F468C048F4803309F49F
:1021B00055C0883309F0E4C080936505A8C0803518
:1021C00009F44FC0883509F45DC0883409F0D8C0DF
:1021D000D5C0883909F4C6C0A8F4883709F467C0A7
:1021E00038F4883609F463C0803709F460C0C8C089
:1021F000883809F4B7C0803909F45FC0803809F025
:10220000BFC05BC0803B09F485C038F4803A09F454
:1022100066C0883A09F47EC0B3C0803C09F4A6C009
:10222000883C09F4A3C0883B09F489C0A9C0809107
:10223000D10510C09091AA058091A905981770F555
:10224000E091AA0581E08E0F8093AA05F0E0E555A4
:10225000FA4F80818093BB0085EC85C08093650533
:102260008DC0E091AA0581E08E0F8093AA05809130
:10227000BB00F0E0E555FA4F80839091AA0580916C
:10228000A9056DC0E091AA0581E08E0F8093AA0593
:102290008091BB00F0E0E555FA4F80838091D00536
:1022A00081116CC081E08093CF0584EA60C083E037
:1022B0008093D20510926605CFCF8091660580325B
:1022C00008F050C0E091660581E08E0F80936605AE
:1022D0008091BB00F0E0E959FA4F8083BDCF809137
:1022E0006605803230F4E0916605F0E0E959FA4F76
:1022F00010820E9494106091660570E0E091CB0519
:10230000F091CC0587E695E00995109266050E944C
:102310009E1036C084E08093D205109288051092FA
:102320008705E091CD05F091CE050995809187054F
:10233000811105C081E08093870510928905E091A5
:10234000880581E08E0F80938805F0E0E757FA4F0B
:1023500080818093BB0090918805809187059817B4
:1023600008F47ACF85E88093BC000AC085EC80939E
:10237000BC001092D20504C0109265050E94941012
:10238000FF91EF91BF91AF919F918F917F916F914D
:102390005F914F913F912F910F900FBE0F901F9023
:1023A00018951F920F920FB60F9211242F933F93FF
:1023B0004F935F936F937F938F939F93AF93BF934D
:1023C000EF93FF938091D40587FF05C0109285009D
:1023D000109284001AC02091D405332727FD309530
:1023E0008091D30590E0281739077CF48091D405BB
:1023F000992787FD9095FC01EE0FFF1FE80FF91F4D
:10240000EB52FA4F808186FD15C08091D4058F5F15
:102410008093D4052091D405332727FD30958091F2
:10242000D30590E028173907BCF48091D4058C308F
:102430005CF112C08091D405992787FD9095FC012D
:10244000EE0FFF1FE80FF91FEB52FA4F808160E09B
:102450008F730E94DA14D9CF809184009091850007
:10246000049680349C4918F480E49CE905C080916E
:102470008400909185000496909389008093880051
:102480008FEF8093D40538C020918400309185006F
:102490008091D405992787FD9095FC01EE0FFF1FD1
:1024A000E80FF91FEB52FA4F81819281820F931F3F
:1024B00090938900809388008091D405992787FDA7
:1024C0009095FC01EE0FFF1FE80FF91FEB52FA4F3A
:1024D000808186FF11C08091D405992787FD909552
:1024E000FC01EE0FFF1FE80FF91FEB52FA4F80813E
:1024F00061E08F730E94DA14FF91EF91BF91AF9169
:102500009F918F917F916F915F914F913F912F910B
:102510000F900FBE0F901F9018952091D3052C306F
:10252000A0F431E0320F3093D305FC012083822FD9
:1025300090E0FC01EE0FFF1FE80FF91FEB52FA4F7E
:1025400088EB9BE09283818308952FEFFC01208329
:102550000895DF92EF92FF920F931F93CF93DF9333
:10256000EC01D62E7A01890188818C3008F066C092
:1025700061E08D2D0E94A1148881A82FB0E0FD019B
:10258000EE0FFF1FEA0FFB1FEB52FA4F2D2D2F739B
:102590009081907C922B908360E272E06E197F09AB
:1025A00077FF02C06D5F7F4F75956795759567954D
:1025B000698340E659E0401B510B57FF02C04D5F55
:1025C0005F4F55954795559547954A836CE00E9416
:1025D000DC179CE0899FB001112420E030E0A901C4
:1025E000460F571FFA01EE0FFF1FE40FF51FEB52C6
:1025F000FA4F908196FD16C02F5F3F4F2C3031056A
:1026000071F781110FC01092800082E080938100E9
:102610001092850010928400B19A80916F008260C0
:1026200080936F00888190E0FC01EE0FFF1FE80FA0
:10263000F91FEB52FA4F8081806480838881DF919B
:10264000CF911F910F91FF90EF90DF90089520E6BA
:1026500039E040E252E00C94A912FC0180818C30F8
:1026600070F5918128E830E0291B310997FD3395F9
:10267000220F331F220F331F621773077CF09281E2
:1026800028E532E0291B310997FD3395220F331FCE
:10269000220F331F621773070CF49B01225031097C
:1026A000220F331F4FB7F89490E0FC01EE0FFF1F8D
:1026B000E80FF91FEB52FA4F328321834FBF089581
:1026C0004F925F926F927F92AF92BF92CF92DF92C2
:1026D000EF92FF920F931F93CF93DF93EC01603241
:1026E00082E078070CF040C077FD06C0653B7105BD
:1026F0002CF064EB70E002C060E070E0898128E8B3
:1027000030E0281B310987FD3395220F331F220F3C
:10271000331F5901CC24B7FCC094DC2C882777FDEB
:102720008095982F2A8148E552E0421B510927FDE8
:102730005395440F551F440F551F2A01662457FC1B
:102740006094762C7F926F925F924F9214EBE12E01
:10275000F12C00E010E020E030E0A9010E9410150B
:102760000F900F900F900F90CE01DF91CF911F919E
:102770000F91FF90EF90DF90CF90BF90AF907F9040
:102780006F905F904F900C942D131F920F920FB685
:102790000F9211242F933F938F939F93AF93BF93E7
:1027A0008091FA059091FB05A091FC05B091FD0583
:1027B0003091F90523E0230F2D3720F40196A11D58
:1027C000B11D05C026E8230F0296A11DB11D20935F
:1027D000F9058093FA059093FB05A093FC05B0934F
:1027E000FD058091FE059091FF05A0910006B09136
:1027F00001060196A11DB11D8093FE059093FF0572
:10280000A0930006B0930106BF91AF919F918F9165
:102810003F912F910F900FBE0F901F9018953FB7CB
:10282000F8948091FE059091FF05A0910006B0916B
:10283000010626B5A89B05C02F3F19F00196A11DE2
:10284000B11D3FBF6627782F892F9A2F620F711D08
:10285000811D911D42E0660F771F881F991F4A95C1
:10286000D1F708958230910538F0880F991F880FAD
:10287000991F05970197F1F70895789484B58260C0
:1028800084BD84B5816084BD85B5826085BD85B514
:10289000816085BDEEE6F0E0808181608083E1E8C3
:1028A000F0E01082808182608083808181608083FB
:1028B000E0E8F0E0808181608083E1EBF0E08081FE
:1028C00084608083E0EBF0E0808181608083EAE7D0
:1028D000F0E0808184608083808182608083808159
:1028E000816080838081806880831092C100089518
:1028F000833081F028F4813099F08230A1F008957E
:102900008730A9F08830B9F08430D1F4809180000C
:102910008F7D03C0809180008F7780938000089521
:1029200084B58F7702C084B58F7D84BD0895809172
:10293000B0008F7703C08091B0008F7D8093B0008E
:102940000895CF93DF9390E0FC01E456FF4F24916C
:10295000FC01E055FF4F8491882349F190E0880FF6
:10296000991FFC01E253FF4FA591B4918C539F4FE7
:10297000FC01C591D4919FB7611108C0F8948C9166
:10298000209582238C93888182230AC0623051F47F
:10299000F8948C91322F309583238C938881822BED
:1029A000888304C0F8948C91822B8C939FBFDF9115
:1029B000CF9108950F931F93CF93DF931F92CDB7BD
:1029C000DEB7282F30E0F901E857FF4F8491F90175
:1029D000E456FF4F1491F901E055FF4F0491002395
:1029E000C9F0882321F069830E9478146981E02F5F
:1029F000F0E0EE0FFF1FEC53FF4FA591B4919FB78E
:102A0000F8948C91611103C01095812301C0812B32
:102A10008C939FBF0F90DF91CF911F910F910895DD
:102A20004F925F926F927F92AF92BF92CF92DF925E
:102A3000EF92FF920F931F93CF93DF93CDB7DEB743
:102A400029013A01621B730B840B950B29893A8982
:102A50004B895C892A193B094C095D09298B3A8B02
:102A60004B8B5C8B9B01AC0169897A898B899C8932
:102A70000E94CC17E418F50806091709A801970168
:102A80000E940A182A0D3B1D4C1D5D1DCA01B9018B
:102A9000DF91CF911F910F91FF90EF90DF90CF903A
:102AA000BF90AF907F906F905F904F900895F89493
:102AB0000C9449185058BB27AA270ED075C166D16F
:102AC00030F06BD120F031F49F3F11F41EF45BC164
:102AD0000EF4E095E7FB51C1E92F77D180F3BA17E7
:102AE000620773078407950718F071F49EF58FC18C
:102AF0000EF4E0950B2EBA2FA02D0B01B901900119
:102B00000C01CA01A0011124FF27591B99F0593F5C
:102B100050F4503E68F11A16F040A22F232F342FA4
:102B20004427585FF3CF469537952795A795F040F2
:102B30005395C9F77EF41F16BA0B620B730B840B07
:102B4000BAF09150A1F0FF0FBB1F661F771F881FBF
:102B5000C2F70EC0BA0F621F731F841F48F4879517
:102B600077956795B795F7959E3F08F0B3CF939506
:102B7000880F08F09927EE0F979587950895D9D07B
:102B800008F481E008950CD00FC107D140F0FED0C9
:102B900030F021F45F3F19F0F0C0511139C1F3C09A
:102BA00014D198F39923C9F35523B1F3951B550B11
:102BB000BB27AA2762177307840738F09F5F5F4F10
:102BC000220F331F441FAA1FA9F333D00E2E3AF051
:102BD000E0E830D091505040E695001CCAF729D06B
:102BE000FE2F27D0660F771F881FBB1F26173707BA
:102BF0004807AB07B0E809F0BB0B802DBF01FF27EA
:102C000093585F4F2AF09E3F510568F0B6C000C14F
:102C10005F3FECF3983EDCF3869577956795B79523
:102C2000F7959F5FC9F7880F911D9695879597F93E
:102C30000895E1E0660F771F881FBB1F62177307B7
:102C40008407BA0720F0621B730B840BBA0BEE1FCC
:102C500088F7E095089504D06894B111D9C008951B
:102C6000BCD088F09F5790F0B92F9927B751A0F0AA
:102C7000D1F0660F771F881F991F1AF0BA95C9F710
:102C800012C0B13081F0C3D0B1E00895C0C0672F49
:102C9000782F8827B85F39F0B93FCCF386957795C0
:102CA0006795B395D9F73EF49095809570956195A9
:102CB0007F4F8F4F9F4F0895E89409C097FB3EF4D4
:102CC00090958095709561957F4F8F4F9F4F992379
:102CD000A9F0F92F96E9BB279395F69587957795F7
:102CE0006795B795F111F8CFFAF4BB0F11F460FFB7
:102CF0001BC06F5F7F4F8F4F9F4F16C0882311F00F
:102D000096E911C0772321F09EE8872F762F05C022
:102D1000662371F096E8862F70E060E02AF09A95BD
:102D2000660F771F881FDAF7880F9695879597F9B2
:102D30000895990F0008550FAA0BE0E8FEEF16164C
:102D40001706E807F907C0F012161306E407F5079F
:102D500098F0621B730B840B950B39F40A2661F013
:102D6000232B242B252B21F408950A2609F4A140B6
:102D7000A6958FEF811D811D089597F99F6780E8C3
:102D800070E060E008959FEF80EC089500240A94BD
:102D90001616170618060906089500240A94121636
:102DA0001306140605060895092E0394000C11F469
:102DB000882352F0BB0F40F4BF2B11F460FF04C016
:102DC0006F5F7F4F8F4F9F4F089557FD9058440F6F
:102DD000551F59F05F3F71F04795880F97FB991F7A
:102DE00061F09F3F79F08795089512161306140637
:102DF000551FF2CF4695F1DF08C0161617061806C4
:102E0000991FF1CF86957105610508940895E8949E
:102E1000BB2766277727CB0197F908958ADF08F447
:102E20008FEF08950BD0C0CFB1DF28F0B6DF18F0D8
:102E3000952309F0A2CFA7CF1124EACFC6DFA0F3D4
:102E4000959FD1F3950F50E0551F629FF001729F3F
:102E5000BB27F00DB11D639FAA27F00DB11DAA1F5E
:102E6000649F6627B00DA11D661F829F2227B00DAB
:102E7000A11D621F739FB00DA11D621F839FA00D36
:102E8000611D221F749F3327A00D611D231F849F86
:102E9000600D211D822F762F6A2F11249F575040DD
:102EA0008AF0E1F088234AF0EE0FFF1FBB1F661F78
:102EB000771F881F91505040A9F79E3F510570F031
:102EC0005CCFA6CF5F3FECF3983EDCF38695779519
:102ED0006795B795F795E7959F5FC1F7FE2B880F2C
:102EE000911D9695879597F9089511F40EF44BCF9F
:102EF0003EC073DFD0F39923D9F3CEF39F57550B20
:102F000087FF43D00024A0E640EA90018058569500
:102F1000979528F4805C660F771F881F20F026178E
:102F20003707480730F4621B730B840B20293129C3
:102F30004A2BA69517940794202531254A2758F740
:102F4000660F771F881F20F026173707480730F4D1
:102F5000620B730B840B200D311D411DA09581F771
:102F6000B901842F9158880F9695879508959F3FB2
:102F700031F0915020F4879577956795B795880F34
:102F8000911D9695879597F9089591505040660F39
:102F9000771F881FD2F70895DB018F939F930E94BC
:102FA0002F18BF91AF91A29F800D911DA39F900DEF
:102FB000B29F900D11240895991B79E004C0991FC8
:102FC000961708F0961B881F7A95C9F78095089583
:102FD000A1E21A2EAA1BBB1BFD010DC0AA1FBB1F1D
:102FE000EE1FFF1FA217B307E407F50720F0A21B8F
:102FF000B30BE40BF50B661F771F881F991F1A94FC
:1030000069F760957095809590959B01AC01BD0125
:10301000CF010895052E97FB1EF400940E942118FD
:1030200057FD07D00E94E81707FC03D04EF40C941C
:10303000211850954095309521953F4F4F4F5F4F48
:10304000089590958095709561957F4F8F4F9F4F14
:103050000895EE0FFF1F0590F491E02D09940E9452
:103060003A18A59F900DB49F900DA49F800D911DBF
:1030700011240895A29FB001B39FC001A39F700DBA
:10308000811D1124911DB29F700D811D1124911D70
:063090000895F894FFCF43
:103096000100000050454E2055500050454E20443A
:1030A6004F574E0057414954002D2D3E205345544D
:1030B6005550205354415445005072657373203166
:1030C6002C322C33206F72203420666F7220776882
:1030D600696368206D6F746F7220796F75207761F0
:1030E6006E7420746F207370696E0043414C4942C0
:1030F600524154450043414C4942524154454400D3
:1031060053544550004452415720535441544500AE
:10311600445241570044524157494E472043555265
:10312600564500446F6E652064726177696E67204C
:103136006375727665004552524F522C20494E20D7
:1031460044454641554C54002D3E205374617274DB
:10315600696E672047686F73745772697465720089
:10316600493243207265636569766564203A2000BA
:103176000900524553455400000000007405E0065E
:10318600F6040F05010552050D0A006E616E006911
:103196006E66006F7666002E0000000000050A22AB
:1031A6000AFB082C0879093F098F09B009E4097060
:1031B60008C60800000000E30FB60F5C0F640F7727
:0431C6000F860F0061
:00000001FF
