:100000000C946F000C9497000C9497000C9497003C
:100010000C9497000C9497000C9497000C94970004
:100020000C9497000C9497000C9497000C94441037
:100030000C9497000C9497000C9497000C949700E4
:100040000C9438120C9497000C94E2040C94140550
:100050000C9497000C9497000C9497000C949700C4
:100060000C94170F0C949700AD06B406BB06C2069D
:10007000C906E006D006E006D70650075407580721
:100080005C076007640768070000000800020100C1
:100090000003040700000000000000000102040843
:1000A00010204080010204081020010204081020E2
:1000B000040404040404040402020202020203030E
:1000C0000303030300000000250028002B000000AC
:1000D0000000240027002A008D024405BE0E1124D2
:1000E0001FBECFEFD8E0DEBFCDBF11E0A0E0B1E092
:1000F000ECE7FDE202C005900D92AE3AB107D9F7E8
:1001000024E0AEEAB1E001C01D92AF37B207E1F7DB
:1001100010E0CEEDD0E004C02297FE010E949E16B2
:10012000C83DD107C9F70E9490060C94CA130C94DD
:100130000000E0918D03F0918E030190F081E02D9D
:100140006091EC028DE893E009948091EB028823A2
:1001500029F01092EB0281E08093EC0208958091E7
:10016000E6029091E7028130910591F0823091058D
:1001700029F1009709F041C04091EC022091EE0274
:100180003091EF02411128C02330310529F521C0FB
:100190002091EE023091EF0241E02430310539F038
:1001A0002130310521F02230310509F040E0509135
:1001B000EC0251111EC04423E1F018C04091EC0242
:1001C0002091EE023091EF02411113C0233031052E
:1001D00081F481E090E011C02430310529F02150F4
:1001E00031092230310548F4411107C082E090E026
:1001F00004C0232B11F480E090E09093E7028093F9
:10020000E602089564E071E080EF92E00E94D2057A
:1002100060E070E08EEA91E00C94D3116BE071E045
:1002200080EF92E00E94D20564EB70E08EEA91E0EC
:100230000C94D311CF93DF93C091E602D091E702E3
:10024000C130D105B9F0C230D10509F498C020976A
:1002500009F0B7C08091EA02882309F4B0C0109277
:10026000E9021092E80264E171E080EF92E00E94FE
:10027000D205A5C08091EA02882309F450C0D0932A
:10028000E902C093E80269E171E080EF92E00E9428
:10029000D20582EA92E00E944309625E7F4F8F4F4F
:1002A0009F4F6093B1017093B2018093B30190931B
:1002B000B4018EE592E00E944309625E7F4F8F4F4A
:1002C0009F4F6093B5017093B6018093B7019093EF
:1002D000B8018AE192E00E944309625E7F4F8F4F2E
:1002E0009F4F6093B9017093BA018093BB019093C3
:1002F000BC0186ED91E00E944309625E7F4F8F4F03
:100300009F4F6093B9017093BA018093BB019093A2
:10031000BC0161EB71E081EC91E00E94C70C81ECC3
:1003200091E00E94A50D8093ED028093EC02811173
:1003300023C044EF51E060E070E082EA92E00E9466
:10034000490944EF51E060E070E08EE592E00E94E0
:10035000490944EF51E060E070E08AE192E00E94D8
:10036000490944EF51E060E070E086ED91E00E94C1
:10037000490963E271E014C06EE271E011C080913E
:10038000EA028823F1F0D093E902C093E802809159
:10039000EE029091EF028430910539F463E371E04D
:1003A00080EF92E00E94D2050CC08130910519F4D3
:1003B0000E94020104C0029721F40E940E011092D3
:1003C000EC02D093E902C093E802DF91CF91089547
:1003D00026E040E855E260E070E080EF92E00E94A5
:1003E000800468E371E080EF92E00E94D2051092F1
:1003F000EB0264E070E08DE893E00E94B20E6CEBDB
:1004000072E08DE893E00E94B40E69E970E08DE837
:1004100093E00E94B90E44EF51E060E070E082EAA0
:1004200092E00E94490944EF51E060E070E08EE5FF
:1004300092E00E94490944EF51E060E070E08AE1F7
:1004400092E00E94490944EF51E060E070E086EDDF
:1004500091E00E94490940E050E068EC72E482EAD1
:1004600092E00E94CA0B40E050E068EC72E48EE536
:1004700092E00E94CA0B40E050E068EC72E48AE12E
:1004800092E00E94CA0B40E050E068EC72E486ED16
:1004900091E00E94CA0B62EA72E081EC91E00E9456
:1004A000B70C6EE572E081EC91E00E94B70C6AE156
:1004B00072E081EC91E00E94B70C66ED71E081EC96
:1004C00091E00E94B70C67E070E08EEA91E00E9434
:1004D0009A111092EF021092EE021092E90210921D
:1004E000E8021092E7021092E6021092ED020895DF
:1004F0000E94A5000E94AF0041E02091E6023091E9
:10050000E7028091E8029091E9022817390709F47F
:1005100040E04093EA020C941A01CF92EF920F93BD
:10052000CC24C39485E0E82E04E022E043E061E0BF
:1005300082EA92E00E945E0B20E141E161E08EE5FB
:1005400092E00E945E0B24E045E061E08AE192E0E7
:100550000E945E0B2EE04FE061E086ED91E00E948C
:100560005E0B81EC91E00E94B40C8EEA91E00F9159
:10057000EF90CF900C9400110F931F93CF93DF93C4
:10058000CDB7DEB762970FB6F894DEBF0FBECDBF12
:100590008E010F5F1F4F8DE893E00E94CF0D892BD6
:1005A00049F08DE893E00E94D70DF8018193919373
:1005B0008F01F1CF20E030E039818B819C81820F67
:1005C000931FAA2797FDA095BA2F8093B10190930E
:1005D000B201A093B301B093B40120E030E03D81BB
:1005E0008F819885820F931FAA2797FDA095BA2F18
:1005F0008093B5019093B601A093B701B093B80171
:1006000020E030E039858B859C85820F931FAA27D7
:1006100097FDA095BA2F8093B9019093BA01A0934A
:10062000BB01B093BC0120E030E03D858F85988907
:10063000820F931FAA2797FDA095BA2F8093BD0123
:100640009093BE01A093BF01B093C00109891A899C
:100650001093EF020093EE026EE571E080EF92E0FE
:100660000E94D20560E571E080EF92E00E94C5052E
:100670004091B1015091B2016091B3017091B40108
:100680002AE030E080EF92E00E943D0660E671E0F3
:1006900080EF92E00E94C5054091B5015091B601EE
:1006A0006091B7017091B8012AE030E080EF92E0EC
:1006B0000E943D0660E671E080EF92E00E94C50571
:1006C0004091B9015091BA016091BB017091BC0198
:1006D0002AE030E080EF92E00E943D0660E671E0A3
:1006E00080EF92E00E94C5054091BD015091BE018E
:1006F0006091BF017091C0012AE030E080EF92E08C
:100700000E943D0660E671E080EF92E00E94C50520
:100710004AE050E0B80180EF92E00E94870681E055
:100720008093EB0262960FB6F894DEBF0FBECDBF8A
:10073000DF91CF911F910F910895FC01818D228D42
:1007400090E0805C9F4F821B91098F7399270895D9
:10075000FC01918D828D981731F0828DE80FF11D8B
:10076000858D90E008958FEF9FEF0895FC01918DA6
:10077000828D981761F0828DDF01A80FB11D5D9603
:100780008C91928D9F5F9F73928F90E008958FEF71
:100790009FEF08958AE395E0892B49F080E090E08F
:1007A000892B29F00E943A0581110C9400000895CC
:1007B000FC01848DDF01A80FB11DA35ABF4F2C91FE
:1007C000848D90E001968F739927848FA689B789CD
:1007D0002C93A089B1898C9180648C93938D848DA6
:1007E000981306C00288F389E02D80818F7D808375
:1007F0000895CF93DF93EC01888D8823C9F0EA89AF
:10080000FB89808185FD05C0A889B9898C9186FD09
:100810000FC00FB607FCF5CF808185FFF2CFA88906
:10082000B9898C9185FFEDCFCE010E94D803E7CF27
:10083000DF91CF910895CF92DF92FF920F931F9394
:10084000CF93DF931F92CDB7DEB76C0181E0D60165
:1008500058968C9358975B969C915B975C968C917D
:100860005C97981307C05096ED91FC915197808149
:1008700085FD2EC0F601038D10E00F5F1F4F0F7333
:100880001127F02EF601848DF81211C00FB607FC67
:10089000F9CFD6015096ED91FC915197808185FF5B
:1008A000F1CFC60169830E94D8036981EBCF838DA4
:1008B000E80FF11DE35AFF4F6083D6015B960C935E
:1008C0005B975296ED91FC915397808180620CC0AA
:1008D000D6015696ED91FC91579760835096ED9115
:1008E000FC91519780818064808381E090E00F903B
:1008F000DF91CF911F910F91FF90DF90CF900895DE
:10090000BF92CF92DF92EF92FF92CF93DF93EC01F1
:100910006A017B01B22EE889F98982E08083411562
:1009200081EE580761057105A1F060E079E08DE383
:1009300090E0A70196010E945B1621503109410900
:1009400051095695479537952795211580E1380728
:1009500098F0E889F989108260E874E88EE190E007
:10096000A70196010E945B162150310941095109E6
:100970005695479537952795EC85FD853083EE850F
:10098000FF852083188EEC89FD89B082EA89FB8976
:10099000808180618083EA89FB898081886080838F
:1009A000EA89FB89808180688083EA89FB8980816C
:1009B0008F7D8083DF91CF91FF90EF90DF90CF907C
:1009C000BF9008951F920F920FB60F9211242F938C
:1009D0008F939F93EF93FF93E0910003F0910103B6
:1009E0008081E0910603F091070382FD12C090819F
:1009F000809109038F5F8F7320910A03821751F052
:100A0000E0910903F0E0E051FD4F958F80930903D9
:100A100001C08081FF91EF919F918F912F910F9055
:100A20000FBE0F901F9018951F920F920FB60F9246
:100A300011242F933F934F935F936F937F938F93E3
:100A40009F93AF93BF93EF93FF9380EF92E00E9449
:100A5000D803FF91EF91BF91AF919F918F917F91BB
:100A60006F915F914F913F912F910F900FBE0F901B
:100A70001F90189580EF92E00E949D0321E0892B42
:100A800009F420E0822F08951092F3021092F202EE
:100A900088EE93E0A0E0B0E08093F4029093F5023A
:100AA000A093F602B093F70286E691E09093F102EC
:100AB0008093F00285EC90E09093FD028093FC021D
:100AC00084EC90E09093FF028093FE0280EC90E033
:100AD000909301038093000381EC90E090930303D3
:100AE0008093020382EC90E09093050380930403CB
:100AF00086EC90E09093070380930603109209031D
:100B000010920A0310920B0310920C030895CF92D7
:100B1000DF92EF92FF920F931F93CF93DF936C01BD
:100B20007A01EB01E60EF71E00E010E0CE15DF05BE
:100B300061F06991D601ED91FC910190F081E02D79
:100B4000C6010995080F191FF1CFC801DF91CF9198
:100B50001F910F91FF90EF90DF90CF900895611556
:100B6000710581F0DB010D900020E9F7AD014150E6
:100B70005109461B570BDC01ED91FC910280F3817A
:100B8000E02D099480E090E008950C94AF05DC011D
:100B9000ED91FC910190F081E02D099462E771E004
:100BA0000C94AF050F931F93CF93DF93EC010E943A
:100BB000AF058C01CE010E94CE05800F911FDF9101
:100BC000CF911F910F9108958F929F92AF92BF92F4
:100BD000CF92DF92EF92FF920F931F93CF93DF9309
:100BE000CDB7DEB7A1970FB6F894DEBF0FBECDBF6D
:100BF0007C01C42EE52FCB01D22E19A221E02D15A8
:100C000010F02AE0D22E8E010F5D1F4F8D2C912CFB
:100C1000A12CB12C6C2D7E2FA50194010E945B1696
:100C20008C2DD29E80191124015011098A3014F4A0
:100C3000805D01C0895CF801808321153105410583
:100C4000510521F0C22EE32FCA01E4CFB801C7013C
:100C50000E94AF05A1960FB6F894DEBF0FBECDBFC0
:100C6000DF91CF911F910F91FF90EF90DF90CF9088
:100C7000BF90AF909F908F900895CF92DF92EF92A8
:100C8000FF920F931F93CF93DF93EC016A017B01D7
:100C90002115310579F4E881F9810190F081E02D89
:100CA000642FDF91CF911F910F91FF90EF90DF9014
:100CB000CF9009942A303105E9F477FF1AC06DE22C
:100CC0000E94C7058C0144275527BA014C195D09BC
:100CD0006E097F092AE0CE010E94E405800F911F72
:100CE000DF91CF911F910F91FF90EF90DF90CF9008
:100CF00008952AE0B701A601CE01DF91CF911F919F
:100D00000F91FF90EF90DF90CF900C94E4059A0143
:100D1000AB01662757FD6095762F0C943D0608952C
:100D20000E94B0120E948F060E94E801CAECD3E034
:100D30000E9478022097E1F30E94CA03F9CF0F9333
:100D40001F93DC0112960C9110E009301105C0F5DB
:100D5000F801EC5CFF4F0C949C16DC01ED91FC91CA
:100D60000084F185E02D29C0DC01ED91FC91028425
:100D7000F385E02D22C0DC01ED91FC910484F58522
:100D8000E02D1BC0DC01ED91FC910684F785E02D80
:100D900014C0DC01ED91FC910088F189E02D0DC0BB
:100DA000DC01ED91FC910288F389E02D06C0DC01A5
:100DB000ED91FC910488F589E02D1F910F91099424
:100DC0001F910F910895CF93DF93EC01CB01BA01EE
:100DD00026E030E040E050E00E947D166230710570
:100DE0008105910559F18CF4611571058105910515
:100DF000F1F06130710581059105C1F5E881F98156
:100E00000480F581E02D65E02DC064307105810519
:100E1000910511F1D4F0653071058105910531F529
:100E2000E881F9810480F581E02D66E01BC0E8814E
:100E3000F9810480F581E02D64E014C0E881F98136
:100E40000480F581E02D61E00DC0E881F981048026
:100E5000F581E02D63E006C0E881F9810480F58129
:100E6000E02D62E0CE01DF91CF910994DF91CF9127
:100E70000895CF93DF934770552766277727415012
:100E80005109DC01CD91DC914730510528F4435CD8
:100E90005F4FFA010C949C16EC81FD8161E01BC050
:100EA000EC81FD8165E017C0EC81FD8164E013C039
:100EB000EC81FD8166E00FC0EC81FD8162E00BC03A
:100EC000EC81FD816AE007C0EC81FD8168E003C030
:100ED000EC81FD8169E0DF91CF910994AF92BF92DF
:100EE000DF92EF92FF920F931F93CF93DF931F92A6
:100EF000CDB7DEB78C01FC018281843041F08830AF
:100F000031F0833031F0863021F022E003C024E05C
:100F100001C023E0A12CB12CE62EF12CDD24D394CA
:100F2000F801EA0DFB1DC7010A2C02C095958795B3
:100F30000A94E2F7678180FD6D25838129830E94F1
:100F40004D13FFEFAF1ABF0A2981A21648F30F9085
:100F5000DF91CF911F910F91FF90EF90DF90BF90A5
:100F6000AF9008950F931F93CF93DF93EC01E88127
:100F7000F9810480F581E02D8C010D5B1F4FD801B4
:100F80008C91882311F062E001C060E0CE010995E8
:100F9000E881F9810480F581E02DD8018C918823C6
:100FA00011F063E001C061E0CE0109958BA59CA51D
:100FB0000E94A512E881F9810480F581E02DD80115
:100FC0008C91882311F062E001C060E0CE01DF91D6
:100FD000CF911F910F910994CF93DF93EC0120E003
:100FE00030E0A9016B897C898D899E890E948115D9
:100FF00018161CF4EFA5F8A902C0E9A9FAA9DF9117
:10100000CF9109944370552766277727DC01ED912E
:10101000FC910480F581E02D423051056105710598
:1010200071F0433051056105710559F041305105AA
:101030006105710511F062E005C063E003C061E085
:1010400001C060E00994CF93DF93EC01CB01BA01BA
:1010500023E030E040E050E00E947D1661307105F1
:101060008105910581F0623071058105910591F04E
:10107000672B682B692BC1F4E881F9810480F58125
:10108000E02D64E00DC0E881F9810480F581E02D58
:1010900061E006C0E881F9810480F581E02D62E01D
:1010A000CE01DF91CF910994DF91CF9108954370E4
:1010B000552766277727DC01ED91FC910480F581A7
:1010C000E02D423051056105710571F04330510545
:1010D0006105710559F0413051056105710511F047
:1010E00065E005C066E003C06AE001C069E00994FC
:1010F000CF93DF93EC018A818823A1F0E881F98105
:101100000480F581E02D60E0CE0109958EA58F3F2A
:1011100049F061E00E9414136DA58EA5DF91CF9177
:101120000C944D13DF91CF910895CF93DF93EC0191
:101130008A81882351F161E08B810E94141361E060
:101140008C810E9414138A81843011F0883039F424
:1011500061E08D810E94141361E08E8106C08330AE
:1011600011F0863021F461E08D810E9414138EA568
:101170008F3F59F061E00E9414136DA581E068274C
:101180008EA5DF91CF910C944D13DF91CF910895EF
:10119000CF92DF92EF92FF920F931F93CF93DF9343
:1011A000EC014BA15CA16DA17EA1452B462B472BE9
:1011B00009F44DC00E9482126B017C010FA118A599
:1011C00029A53AA54BA15CA16DA17EA1400F511F9D
:1011D000621F731F401751076207730730F0C41670
:1011E000D506E606F70658F405C0C416D506E60689
:1011F000F70668F1C016D106E206F30640F5FE01D7
:10120000ED5BFF4F80814B855C856D857E858823F6
:1012100029F04F5F5F4F6F4F7F4F04C0415051091E
:10122000610971094B875C876D877E87E881F98149
:101230004B855C856D857E850680F781E02DCE012E
:101240000995CFA2D8A6E9A6FAA681E001C080E060
:10125000DF91CF911F910F91FF90EF90DF90CF9092
:1012600008950F931F93FC01678570898189928986
:101270000385148525853685601B710B820B930BC6
:101280001F910F910895FC0163857485858596856E
:101290000895FC0143875487658776874787508B7D
:1012A000618B728B13AA14AA15AA16AA13A214A2F0
:1012B00015A216A2138A148A158A168A08952F92E7
:1012C0003F924F925F926F927F928F929F92AF92D6
:1012D000BF92CF92DF92EF92FF920F931F93CF9323
:1012E000DF9300D000D0CDB7DEB71C01FC018784AE
:1012F0009088A188B28883859485A585B685881A4B
:10130000990AAA0ABB0A63897489858996899B010F
:10131000AC010E9485156B017C01F101638D748D18
:10132000858D968D9B01AC010E94CE139B01AC0173
:10133000C701B6010E9436140E949E1481149104C4
:10134000A104B104A1F462307105810591050CF08E
:101350007CC0F10113A214A215A216A2138A148A4A
:10136000158A168A13AA14AA15AA16AA03C1F1018E
:1013700003A914A925A936A9ED5BFF4F1814190478
:101380001A041B04FCF410161106120613064CF482
:10139000681579058A059B054CF52081211155C0FA
:1013A00025C0011511052105310509F44EC0681548
:1013B00079058A059B050CF048C08081882309F4D3
:1013C00044C037C01016110612061306F4F40027A5
:1013D00011279801081919092A093B096017710793
:1013E000820793071CF42081222379F19B01AC0131
:1013F00088279927DC01821B930BA40BB50BF10105
:1014000083AB94ABA5ABB6AB20C00115110521058C
:101410003105D9F0CC24DD247601C818D908EA08B2
:10142000FB086C157D058E059F057CF4808181117C
:101430000CC030952095109501951F4F2F4F3F4FB1
:10144000F10103AB14AB25AB36ABF101C3A8D4A8B3
:10145000E5A8F6A881010D5B1F4FC114D104E1047A
:10146000F10491F487A990ADA1ADB2AD83AF94AF73
:10147000A5AFB6AF81E0181419041A041B040CF0D0
:1014800080E0F801808340C0F10183AC94ACA5AC4E
:10149000B6ACA5019401C501B4010E94CE132B0185
:1014A0003C01C701B6010E94D11420E030E040E8C1
:1014B00050E40E94851520E030E040E85FE30E94A0
:1014C000CE139B01AC01C301B2010E9436149B01F3
:1014D000AC01C501B4010E94CD132B013C01F10107
:1014E000FF9680809180A280B3809401A5010E9424
:1014F0008115181614F442015301C401D501F101FC
:1015000083AF94AFA5AFB6AFFFEFCF1ADF0AEF0AF4
:10151000FF0AF101C3AAD4AAE5AAF6AA23AD34AD05
:1015200045AD56ADCA01B90129833A834B835C832B
:101530000E94A314F10163A374A385A396A3298138
:101540003A814B815C8160E074E284E799E40E9417
:101550003614F101638B748B858B968BF801208197
:10156000211108C0DC01CB01B058F101838B948BB1
:10157000A58BB68B0F900F900F900F90DF91CF91AE
:101580001F910F91FF90EF90DF90CF90BF90AF90A1
:101590009F908F907F906F905F904F903F902F9093
:1015A00008950F931F93FC010785108921893289C3
:1015B000041715072607370741F04787508B618BC3
:1015C000728B1F910F910C945F091F910F910895D9
:1015D0004F925F926F927F928F929F92AF92BF9243
:1015E000CF92DF92EF92FF92CF93DF93EC016A01EB
:1015F0007B018B8C9C8CAD8CBE8C9A01AB01C501A0
:10160000B4010E943214882309F449C06BA97CA953
:101610008DA99EA90E94D1142B013C01A70196011E
:10162000C501B4010E9436149B01AC01C301B20193
:101630000E9485150E949E146BAB7CAB8DAB9EAB5C
:10164000A701960160E070E080E090E40E9436140B
:101650000E94EC1526E53EE04DE25FE30E94851511
:1016600020E034E244E759E40E9485156FAB78AF7F
:1016700089AF9AAFCB8EDC8EED8EFE8ECE01DF91E0
:10168000CF91FF90EF90DF90CF90BF90AF909F9061
:101690008F907F906F905F904F900C945F09DF91D7
:1016A000CF91FF90EF90DF90CF90BF90AF909F9041
:1016B0008F907F906F905F904F9008958F929F9240
:1016C000AF92BF92CF92EF920F93CF93DF93EC0143
:1016D00087E891E0998388836A831B861C861D8630
:1016E0001E861F86188A198A1A8A1B8A1C8A1D8AD6
:1016F0001E8A812C912C80E8A82E8FE3B82E8F8A29
:10170000988EA98EBA8E1B8E1C8E1D8E1E8E8F8E6D
:1017100098A2A9A2BAA21BA21CA21DA21EA281E08D
:1017200090E09CA78BA78FEF8EA71FA218A619A6E3
:101730001AA64B832C830D83EE821BAA1CAA1DAA1A
:101740001EAA1FAA18AE19AE1AAE1BAE1CAE1DAE55
:101750001EAEFE01FF9680829182A282B3823496F1
:1017600010821F82188619861A86CC2019F0CE01A5
:101770000E94950840E050E060E87FE3CE01DF91F1
:10178000CF910F91EF90CF90BF90AF909F908F909F
:101790000C94E80ACF92DF92EF92FF920F931F937F
:1017A000CF93DF93EC016A017B019A01AB016F8952
:1017B000788D898D9A8D0E943214882309F446C051
:1017C000CF8AD88EE98EFA8E8E01015C1F4FA70159
:1017D000960160E074E284E799E40E943614F8010F
:1017E00060837183828393838BA99CA9ADA9BEA9D1
:1017F000181619061A061B064CF56B897C898D890B
:101800009E899B01AC010E9485156B017C016B8D4B
:101810007C8D8D8D9E8D9B01AC010E94CE139B0112
:10182000AC01C701B6010E9436140E949E146BAB36
:101830007CAB8DAB9EABCE01DF91CF911F910F9111
:10184000FF90EF90DF90CF900C945F09DF91CF91E4
:101850001F910F91FF90EF90DF90CF900895FC01C2
:101860006789708D818D928D08956F927F928F928E
:101870009F92AF92BF92CF92DF92EF92FF920F931F
:101880001F93CF93DF93EC013A018B012B893C89A5
:101890004D895E89B301C8010E943214882309F47E
:1018A00054C0CF88D88CE98CFA8C46015701B7FA1E
:1018B000B094B7F8B094A5019401B301C8010E9497
:1018C000321487FD0BC0A7019601B301C8010E9425
:1018D000811518162CF43601870102C034018501E8
:1018E00020E030E0A901B301C8010E943214811147
:1018F00005C01BA21CA21DA21EA221C09301A8010B
:1019000060E074E284E799E40E9436149F770E94B5
:10191000A3146BA37CA38DA39EA37E0183E4E80E96
:10192000F11CDD24D39420E030E0A901B301C8010B
:101930000E94811518160CF0D12CF701D082C3013A
:10194000D8018B8B9C8BAD8BBE8BDF91CF911F9180
:101950000F91FF90EF90DF90CF90BF90AF909F904E
:101960008F907F906F900895FC01148A0895FC0178
:1019700084898A3010F080E0089591E0980F948B6C
:10198000E80FF11DE80FF11D7183608308952F9218
:101990003F924F925F926F927F928F929F92AF92FF
:1019A000BF92CF92DF92EF92FF920F931F93CF934C
:1019B000DF93CDB7DEB727970FB6F894DEBF0FBE23
:1019C000CDBF8C015B01912C1982212C312C812CF3
:1019D000F8018489981608F050C0F50124E0929E21
:1019E000E00DF11D112440805180628073809801C8
:1019F000290D311D290D311DF901808191812C8323
:101A00003D830E9443096B017C012C813D81F901DA
:101A1000808191810E942F0C9B01AC01C301B20116
:101A20006C197D098E099F0997FF07C090958095D5
:101A3000709561957F4F8F4F9F4F2C833D834A83D5
:101A40005B830E94D1142C813D814A815B810E947D
:101A500036147B016C012981322D432D582D0E94B3
:101A60008115181624F0E980F22CC32CD82C9394FD
:101A7000E9822F2C3C2C8D2CABCF20E030E0A9014B
:101A80006981722D832D982D0E94811518160CF0F6
:101A900043C0D12CF8018489D816F0F57501F4E023
:101AA000DF9EE00CF11C1124F70140805180628020
:101AB000738098012D0D311D2D0D311D3F832E8317
:101AC000F901808191810E944309A3019201261BA3
:101AD000370B480B590BCA01B9010E94D114298157
:101AE000322D432D582D0E9436142B013C01F70155
:101AF0004081518162817381EE81FF81808191817A
:101B00000E94D10AB301A201EE81FF8180819181FF
:101B10000E94350CD394BECF27960FB6F894DEBF43
:101B20000FBECDBFDF91CF911F910F91FF90EF902E
:101B3000DF90CF90BF90AF909F908F907F906F90ED
:101B40005F904F903F902F900895EF92FF920F93E8
:101B50001F93CF93DF938C01E12CF12CF801848942
:101B6000F816A8F4E801CF0DD11DCF0DD11D888145
:101B700099810E943109672B682B692B31F088818C
:101B800099810E94C808EE24E394F394E7CF8E2D48
:101B9000DF91CF911F910F91FF90EF900895809169
:101BA000C00390E02091C103821B91090895209108
:101BB000C1038091C003281750F4E22FF0E0EE53E8
:101BC000FC4F808190E02F5F2093C10308958FEF39
:101BD0009FEF0895E091C1038091C003E81730F4AE
:101BE000F0E0EE53FC4F808190E008958FEF9FEF7F
:101BF00008950895E0919903F0919A033097E1F0E8
:101C00003091C1032091C0033217B0F040E0242F7F
:101C100030E02617370754F4DC01A20FB31F5C91A4
:101C2000D901AE53BC4F5C934F5FF1CF1092C1030B
:101C30006093C003CB0109940895E0919B03F09158
:101C40009C03309729F010929F0310929E030994F1
:101C50000895CF92DF92EF92FF920F931F93CF934D
:101C6000DF937C01CB018A0120919D03222389F01F
:101C7000EB016B01C40ED51ECC15DD0569F0699131
:101C8000D701ED91FC910190F081E02DC7010995FC
:101C9000F3CF642F0E94E40EC801DF91CF911F9112
:101CA0000F91FF90EF90DF90CF900895CF93DF9347
:101CB0001F92CDB7DEB7698320919D032223D1F017
:101CC00020919E03203240F021E030E0FC0133837C
:101CD000228380E090E015C080919F03E82FF0E020
:101CE000E056FC4F998190838F5F80939F03809390
:101CF0009E0305C061E0CE0101960E94E40E81E0E2
:101D000090E00F90DF91CF910895FC011382128231
:101D100048EE53E060E070E0448355836683778348
:101D200081EA91E09183808308951092C10310921B
:101D3000C00310929F0310929E030C94C20ECF9387
:101D4000DF93EC01862F0E94E00E8DE19EE00E9461
:101D5000020F8AEF9DE00E94FD0ECE01DF91CF9130
:101D60000C94950E0C949F0E70939A0360939903B4
:101D7000089570939C0360939B0308958DE893E00E
:101D80000C94850E10924F0481E080934D041092C4
:101D90004C0461E082E10E944D1361E083E10E9406
:101DA0004D13E9EBF0E080818E7F808380818D7F11
:101DB000808388E48093B80085E48093BC00089514
:101DC000880F8093BA000895613298F420914F04EF
:101DD000243089F460930404FC0186E094E0DC0183
:101DE0002A2F281B261718F421912D93F9CF80E074
:101DF000089581E0089582E00895909349048093C6
:101E00004804089590934B0480934A04089585ED07
:101E10008093BC008091BC0084FDFCCF10924F04E5
:101E2000089585EC8093BC0010924F0408951F9292
:101E30000F920FB60F9211242F933F934F935F93FE
:101E40006F937F938F939F93AF93BF93EF93FF9382
:101E50008091B900887F803609F49CC068F588328B
:101E600009F45BC090F4803109F454C038F488233D
:101E700009F4F5C0883009F44DC0F5C0883109F483
:101E80004CC0803209F45DC0EEC0803409F468C0F3
:101E900048F4803309F455C0883309F0E4C08093D6
:101EA000E203A8C0803509F44FC0883509F45DC04D
:101EB000883409F0D8C0D5C0883909F4C6C0A8F460
:101EC000883709F467C038F4883609F463C080376E
:101ED00009F460C0C8C0883809F4B7C0803909F473
:101EE0005FC0803809F0BFC05BC0803B09F485C08B
:101EF00038F4803A09F466C0883A09F47EC0B3C069
:101F0000803C09F4A6C0883C09F4A3C0883B09F4CE
:101F100089C0A9C080914E0410C09091270480917F
:101F20002604981770F5E091270481E08E0F8093C6
:101F30002704F0E0E85DFB4F80818093BB0085ECD7
:101F400085C08093E2038DC0E091270481E08E0F6D
:101F5000809327048091BB00F0E0E85DFB4F808315
:101F600090912704809126046DC0E091270481E0C0
:101F70008E0F809327048091BB00F0E0E85DFB4F5B
:101F8000808380914D0481116CC081E080934C046A
:101F900084EA60C083E080934F041092E303CFCFC4
:101FA0008091E303803208F050C0E091E30381E0C8
:101FB0008E0F8093E3038091BB00F0E0EC51FC4F67
:101FC0008083BDCF8091E303803230F4E091E3035E
:101FD000F0E0EC51FC4F10820E94070F6091E30388
:101FE00070E0E0914804F091490484EE93E0099593
:101FF0001092E3030E94110F36C084E080934F04D7
:102000001092050410920404E0914A04F0914B04EC
:10201000099580910404811105C081E08093040436
:1020200010920604E091050481E08E0F8093050470
:10203000F0E0EA5FFB4F80818093BB009091050444
:1020400080910404981708F47ACF85E88093BC0047
:102050000AC085EC8093BC0010924F0404C010921B
:10206000E2030E94070FFF91EF91BF91AF919F9103
:102070008F917F916F915F914F913F912F910F9031
:102080000FBE0F901F9018951F920F920FB60F92D0
:1020900011242F933F934F935F936F937F938F936D
:1020A0009F93AF93BF93EF93FF938091510487FF6A
:1020B00005C010928500109284001AC0209151042E
:1020C000332727FD30958091500490E02817390779
:1020D0007CF480915104992787FD9095FC01EE0FC7
:1020E000FF1FE80FF91FEE5AFB4F808186FD15C0D8
:1020F000809151048F5F80935104209151043327C4
:1021000027FD30958091500490E028173907BCF4E2
:10211000809151048C305CF112C080915104992758
:1021200087FD9095FC01EE0FFF1FE80FF91FEE5A97
:10213000FB4F808160E08F730E944D13D9CF809157
:10214000840090918500049680349C4918F480E4C2
:102150009CE905C08091840090918500049690933D
:102160008900809388008FEF8093510438C02091BC
:1021700084003091850080915104992787FD9095C6
:10218000FC01EE0FFF1FE80FF91FEE5AFB4F818194
:102190009281820F931F9093890080938800809191
:1021A0005104992787FD9095FC01EE0FFF1FE80F62
:1021B000F91FEE5AFB4F808186FF11C080915104B8
:1021C000992787FD9095FC01EE0FFF1FE80FF91F7F
:1021D000EE5AFB4F808161E08F730E944D13FF9197
:1021E000EF91BF91AF919F918F917F916F915F918F
:1021F0004F913F912F910F900FBE0F901F90189508
:10220000209150042C30A0F431E0320F3093500470
:10221000FC012083822F90E0FC01EE0FFF1FE80FEE
:10222000F91FEE5AFB4F88EB9BE092838183089560
:102230002FEFFC0120830895DF92EF92FF920F931E
:102240001F93CF93DF93EC01D62E7A018901888109
:102250008C3008F066C061E08D2D0E9414138881D7
:10226000A82FB0E0FD01EE0FFF1FEA0FFB1FEE5A93
:10227000FB4F2D2D2F739081907C922B908360E2E9
:1022800072E06E197F0977FF02C06D5F7F4F759511
:10229000679575956795698340E659E0401B510B3A
:1022A00057FF02C04D5F5F4F559547955595479530
:1022B0004A836CE00E944F169CE0899FB001112474
:1022C00020E030E0A901460F571FFA01EE0FFF1F73
:1022D000E40FF51FEE5AFB4F908196FD16C02F5F5D
:1022E0003F4F2C30310571F781110FC010928000E3
:1022F00082E0809381001092850010928400B19A50
:1023000080916F00826080936F00888190E0FC0173
:10231000EE0FFF1FE80FF91FEE5AFB4F808180641C
:1023200080838881DF91CF911F910F91FF90EF9073
:10233000DF90089520E639E040E252E00C941C1151
:10234000FC0180818C3070F5918128E830E0291BF8
:10235000310997FD3395220F331F220F331F621768
:1023600073077CF0928128E532E0291B310997FD43
:102370003395220F331F220F331F621773070CF49C
:102380009B0122503109220F331F4FB7F89490E080
:10239000FC01EE0FFF1FE80FF91FEE5AFB4F3283CF
:1023A00021834FBF08954F925F926F927F92AF92B9
:1023B000BF92CF92DF92EF92FF920F931F93CF9332
:1023C000DF93EC01603282E078070CF040C077FDCB
:1023D00006C0653B71052CF064EB70E002C060E064
:1023E00070E0898128E830E0281B310987FD3395AA
:1023F000220F331F220F331F5901CC24B7FCC09486
:10240000DC2C882777FD8095982F2A8148E552E0BB
:10241000421B510927FD5395440F551F440F551F6B
:102420002A01662457FC6094762C7F926F925F920B
:102430004F9214EBE12EF12C00E010E020E030E0B0
:10244000A9010E9483130F900F900F900F90CE015F
:10245000DF91CF911F910F91FF90EF90DF90CF9080
:10246000BF90AF907F906F905F904F900C94A011B1
:102470001F920F920FB60F9211242F933F938F93B9
:102480009F93AF93BF938091770490917804A0912C
:102490007904B0917A043091760423E0230F2D372C
:1024A00020F40196A11DB11D05C026E8230F029658
:1024B000A11DB11D20937604809377049093780436
:1024C000A0937904B0937A0480917B0490917C046A
:1024D000A0917D04B0917E040196A11DB11D809351
:1024E0007B0490937C04A0937D04B0937E04BF9101
:1024F000AF919F918F913F912F910F900FBE0F90B1
:102500001F9018953FB7F89480917B0490917C04BC
:10251000A0917D04B0917E0426B5A89B05C02F3FF5
:1025200019F00196A11DB11D3FBF6627782F892F95
:102530009A2F620F711D811D911D42E0660F771F5A
:10254000881F991F4A95D1F708958230910538F078
:10255000880F991F880F991F05970197F1F7089524
:10256000789484B5826084BD84B5816084BD85B56E
:10257000826085BD85B5816085BDEEE6F0E0808135
:1025800081608083E1E8F0E0108280818260808356
:10259000808181608083E0E8F0E0808181608083D9
:1025A000E1EBF0E0808184608083E0EBF0E080810B
:1025B00081608083EAE7F0E08081846080838081AD
:1025C0008260808380818160808380818068808355
:1025D0001092C1000895833081F028F4813099F081
:1025E0008230A1F008958730A9F08830B9F08430A6
:1025F000D1F4809180008F7D03C0809180008F771F
:1026000080938000089584B58F7702C084B58F7D54
:1026100084BD08958091B0008F7703C08091B00091
:102620008F7D8093B0000895CF93DF9390E0FC01FD
:10263000E456FF4F2491FC01E055FF4F849188231D
:1026400049F190E0880F991FFC01E253FF4FA591DB
:10265000B4918C539F4FFC01C591D4919FB76111E8
:1026600008C0F8948C91209582238C9388818223D2
:102670000AC0623051F4F8948C91322F3095832344
:102680008C938881822B888304C0F8948C91822B50
:102690008C939FBFDF91CF9108950F931F93CF939A
:1026A000DF931F92CDB7DEB7282F30E0F901E8574E
:1026B000FF4F8491F901E456FF4F1491F901E05561
:1026C000FF4F04910023C9F0882321F069830E9401
:1026D000EB126981E02FF0E0EE0FFF1FEC53FF4F8C
:1026E000A591B4919FB7F8948C91611103C0109596
:1026F000812301C0812B8C939FBF0F90DF91CF91DD
:102700001F910F9108954F925F926F927F92AF92B7
:10271000BF92CF92DF92EF92FF920F931F93CF93CE
:10272000DF93CDB7DEB729013A01621B730B840B2F
:10273000950B29893A894B895C892A193B094C09EF
:102740005D09298B3A8B4B8B5C8B9B01AC016989B2
:102750007A898B899C890E943F16E418F50806093E
:102760001709A80197010E947D162A0D3B1D4C1DDB
:102770005D1DCA01B901DF91CF911F910F91FF90AB
:10278000EF90DF90CF90BF90AF907F906F905F9071
:102790004F900895F8940C94BC165058BB27AA2764
:1027A0000ED075C166D130F06BD120F031F49F3F6F
:1027B00011F41EF45BC10EF4E095E7FB51C1E92F63
:1027C00077D180F3BA17620773078407950718F06B
:1027D00071F49EF58FC10EF4E0950B2EBA2FA02D4B
:1027E0000B01B90190010C01CA01A0011124FF27BE
:1027F000591B99F0593F50F4503E68F11A16F040B9
:10280000A22F232F342F4427585FF3CF46953795B7
:102810002795A795F0405395C9F77EF41F16BA0B7C
:10282000620B730B840BBAF09150A1F0FF0FBB1F2A
:10283000661F771F881FC2F70EC0BA0F621F731F73
:10284000841F48F4879577956795B795F7959E3FD0
:1028500008F0B3CF9395880F08F09927EE0F97955E
:1028600087950895D9D008F481E008950CD00FC160
:1028700007D140F0FED030F021F45F3F19F0F0C0F6
:10288000511139C1F3C014D198F39923C9F35523D9
:10289000B1F3951B550BBB27AA2762177307840753
:1028A00038F09F5F5F4F220F331F441FAA1FA9F309
:1028B00033D00E2E3AF0E0E830D091505040E695FB
:1028C000001CCAF729D0FE2F27D0660F771F881F5C
:1028D000BB1F261737074807AB07B0E809F0BB0B4B
:1028E000802DBF01FF2793585F4F2AF09E3F51056F
:1028F00068F0B6C000C15F3FECF3983EDCF386950C
:1029000077956795B795F7959F5FC9F7880F911DE4
:102910009695879597F90895E1E0660F771F881FD0
:10292000BB1F621773078407BA0720F0621B730B83
:10293000840BBA0BEE1F88F7E095089504D06894D5
:10294000B111D9C00895BCD088F09F5790F0B92F2D
:102950009927B751A0F0D1F0660F771F881F991FF4
:102960001AF0BA95C9F712C0B13081F0C3D0B1E006
:102970000895C0C0672F782F8827B85F39F0B93F16
:10298000CCF3869577956795B395D9F73EF49095F6
:102990008095709561957F4F8F4F9F4F0895E89474
:1029A00009C097FB3EF490958095709561957F4F97
:1029B0008F4F9F4F9923A9F0F92F96E9BB27939545
:1029C000F695879577956795B795F111F8CFFAF455
:1029D000BB0F11F460FF1BC06F5F7F4F8F4F9F4F86
:1029E00016C0882311F096E911C0772321F09EE8E4
:1029F000872F762F05C0662371F096E8862F70E04A
:102A000060E02AF09A95660F771F881FDAF7880F23
:102A10009695879597F90895990F0008550FAA0B79
:102A2000E0E8FEEF16161706E807F907C0F01216E1
:102A30001306E407F50798F0621B730B840B950BE4
:102A400039F40A2661F0232B242B252B21F4089539
:102A50000A2609F4A140A6958FEF811D811D0895D6
:102A600097F99F6780E870E060E008959FEF80EC41
:102A7000089500240A9416161706180609060895E4
:102A800000240A9412161306140605060895092E4A
:102A90000394000C11F4882352F0BB0F40F4BF2BB9
:102AA00011F460FF04C06F5F7F4F8F4F9F4F0895F9
:102AB00057FD9058440F551F59F05F3F71F04795EF
:102AC000880F97FB991F61F09F3F79F087950895D4
:102AD000121613061406551FF2CF4695F1DF08C0F3
:102AE000161617061806991FF1CF86957105610510
:102AF00008940895E894BB2766277727CB0197F9B8
:102B000008958ADF08F48FEF08950BD0C0CFB1DFAE
:102B100028F0B6DF18F0952309F0A2CFA7CF112433
:102B2000EACFC6DFA0F3959FD1F3950F50E0551F74
:102B3000629FF001729FBB27F00DB11D639FAA2712
:102B4000F00DB11DAA1F649F6627B00DA11D661F61
:102B5000829F2227B00DA11D621F739FB00DA11D82
:102B6000621F839FA00D611D221F749F3327A00D3C
:102B7000611D231F849F600D211D822F762F6A2FD8
:102B800011249F5750408AF0E1F088234AF0EE0F5D
:102B9000FF1FBB1F661F771F881F91505040A9F76A
:102BA0009E3F510570F05CCFA6CF5F3FECF3983E9F
:102BB000DCF3869577956795B795F795E7959F5FD1
:102BC000C1F7FE2B880F911D9695879597F908956B
:102BD00011F40EF44BCF3EC073DFD0F39923D9F339
:102BE000CEF39F57550B87FF43D00024A0E640EA61
:102BF000900180585695979528F4805C660F771F52
:102C0000881F20F026173707480730F4621B730B24
:102C1000840B202931294A2BA69517940794202547
:102C200031254A2758F7660F771F881F20F026178F
:102C30003707480730F4620B730B840B200D311DEE
:102C4000411DA09581F7B901842F9158880F969561
:102C5000879508959F3F31F0915020F4879577959F
:102C60006795B795880F911D9695879597F9089563
:102C700091505040660F771F881FD2F70895DB01EF
:102C80008F939F930E94A216BF91AF91A29F800D38
:102C9000911DA39F900DB29F900D11240895991B33
:102CA00079E004C0991F961708F0961B881F7A9543
:102CB000C9F780950895A1E21A2EAA1BBB1BFD013E
:102CC0000DC0AA1FBB1FEE1FFF1FA217B307E4070B
:102CD000F50720F0A21BB30BE40BF50B661F771F63
:102CE000881F991F1A9469F7609570958095909543
:102CF0009B01AC01BD01CF010895052E97FB1EF489
:102D000000940E94941657FD07D00E945B1607FCA2
:102D100003D04EF40C94941650954095309521951F
:102D20003F4F4F4F5F4F08959095809570956195F7
:102D30007F4F8F4F9F4F0895EE0FFF1F0590F49127
:102D4000E02D09940E94AD16A59F900DB49F900DA3
:102D5000A49F800D911D11240895A29FB001B39FDF
:102D6000C001A39F700D811D1124911DB29F700D94
:0C2D7000811D1124911D0895F894FFCFDF
:102D7C000100000050454E2055500050454E204457
:102D8C004F574E00574149540043414C4942524120
:102D9C0054450043414C494252415445440053541C
:102DAC0045500044524157002D3E205374617274BB
:102DBC00696E672047686F73745772697465720027
:102DCC00493243207265636569766564203A200058
:102DDC000900000000001B0487059D03B603A8032F
:102DEC00F9030D0A006E616E00696E66006F7666FF
:102DFC00002E0000000000780895086E079F06EC76
:102E0C0007B207020823085708E306390700000039
:0E2E1C0000560E290ECF0DD70DEA0DF90D0050
:00000001FF
