:100000000C946F000C9497000C9497000C9497003C
:100010000C9497000C9497000C9497000C94970004
:100020000C9497000C9497000C9497000C949700F4
:100030000C9497000C9497000C9497000C949700E4
:100040000C94A80D0C9497000C9464040C949604E2
:100050000C9497000C9497000C9497000C949700C4
:100060000C947B0C0C9497002F0636063D06440634
:100070004B066206520662065906D206D606DA0614
:10008000DE06E206E606EA060000000800020100BD
:100090000003040700000000000000000102040843
:1000A00010204080010204081020010204081020E2
:1000B000040404040404040402020202020203030E
:1000C0000303030300000000250028002B000000AC
:1000D0000000240027002A00B401C604220C1124C9
:1000E0001FBECFEFD8E0DEBFCDBF11E0A0E0B1E092
:1000F000ECEEF1E202C005900D92AA39B107D9F7F2
:1001000024E0AAE9B1E001C01D92A432B207E1F7F0
:1001100010E0CEEDD0E004C02297FE010E94F01066
:10012000C83DD107C9F70E9412060C94380E0C94F2
:100130000000E0915803F09159030190F081E02D07
:100140006091B80288E593E009948091B702882312
:1001500029F01092B70281E08093B802089580914F
:10016000B2029091B30281309105A1F082309105E5
:10017000E9F0009781F52091B80221112CC020915F
:10018000B9023091BA0223303105D9F0243031055B
:1001900011F51AC04091B8022091B9023091BA020B
:1001A000411115C02430310591F40EC04091B802C0
:1001B0002091B9023091BA02411109C023303105B2
:1001C00031F481E090E007C082E090E004C0232B8E
:1001D00011F480E090E09093B3028093B20208950E
:1001E000CF93DF93C091B202D091B302C130D10559
:1001F00081F0C230D105C1F0209731F58091B6026F
:10020000882301F11092B5021092B40260E071E00F
:1002100015C08091B6028823A9F0D093B502C0938F
:10022000B40265E071E00AC08091B602882351F003
:10023000D093B502C093B4026FE071E08BEB92E013
:100240000E9454051092B802D093B502C093B40234
:10025000DF91CF91089526E040E052EC61E070E03C
:100260008BEB92E00E94020464E271E08BEB92E07F
:100270000E9454051092B70264E070E088E593E0B4
:100280000E94160C6CED71E088E593E00E94180C5A
:1002900069E970E088E593E00E941D0C44EF51E0AD
:1002A00060E070E08EE692E00E944A0840E050E094
:1002B00068E473E48EE692E00E94B40A44EF51E0F1
:1002C00060E070E08AE292E00E944A0840E050E07C
:1002D00068E473E48AE292E00E94B40A44EF51E0D9
:1002E00060E070E086EE91E00E944A0840E050E055
:1002F00068E473E486EE91E00E94B40A44EF51E0B2
:1003000060E070E082EA91E00E944A0840E050E03C
:1003100068E473E482EA91E00E94B40A61E087E055
:100320000E94B0021092BA021092B9021092B50265
:100330001092B4021092B3021092B20208950E9479
:10034000A5000E94AF0041E02091B2023091B302BB
:100350008091B4029091B5022817390709F440E062
:100360004093B6020C94F000CF92EF920F93CC24FE
:10037000C39485E0E82E04E022E043E061E08EE6ED
:1003800092E00E94480A20E141E161E08AE292E0C5
:100390000E94480A24E045E061E086EE91E00E9478
:1003A000480A2EE04FE061E082EA91E00E94480AAC
:1003B0000F91EF90CF9008950F931F93CF93DF93FA
:1003C000CDB7DEB762970FB6F894DEBF0FBECDBFD4
:1003D0008E010F5F1F4F88E593E00E94330B892B3E
:1003E00049F088E593E00E943B0BF80181939193DB
:1003F0008F01F1CF20E030E039818B819C81820F29
:10040000931F9093A1018093A00120E030E03D81F3
:100410008F819885820F931F90939F0180939E01F7
:1004200020E030E039858B859C85820F931F909367
:100430009D0180939C0120E030E03D858F85988967
:10044000820F931F90939B0180939A0109891A89C7
:100450001093BA020093B9026CE371E08BEB92E067
:100460000E9447056091A0017091A1014AE050E00F
:100470008BEB92E00E9409066CE471E08BEB92E05A
:100480000E94470560919E0170919F014AE050E0F3
:100490008BEB92E00E9409066CE471E08BEB92E03A
:1004A0000E94470560919C0170919D014AE050E0D7
:1004B0008BEB92E00E9409066CE471E08BEB92E01A
:1004C0000E94470560919A0170919B014AE050E0BB
:1004D0008BEB92E00E9409066CE471E08BEB92E0FA
:1004E0000E9447054AE050E0B8018BEB92E00E9481
:1004F000090681E08093B70262960FB6F894DEBFDA
:100500000FBECDBFDF91CF911F910F910895833022
:1005100081F028F4813099F08230A1F0089587307D
:10052000A9F08830B9F08430D1F4809180008F7DBB
:1005300003C0809180008F7780938000089584B5F8
:100540008F7702C084B58F7D84BD08958091B000FF
:100550008F7703C08091B0008F7D8093B0000895A5
:10056000CF93DF9390E0FC01E456FF4F2491FC0110
:10057000E055FF4F8491882349F190E0880F991F3F
:10058000FC01E253FF4FA591B4918C539F4FFC01A6
:10059000C591D4919FB7611108C0F8948C912095B2
:1005A00082238C93888182230AC0623051F4F894AC
:1005B0008C91322F309583238C938881822B888372
:1005C00004C0F8948C91822B8C939FBFDF91CF91C4
:1005D00008950F931F93CF93DF931F92CDB7DEB78C
:1005E000282F30E0F901E857FF4F8491F901E456D4
:1005F000FF4F1491F901E055FF4F04910023C9F01A
:10060000882321F069830E9487026981E02FF0E04E
:10061000EE0FFF1FEC53FF4FA591B4919FB7F894D5
:100620008C91611103C01095812301C0812B8C93A3
:100630009FBF0F90DF91CF911F910F910895FC0103
:10064000818D228D90E0805C9F4F821B91098F737A
:1006500099270895FC01918D828D981731F0828D34
:10066000E80FF11D858D90E008958FEF9FEF0895BD
:10067000FC01918D828D981761F0828DDF01A80FAA
:10068000B11D5D968C91928D9F5F9F73928F90E0CC
:1006900008958FEF9FEF08958CEB94E0892B49F03C
:1006A00080E090E0892B29F00E94BC0481110C9419
:1006B00000000895FC01848DDF01A80FB11DA35A2D
:1006C000BF4F2C91848D90E001968F739927848F72
:1006D000A689B7892C93A089B1898C9180648C9369
:1006E000938D848D981306C00288F389E02D808154
:1006F0008F7D80830895CF93DF93EC01888D8823CD
:10070000C9F0EA89FB89808185FD05C0A889B9897E
:100710008C9186FD0FC00FB607FCF5CF808185FF59
:10072000F2CFA889B9898C9185FFEDCFCE010E94C7
:100730005A03E7CFDF91CF910895CF92DF92FF92D6
:100740000F931F93CF93DF931F92CDB7DEB76C014A
:1007500081E0D60158968C9358975B969C915B9755
:100760005C968C915C97981307C05096ED91FC9124
:100770005197808185FD2EC0F601038D10E00F5F3B
:100780001F4F0F731127F02EF601848DF81211C040
:100790000FB607FCF9CFD6015096ED91FC91519719
:1007A000808185FFF1CFC60169830E945A03698168
:1007B000EBCF838DE80FF11DE35AFF4F6083D60125
:1007C0005B960C935B975296ED91FC9153978081C9
:1007D00080620CC0D6015696ED91FC9157976083CC
:1007E0005096ED91FC91519780818064808381E0E7
:1007F00090E00F90DF91CF911F910F91FF90DF90CC
:10080000CF900895BF92CF92DF92EF92FF92CF9355
:10081000DF93EC016A017B01B22EE889F98982E05D
:100820008083411581EE580761057105A1F060E0F4
:1008300079E08DE390E0A70196010E94AD10215070
:100840003109410951095695479537952795211545
:1008500080E1380798F0E889F989108260E874E847
:100860008EE190E0A70196010E94AD102150310960
:10087000410951095695479537952795EC85FD8592
:100880003083EE85FF852083188EEC89FD89B08248
:10089000EA89FB89808180618083EA89FB89808184
:1008A00088608083EA89FB89808180688083EA8907
:1008B000FB8980818F7D8083DF91CF91FF90EF90C6
:1008C000DF90CF90BF9008951F920F920FB60F92B6
:1008D00011242F938F939F93EF93FF93E091CB027B
:1008E000F091CC028081E091D102F091D20282FDA0
:1008F00012C090818091D4028F5F8F732091D502B6
:10090000821751F0E091D402F0E0E554FD4F958F4D
:100910008093D40201C08081FF91EF919F918F91CC
:100920002F910F900FBE0F901F9018951F920F924E
:100930000FB60F9211242F933F934F935F936F93B2
:100940007F938F939F93AF93BF93EF93FF938BEB23
:1009500092E00E945A03FF91EF91BF91AF919F9156
:100960008F917F916F915F914F913F912F910F9058
:100970000FBE0F901F9018958BEB92E00E941F0303
:1009800021E0892B09F420E0822F08951092BE0205
:100990001092BD0288EE93E0A0E0B0E08093BF0229
:1009A0009093C002A093C102B093C20282E591E08D
:1009B0009093BC028093BB0285EC90E09093C802B8
:1009C0008093C70284EC90E09093CA028093C9029E
:1009D00080EC90E09093CC028093CB0281EC90E08D
:1009E0009093CE028093CD0282EC90E09093D0025F
:1009F0008093CF0286EC90E09093D2028093D10254
:100A00001092D4021092D5021092D6021092D70200
:100A10000895CF92DF92EF92FF920F931F93CF939F
:100A2000DF936C017A01EB01E60EF71E00E010E0A7
:100A3000CE15DF0561F06991D601ED91FC91019031
:100A4000F081E02DC6010995080F191FF1CFC801EB
:100A5000DF91CF911F910F91FF90EF90DF90CF909A
:100A600008956115710581F0DB010D900020E9F713
:100A7000AD0141505109461B570BDC01ED91FC9132
:100A80000280F381E02D099480E090E008950C94B9
:100A90003105DC01ED91FC910190F081E02D09948C
:100AA0006EE571E00C9431050F931F93CF93DF93A4
:100AB000EC010E9431058C01CE010E945005800F8F
:100AC000911FDF91CF911F910F9108958F929F9267
:100AD000AF92BF92CF92DF92EF92FF920F931F934C
:100AE000CF93DF93CDB7DEB7A1970FB6F894DEBFF3
:100AF0000FBECDBF7C01C42EE52FCB01D22E19A293
:100B000021E02D1510F02AE0D22E8E010F5D1F4F2F
:100B10008D2C912CA12CB12C6C2D7E2FA501940134
:100B20000E94AD108C2DD29E801911240150110904
:100B30008A3014F4805D01C0895CF801808321153E
:100B400031054105510521F0C22EE32FCA01E4CF42
:100B5000B801C7010E943105A1960FB6F894DEBF17
:100B60000FBECDBFDF91CF911F910F91FF90EF90FE
:100B7000DF90CF90BF90AF909F908F900895CF92CD
:100B8000DF92EF92FF920F931F93CF93DF93EC01CD
:100B90006A017B012115310579F4E881F981019021
:100BA000F081E02D642FDF91CF911F910F91FF9085
:100BB000EF90DF90CF9009942A303105E9F477FF68
:100BC0001AC06DE20E9449058C0144275527BA01DD
:100BD0004C195D096E097F092AE0CE010E94660565
:100BE000800F911FDF91CF911F910F91FF90EF9098
:100BF000DF90CF9008952AE0B701A601CE01DF91E2
:100C0000CF911F910F91FF90EF90DF90CF900C94B8
:100C100066059A01AB01662757FD6095762F0C9407
:100C2000BF0508950E94FD0D0E9411060E942B0130
:100C3000CCE4D3E00E949F012097E1F30E944C0393
:100C4000F9CF0F931F93DC0112960C9110E009303D
:100C50001105C0F5F801EC5CFF4F0C94EE10DC01BF
:100C6000ED91FC910084F185E02D29C0DC01ED912E
:100C7000FC910284F385E02D22C0DC01ED91FC9112
:100C80000484F585E02D1BC0DC01ED91FC91068408
:100C9000F785E02D14C0DC01ED91FC910088F1890D
:100CA000E02D0DC0DC01ED91FC910288F389E02D6F
:100CB00006C0DC01ED91FC910488F589E02D1F91BF
:100CC0000F9109941F910F910895CF93DF93EC0139
:100CD000CB01BA0126E030E040E050E00E94CF10A6
:100CE000623071058105910559F18CF4611571052A
:100CF00081059105F1F06130710581059105C1F51E
:100D0000E881F9810480F581E02D65E02DC0643033
:100D100071058105910511F1D4F0653071058105EA
:100D2000910531F5E881F9810480F581E02D66E0D7
:100D30001BC0E881F9810480F581E02D64E014C0D6
:100D4000E881F9810480F581E02D61E00DC0E88142
:100D5000F9810480F581E02D63E006C0E881F98126
:100D60000480F581E02D62E0CE01DF91CF910994FE
:100D7000DF91CF910895CF93DF9347705527662772
:100D8000772741505109DC01CD91DC914730510565
:100D900028F4435C5F4FFA010C94EE10EC81FD8166
:100DA00061E01BC0EC81FD8165E017C0EC81FD8135
:100DB00064E013C0EC81FD8166E00FC0EC81FD8131
:100DC00062E00BC0EC81FD816AE007C0EC81FD812F
:100DD00068E003C0EC81FD8169E0DF91CF91099467
:100DE000AF92BF92DF92EF92FF920F931F93CF9338
:100DF000DF931F92CDB7DEB78C01FC018281843076
:100E000041F0883031F0833031F0863021F022E03B
:100E100003C024E001C023E0A12CB12CE62EF12C6C
:100E2000DD24D394F801EA0DFB1DC7010A2C02C092
:100E3000959587950A94E2F7678180FD6D258381FA
:100E400029830E94E902FFEFAF1ABF0A2981A21687
:100E500048F30F90DF91CF911F910F91FF90EF908A
:100E6000DF90BF90AF9008950F931F93CF93DF93C0
:100E7000EC01E881F9810480F581E02D8C010D5BA6
:100E80001F4FD8018C91882311F062E001C060E00F
:100E9000CE010995E881F9810480F581E02DD80122
:100EA0008C91882311F063E001C061E0CE010995C7
:100EB0008BA59CA50E94F20DE881F9810480F58143
:100EC000E02DD8018C91882311F062E001C060E030
:100ED000CE01DF91CF911F910F910994CF93DF93B2
:100EE000EC0120E030E0A9016B897C898D899E8925
:100EF0000E94EF0F18161CF4EFA5F8A902C0E9A98B
:100F0000FAA9DF91CF910994437055276627772777
:100F1000DC01ED91FC910480F581E02D423051051A
:100F20006105710571F0433051056105710559F096
:100F3000413051056105710511F062E005C063E0C3
:100F400003C061E001C060E00994CF93DF93EC013E
:100F5000CB01BA0123E030E040E050E00E94CF1026
:100F6000613071058105910581F06230710581055F
:100F7000910591F0672B682B692BC1F4E881F98109
:100F80000480F581E02D64E00DC0E881F9810480E2
:100F9000F581E02D61E006C0E881F9810480F581EA
:100FA000E02D62E0CE01DF91CF910994DF91CF91E6
:100FB00008954370552766277727DC01ED91FC9152
:100FC0000480F581E02D423051056105710571F015
:100FD000433051056105710559F0413051056105F6
:100FE000710511F065E005C066E003C06AE001C06C
:100FF00069E00994CF93DF93EC018A818823A1F003
:10100000E881F9810480F581E02D60E0CE01099549
:101010008EA58F3F49F061E00E94B0026DA58EA5BC
:10102000DF91CF910C94E902DF91CF910895CF9396
:10103000DF93EC018A81882351F161E08B810E946A
:10104000B00261E08C810E94B0028A81843011F08C
:10105000883039F461E08D810E94B00261E08E81B8
:1010600006C0833011F0863021F461E08D810E944A
:10107000B0028EA58F3F59F061E00E94B0026DA5CD
:1010800081E068278EA5DF91CF910C94E902DF9172
:10109000CF910895FC0143875487658776874787FA
:1010A000508B618B728B13AA14AA15AA16AA13A2CD
:1010B00014A215A216A2138A148A158A168A0895F4
:1010C0002F923F924F925F926F927F928F929F9258
:1010D000AF92BF92CF92DF92EF92FF920F931F9346
:1010E000CF93DF9300D000D0CDB7DEB71C01FC0159
:1010F00087849088A188B28883859485A585B685E4
:10110000881A990AAA0ABB0A63897489858996890B
:101110009B01AC010E94F30F6B017C01F101638D17
:10112000748D858D968D9B01AC010E943C0E9B01B8
:10113000AC01C701B6010E94A40E0E940C0F8114DD
:101140009104A104B104A1F46230710581059105F7
:101150000CF07CC0F10113A214A215A216A2138AEE
:10116000148A158A168A13AA14AA15AA16AA03C1E4
:10117000F10103A914A925A936A9ED5BFF4F1814A5
:1011800019041A041B04FCF41016110612061306A7
:101190004CF4681579058A059B054CF520812111D1
:1011A00055C025C0011511052105310509F44EC0B2
:1011B000681579058A059B050CF048C08081882355
:1011C00009F444C037C01016110612061306F4F4D1
:1011D000002711279801081919092A093B096017E6
:1011E0007107820793071CF42081222379F19B0168
:1011F000AC0188279927DC01821B930BA40BB50B4C
:10120000F10183AB94ABA5ABB6AB20C001151105C2
:1012100021053105D9F0CC24DD247601C818D90880
:10122000EA08FB086C157D058E059F057CF480811E
:1012300081110CC030952095109501951F4F2F4FAF
:101240003F4FF10103AB14AB25AB36ABF101C3A8A3
:10125000D4A8E5A8F6A881010D5B1F4FC114D104E5
:10126000E104F10491F487A990ADA1ADB2AD83AFD3
:1012700094AFA5AFB6AF81E0181419041A041B048B
:101280000CF080E0F801808340C0F10183AC94ACA5
:10129000A5ACB6ACA5019401C501B4010E943C0EF9
:1012A0002B013C01C701B6010E943F0F20E030E056
:1012B00040E850E40E94F30F20E030E040E85FE3B4
:1012C0000E943C0E9B01AC01C301B2010E94A40E1E
:1012D0009B01AC01C501B4010E943B0E2B013C01F6
:1012E000F101FF9680809180A280B3809401A501D6
:1012F0000E94EF0F181614F442015301C401D501E6
:10130000F10183AF94AFA5AFB6AFFFEFCF1ADF0AFD
:10131000EF0AFF0AF101C3AAD4AAE5AAF6AA23ADEF
:1013200034AD45AD56ADCA01B90129833A834B832B
:101330005C830E94110FF10163A374A385A396A39C
:1013400029813A814B815C8160E074E284E799E411
:101350000E94A40EF101638B748B858B968BF80130
:101360002081211108C0DC01CB01B058F101838B31
:10137000948BA58BB68B0F900F900F900F90DF91F1
:10138000CF911F910F91FF90EF90DF90CF90BF9082
:10139000AF909F908F907F906F905F904F903F9015
:1013A0002F9008954F925F926F927F928F929F92AB
:1013B000AF92BF92CF92DF92EF92FF92CF93DF93E3
:1013C000EC016A017B018B8C9C8CAD8CBE8C9A01EC
:1013D000AB01C501B4010E94A00E882309F449C0E5
:1013E0006BA97CA98DA99EA90E943F0F2B013C01EE
:1013F000A7019601C501B4010E94A40E9B01AC0196
:10140000C301B2010E94F30F0E940C0F6BAB7CABC7
:101410008DAB9EABA701960160E070E080E090E4A8
:101420000E94A40E0E945A1026E53EE04DE25FE3C2
:101430000E94F30F20E034E244E759E40E94F30FE6
:101440006FAB78AF89AF9AAFCB8EDC8EED8EFE8E10
:10145000CE01DF91CF91FF90EF90DF90CF90BF90C2
:10146000AF909F908F907F906F905F904F900C9473
:101470006008DF91CF91FF90EF90DF90CF90BF9009
:10148000AF909F908F907F906F905F904F90089556
:101490008F929F92AF92BF92CF92EF920F93CF9382
:1014A000DF93EC0183E791E0998388836A831B864D
:1014B0001C861D861E861F86188A198A1A8A1B8A10
:1014C0001C8A1D8A1E8A812C912C80E8A82E8FE30D
:1014D000B82E8F8A988EA98EBA8E1B8E1C8E1D8E6A
:1014E0001E8E8F8E98A2A9A2BAA21BA21CA21DA218
:1014F0001EA281E090E09CA78BA78FEF8EA71FA272
:1015000018A619A61AA64B832C830D83EE821BAA5C
:101510001CAA1DAA1EAA1FAA18AE19AE1AAE1BAE8F
:101520001CAE1DAE1EAEFE01FF9680829182A2828D
:10153000B382349610821F82188619861A86CC20B0
:1015400019F0CE010E94170840E050E060E87FE308
:10155000CE01DF91CF910F91EF90CF90BF90AF90E0
:101560009F908F900C94D2096F927F928F929F924E
:10157000AF92BF92CF92DF92EF92FF920F931F93A1
:10158000CF93DF93EC013A018B012B893C894D8984
:101590005E89B301C8010E94A00E882309F454C0DB
:1015A000CF88D88CE98CFA8C46015701B7FAB094F1
:1015B000B7F8B094A5019401B301C8010E94A00E30
:1015C00087FD0BC0A7019601B301C8010E94EF0F70
:1015D00018162CF43601870102C03401850120E081
:1015E00030E0A901B301C8010E94A00E811105C01D
:1015F0001BA21CA21DA21EA221C09301A80160E093
:1016000074E284E799E40E94A40E9F770E94110F70
:101610006BA37CA38DA39EA37E0183E4E80EF11C43
:10162000DD24D39420E030E0A901B301C8010E9479
:10163000EF0F18160CF0D12CF701D082C301D8019E
:101640008B8B9C8BAD8BBE8BDF91CF911F910F91BC
:10165000FF90EF90DF90CF90BF90AF909F908F90D2
:101660007F906F90089580918B0390E020918C0380
:10167000821B9109089520918C0380918B03281778
:1016800050F4E22FF0E0E357FC4F808190E02F5FB1
:1016900020938C0308958FEF9FEF0895E0918C03C2
:1016A00080918B03E81730F4F0E0E357FC4F808122
:1016B00090E008958FEF9FEF08950895E0916403FF
:1016C000F09165033097E1F030918C0320918B030A
:1016D0003217B0F040E0242F30E02617370754F4DB
:1016E000DC01A20FB31F5C91D901A357BC4F5C93DF
:1016F0004F5FF1CF10928C0360938B03CB01099461
:101700000895E0916603F0916703309729F01092F5
:101710006A031092690309940895CF92DF92EF92C1
:10172000FF920F931F93CF93DF937C01CB018A012C
:1017300020916803222389F0EB016B01C40ED51EB2
:10174000CC15DD0569F06991D701ED91FC9101900F
:10175000F081E02DC7010995F3CF642F0E94480C5A
:10176000C801DF91CF911F910F91FF90EF90DF9013
:10177000CF900895CF93DF931F92CDB7DEB76983E3
:10178000209168032223D1F020916903203240F098
:1017900021E030E0FC013383228380E090E015C03B
:1017A00080916A03E82FF0E0E559FC4F998190831E
:1017B0008F5F80936A038093690305C061E0CE0167
:1017C00001960E94480C81E090E00F90DF91CF914C
:1017D0000895FC011382128248EE53E060E070E04D
:1017E00044835583668377838DE891E0918380837A
:1017F000089510928C0310928B0310926A0310923A
:1018000069030C94260CCF93DF93EC01862F0E9482
:10181000440C81E89BE00E94660C8EE59BE00E94F0
:10182000610CCE01DF91CF910C94F90B0C94030C59
:1018300070936503609364030895709367036093E6
:101840006603089588E593E00C94E90B10921A045E
:1018500081E0809318041092170461E082E10E94F5
:10186000E90261E083E10E94E902E9EBF0E08081B6
:101870008E7F808380818D7F808388E48093B80011
:1018800085E48093BC000895880F8093BA00089582
:10189000613298F420911A04243089F46093CF03C4
:1018A000FC0181ED93E0DC012A2F281B261718F498
:1018B00021912D93F9CF80E0089581E0089582E091
:1018C000089590931404809313040895909316043C
:1018D00080931504089585ED8093BC008091BC0031
:1018E00084FDFCCF10921A04089585EC8093BC000F
:1018F00010921A0408951F920F920FB60F9211249E
:101900002F933F934F935F936F937F938F939F9307
:10191000AF93BF93EF93FF938091B900887F803698
:1019200009F49CC068F5883209F45BC090F48031FA
:1019300009F454C038F4882309F4F5C0883009F458
:101940004DC0F5C0883109F44CC0803209F45DC047
:10195000EEC0803409F468C048F4803309F455C0FF
:10196000883309F0E4C08093AD03A8C0803509F442
:101970004FC0883509F45DC0883409F0D8C0D5C09F
:10198000883909F4C6C0A8F4883709F467C038F468
:10199000883609F463C0803709F460C0C8C088384D
:1019A00009F4B7C0803909F45FC0803809F0BFC0BE
:1019B0005BC0803B09F485C038F4803A09F466C006
:1019C000883A09F47EC0B3C0803C09F4A6C0883CC4
:1019D00009F4A3C0883B09F489C0A9C08091190407
:1019E00010C09091F2038091F103981770F5E09187
:1019F000F20381E08E0F8093F203F0E0ED50FC4F94
:101A000080818093BB0085EC85C08093AD038DC041
:101A1000E091F20381E08E0F8093F2038091BB008E
:101A2000F0E0ED50FC4F80839091F2038091F10340
:101A30006DC0E091F20381E08E0F8093F2038091FC
:101A4000BB00F0E0ED50FC4F8083809118048111C1
:101A50006CC081E08093170484EA60C083E08093C7
:101A60001A041092AE03CFCF8091AE03803208F0FB
:101A700050C0E091AE0381E08E0F8093AE03809161
:101A8000BB00F0E0E155FC4F8083BDCF8091AE03F9
:101A9000803230F4E091AE03F0E0E155FC4F10826B
:101AA0000E946B0C6091AE0370E0E0911304F09122
:101AB00014048FEA93E009951092AE030E94750C0E
:101AC00036C084E080931A041092D0031092CF03A2
:101AD000E0911504F091160409958091CF038111CE
:101AE00005C081E08093CF031092D103E091D00331
:101AF00081E08E0F8093D003F0E0EF52FC4F8081A5
:101B00008093BB009091D0038091CF03981708F485
:101B10007ACF85E88093BC000AC085EC8093BC0036
:101B200010921A0404C01092AD030E946B0CFF9136
:101B3000EF91BF91AF919F918F917F916F915F9145
:101B40004F913F912F910F900FBE0F901F901895BE
:101B50001F920F920FB60F9211242F933F938F93E2
:101B60009F93AF93BF9380911C0490911D04A0910B
:101B70001E04B0911F0430911B0423E0230F2D3766
:101B800020F40196A11DB11D05C026E8230F029681
:101B9000A11DB11D20931B0480931C0490931D0470
:101BA000A0931E04B0931F048091200490912104FF
:101BB000A0912204B09123040196A11DB11D809330
:101BC000200490932104A0932204B0932304BF9196
:101BD000AF919F918F913F912F910F900FBE0F90DA
:101BE0001F9018958230910538F0880F991F880F43
:101BF000991F05970197F1F70895789484B582604D
:101C000084BD84B5816084BD85B5826085BD85B5A0
:101C1000816085BDEEE6F0E0808181608083E1E84F
:101C2000F0E0108280818260808380818160808387
:101C3000E0E8F0E0808181608083E1EBF0E080818A
:101C400084608083E0EBF0E0808181608083EAE75C
:101C5000F0E08081846080838081826080838081E5
:101C6000816080838081806880831092C1000895A4
:101C7000F8940C94F4105058BB27AA270ED075C1C5
:101C800066D130F06BD120F031F49F3F11F41EF497
:101C90005BC10EF4E095E7FB51C1E92F77D180F3EA
:101CA000BA17620773078407950718F071F49EF559
:101CB0008FC10EF4E0950B2EBA2FA02D0B01B901A8
:101CC00090010C01CA01A0011124FF27591B99F0B2
:101CD000593F50F4503E68F11A16F040A22F232FBE
:101CE000342F4427585FF3CF469537952795A7950E
:101CF000F0405395C9F77EF41F16BA0B620B730BB5
:101D0000840BBAF09150A1F0FF0FBB1F661F771F25
:101D1000881FC2F70EC0BA0F621F731F841F48F4DA
:101D2000879577956795B795F7959E3F08F0B3CF60
:101D30009395880F08F09927EE0F9795879508954A
:101D4000D9D008F481E008950CD00FC107D140F03C
:101D5000FED030F021F45F3F19F0F0C0511139C1CD
:101D6000F3C014D198F39923C9F35523B1F3951B0C
:101D7000550BBB27AA2762177307840738F09F5FAC
:101D80005F4F220F331F441FAA1FA9F333D00E2E1B
:101D90003AF0E0E830D091505040E695001CCAF788
:101DA00029D0FE2F27D0660F771F881FBB1F26174D
:101DB00037074807AB07B0E809F0BB0B802DBF0120
:101DC000FF2793585F4F2AF09E3F510568F0B6C039
:101DD00000C15F3FECF3983EDCF3869577956795FD
:101DE000B795F7959F5FC9F7880F911D96958795D1
:101DF00097F90895E1E0660F771F881FBB1F6217F0
:101E000073078407BA0720F0621B730B840BBA0BAD
:101E1000EE1F88F7E095089504D06894B111D9C0F9
:101E20000895BCD088F09F5790F0B92F9927B751EB
:101E3000A0F0D1F0660F771F881F991F1AF0BA958E
:101E4000C9F712C0B13081F0C3D0B1E00895C0C06D
:101E5000672F782F8827B85F39F0B93FCCF3869584
:101E600077956795B395D9F73EF4909580957095E1
:101E700061957F4F8F4F9F4F0895E89409C097FB5E
:101E80003EF490958095709561957F4F8F4F9F4F51
:101E90009923A9F0F92F96E9BB279395F695879595
:101EA00077956795B795F111F8CFFAF4BB0F11F458
:101EB00060FF1BC06F5F7F4F8F4F9F4F16C08823FF
:101EC00011F096E911C0772321F09EE8872F762F35
:101ED00005C0662371F096E8862F70E060E02AF076
:101EE0009A95660F771F881FDAF7880F9695879562
:101EF00097F90895990F0008550FAA0BE0E8FEEF37
:101F000016161706E807F907C0F012161306E407BD
:101F1000F50798F0621B730B840B950B39F40A26B6
:101F200061F0232B242B252B21F408950A2609F494
:101F3000A140A6958FEF811D811D089597F99F6798
:101F400080E870E060E008959FEF80EC0895002441
:101F50000A941616170618060906089500240A940E
:101F600012161306140605060895092E0394000C94
:101F700011F4882352F0BB0F40F4BF2B11F460FF23
:101F800004C06F5F7F4F8F4F9F4F089557FD90584C
:101F9000440F551F59F05F3F71F04795880F97FB2D
:101FA000991F61F09F3F79F08795089512161306E7
:101FB0001406551FF2CF4695F1DF08C01616170616
:101FC0001806991FF1CF869571056105089408954B
:101FD000E894BB2766277727CB0197F908958ADF16
:101FE00008F48FEF08950BD0C0CFB1DF28F0B6DF33
:101FF00018F0952309F0A2CFA7CF1124EACFC6DFAE
:10200000A0F3959FD1F3950F50E0551F629FF0010B
:10201000729FBB27F00DB11D639FAA27F00DB11D64
:10202000AA1F649F6627B00DA11D661F829F2227ED
:10203000B00DA11D621F739FB00DA11D621F839F74
:10204000A00D611D221F749F3327A00D611D231F4A
:10205000849F600D211D822F762F6A2F11249F5798
:1020600050408AF0E1F088234AF0EE0FFF1FBB1FBB
:10207000661F771F881F91505040A9F79E3F51055A
:1020800070F05CCFA6CF5F3FECF3983EDCF3869513
:1020900077956795B795F795E7959F5FC1F7FE2B05
:1020A000880F911D9695879597F9089511F40EF470
:1020B0004BCF3EC073DFD0F39923D9F3CEF39F57B4
:1020C000550B87FF43D00024A0E640EA90018058DA
:1020D0005695979528F4805C660F771F881F20F02F
:1020E00026173707480730F4621B730B840B20292F
:1020F00031294A2BA69517940794202531254A2784
:1021000058F7660F771F881F20F0261737074807F4
:1021100030F4620B730B840B200D311D411DA09513
:1021200081F7B901842F9158880F96958795089566
:102130009F3F31F0915020F4879577956795B7953B
:10214000880F911D9695879597F908959150504065
:10215000660F771F881FD2F70895A1E21A2EAA1BD7
:10216000BB1BFD010DC0AA1FBB1FEE1FFF1FA21747
:10217000B307E407F50720F0A21BB30BE40BF50B44
:10218000661F771F881F991F1A9469F760957095CD
:10219000809590959B01AC01BD01CF010895052E5E
:1021A00097FB1EF400940E94E61057FD07D00E9492
:1021B000AD1007FC03D04EF40C94E61050954095FA
:1021C000309521953F4F4F4F5F4F089590958095E3
:1021D000709561957F4F8F4F9F4F0895EE0FFF1FB2
:0C21E0000590F491E02D0994F894FFCFD5
:1021EC00574149540043414C4942524154450044E3
:1021FC005241570050454E2055500050454E2044FA
:10220C004F574E002D3E205374617274696E6720D7
:10221C0047686F7374577269746572004932432052
:10222C007265636569766564203A200009000000D8
:10223C0000009D0309051F0338032A037B030D0AC5
:10224C00006E616E00696E66006F7666002E00008F
:10225C00000000FA071708F00621066E0734078401
:10226C0007A507D9076506BB0600000000BA0B8D51
:0A227C000B330B3B0B4E0B5D0B0008
:00000001FF
