:100000000C946F000C9497000C9497000C9497003C
:100010000C9497000C9497000C9497000C94970004
:100020000C9497000C9497000C9497000C94DB10A0
:100030000C9497000C9497000C9497000C949700E4
:100040000C94CF120C9497000C9469050C949B05AA
:100050000C9497000C9497000C9497000C949700C4
:100060000C94AE0F0C94970044074B0752075907A6
:1000700060077707670777076E07E707EB07EF0764
:10008000F307F707FB07FF07000000080002010065
:100090000003040700000000000000000102040843
:1000A00010204080010204081020010204081020E2
:1000B000040404040404040402020202020203030E
:1000C0000303030300000000250028002B000000AC
:1000D0000000240027002A00A002CB05550F1124A0
:1000E0001FBECFEFD8E0DEBFCDBF11E0A0E0B1E092
:1000F000EAEAFEE202C005900D92A03DB107D9F7F1
:1001000024E0A0EDB1E001C01D92A33AB207E1F7EF
:1001100010E0CEEDD0E004C02297FE010E9435171A
:10012000C83DD107C9F70E9427070C9461140C94AD
:100130000000DC01ED91FC910190F081E02D09942B
:1001400080910A0390910B03892B19F462E070E00F
:1001500002C061E070E081EB93E00C949900809123
:100160000803909109038130910589F1823091054E
:1001700009F449C0009709F05AC020910F0330914B
:1001800010032330310519F44091130301C040E0FE
:1001900050911203552329F050911103533609F45D
:1001A00041C041113FC040911303442309F43FC0B3
:1001B000A901445051094230510518F482E090E001
:1001C00036C0215031092230310588F5F7CF209112
:1001D0000E03222361F020911303211102C020E0BD
:1001E00007C020910F0330911003232BC1F721E0AA
:1001F00030911203332321F0309111033737A9F0E6
:100200002223A9F012C020910E03222371F0209125
:100210001303222361F020910F0330911003232B4D
:1002200021F005C081E090E002C080E090E0909372
:10023000090380930803089564E071E084E193E08A
:100240000E94590664EB70E080ED91E00C946A1214
:100250006BE071E084E193E00E94590660E070E099
:1002600080ED91E00C946A12CF93DF93C091080364
:10027000D0910903C130D105A1F0C230D10509F4F4
:100280008FC0209709F0C1C080910C03882331F002
:1002900064E171E084E193E00E94590610920E033C
:1002A000BAC080910C03882309F44CC069E171E065
:1002B00084E193E00E94590684EC92E00E94DA09FE
:1002C0006A507109810991096093D3017093D40137
:1002D0008093D5019093D60180E892E00E94DA09DC
:1002E0006A507109810991096093D7017093D8010F
:1002F0008093D9019093DA018CE392E00E94DA09AD
:100300006A507109810991096093DB017093DC01E6
:100310008093DD019093DE0188EF91E00E94DA097D
:100320006A507109810991096093DF017093E001BE
:100330008093E1019093E20163ED71E083EE91E03F
:100340000E945E0D83EE91E00E943C0E80930E03AE
:10035000811123C043EC52E060E070E084EC92E055
:100360000E94E00943EC52E060E070E080E892E037
:100370000E94E00943EC52E060E070E08CE392E020
:100380000E94E00943EC52E060E070E088EF91E009
:100390000E94E00963E271E03AC06EE271E037C0AA
:1003A00080910C03882331F063E371E084E193E0F2
:1003B0000E94590680911303882301F180910F0355
:1003C000909110038430910569F46EE371E084E14B
:1003D00093E00E94590663ED71E083EE91E00E9484
:1003E0005E0D0CC08130910519F40E941C0104C0FF
:1003F000029721F40E94280110920E0383EE91E0EF
:100400000E943C0E80930E0306C063E471E084E119
:1004100093E00E945906D0930B03C0930A03DF9127
:10042000CF91089526E040E855E260E070E084E175
:1004300093E00E94070565E571E084E193E00E9486
:10044000590610920D0364E070E081EB93E00E9486
:10045000490F6FEC72E081EB93E00E944B0F60EA72
:1004600070E081EB93E00E94500F43EC52E060E0BB
:1004700070E084EC92E00E94E00943EC52E060E01E
:1004800070E080E892E00E94E00943EC52E060E016
:1004900070E08CE392E00E94E00943EC52E060E0FF
:1004A00070E088EF91E00E94E00940E050E066E9EA
:1004B00073E484EC92E00E94610C40E050E066E955
:1004C00073E480E892E00E94610C40E050E066E94D
:1004D00073E48CE392E00E94610C40E050E066E936
:1004E00073E488EF91E00E94610C64EC72E083EEAB
:1004F00091E00E944E0D60E872E083EE91E00E9470
:100500004E0D6CE372E083EE91E00E944E0D68EFB9
:1005100071E083EE91E00E944E0D67E070E080EDA7
:1005200091E00E9431121092100310920F0310926A
:100530000B0310920A031092090310920803089506
:10054000CF92EF920F93CC24C39485E0E82E04E081
:1005500022E043E061E084EC92E00E94F50B20E1B0
:1005600041E161E080E892E00E94F50B24E045E083
:1005700061E08CE392E00E94F50B2EE04FE061E039
:1005800088EF91E00E94F50B83EE91E00E944B0D05
:1005900080ED91E00F91EF90CF900C9497110F9315
:1005A0001F93CF93DF93CDB7DEB762970FB6F89462
:1005B000DEBF0FBECDBF8E010F5F1F4F81EB93E0FB
:1005C0000E94660E892B49F081EB93E00E946E0E2B
:1005D000F801819391938F01F1CF20E030E03981D0
:1005E0008B819C81820F931FAA2797FDA095BA2F1C
:1005F0008093D3019093D401A093D501B093D601F9
:1006000020E030E03D818F819885820F931FAA27DB
:1006100097FDA095BA2F8093D7019093D801A0930E
:10062000D901B093DA0120E030E039858B859C85D3
:10063000820F931FAA2797FDA095BA2F8093DB0105
:100640009093DC01A093DD01B093DE0120E030E067
:100650003D858F859889820F931FAA2797FDA095C6
:10066000BA2F8093DF019093E001A093E101B09352
:10067000E20109891A891093100300930F036BE7B5
:1006800071E084E193E00E9459066DE671E084E137
:1006900093E00E944C064091D3015091D4016091A7
:1006A000D5017091D6012AE030E084E193E00E9408
:1006B000C4066DE771E084E193E00E944C0640912E
:1006C000D7015091D8016091D9017091DA012AE0E7
:1006D00030E084E193E00E94C4066DE771E084E1BC
:1006E00093E00E944C064091DB015091DC01609147
:1006F000DD017091DE012AE030E084E193E00E94A8
:10070000C4066DE771E084E193E00E944C064091DD
:10071000DF015091E0016091E1017091E2012AE076
:1007200030E084E193E00E94C4066DE771E084E16B
:1007300093E00E944C064AE050E0B80184E193E067
:100740000E940E0781E080930D0380910F0390912A
:1007500010030597D1F583EC92E0A0E0B0E0809320
:10076000D3019093D401A093D501B093D601809387
:10077000D7019093D801A093D901B093DA01809367
:10078000DB019093DC01A093DD01B093DE01809347
:10079000DF019093E001A093E101B093E20163EDEA
:1007A00071E083EE91E00E945E0D6FE771E084E1FD
:1007B00093E062960FB6F894DEBF0FBECDBFDF9117
:1007C000CF911F910F910C94590662960FB6F89431
:1007D000DEBF0FBECDBFDF91CF911F910F91089566
:1007E00084E193E00E942404019749F484E193E0BA
:1007F0000E943D048093110381E080931203809155
:100800000D03882331F081E08093130310920D03D0
:1008100008951092130308950E94F0030E94AF0000
:1008200041E0209108033091090380910A039091DF
:100830000B032817390709F440E040930C030E948A
:100840003401109212030895FC01818D228D90E0F5
:10085000805C9F4F821B91098F7399270895FC013B
:10086000918D828D981731F0828DE80FF11D858D65
:1008700090E008958FEF9FEF0895FC01918D828D98
:10088000981761F0828DDF01A80FB11D5D968C91E4
:10089000928D9F5F9F73928F90E008958FEF9FEFEF
:1008A000089581EC95E0892B49F080E090E0892B58
:1008B00029F00E94C10581110C9400000895FC01EB
:1008C000848DDF01A80FB11DA35ABF4F2C91848DD9
:1008D00090E001968F739927848FA689B7892C930E
:1008E000A089B1898C9180648C93938D848D9813A9
:1008F00006C00288F389E02D80818F7D8083089572
:10090000CF93DF93EC01888D8823C9F0EA89FB89B6
:10091000808185FD05C0A889B9898C9186FD0FC0AD
:100920000FB607FCF5CF808185FFF2CFA889B98982
:100930008C9185FFEDCFCE010E945F04E7CFDF9160
:10094000CF910895CF92DF92FF920F931F93CF9391
:10095000DF931F92CDB7DEB76C0181E0D6015896C8
:100960008C9358975B969C915B975C968C915C9767
:10097000981307C05096ED91FC915197808185FDA9
:100980002EC0F601038D10E00F5F1F4F0F7311276C
:10099000F02EF601848DF81211C00FB607FCF9CFC6
:1009A000D6015096ED91FC915197808185FFF1CF52
:1009B000C60169830E945F046981EBCF838DE80FD4
:1009C000F11DE35AFF4F6083D6015B960C935B9752
:1009D0005296ED91FC915397808180620CC0D601B4
:1009E0005696ED91FC91579760835096ED91FC914E
:1009F000519780818064808381E090E00F90DF9147
:100A0000CF911F910F91FF90DF90CF900895BF92EB
:100A1000CF92DF92EF92FF92CF93DF93EC016A01C6
:100A20007B01B22EE889F98982E08083411581EE4D
:100A3000580761057105A1F060E079E08DE390E071
:100A4000A70196010E94F21621503109410951096E
:100A50005695479537952795211580E1380798F0E9
:100A6000E889F989108260E874E88EE190E0A701D6
:100A700096010E94F21621503109410951095695FB
:100A8000479537952795EC85FD853083EE85FF8565
:100A90002083188EEC89FD89B082EA89FB898081E8
:100AA00080618083EA89FB89808188608083EA890C
:100AB000FB89808180688083EA89FB8980818F7DC2
:100AC0008083DF91CF91FF90EF90DF90CF90BF9028
:100AD00008951F920F920FB60F9211242F938F93A8
:100AE0009F93EF93FF93E0912403F091250380817E
:100AF000E0912A03F0912B0382FD12C09081809136
:100B00002D038F5F8F7320912E03821751F0E09198
:100B10002D03F0E0EC5EFC4F958F80932D0301C018
:100B20008081FF91EF919F918F912F910F900FBE38
:100B30000F901F9018951F920F920FB60F921124CD
:100B40002F933F934F935F936F937F938F939F93D5
:100B5000AF93BF93EF93FF9384E193E00E945F0410
:100B6000FF91EF91BF91AF919F918F917F916F9185
:100B70005F914F913F912F910F900FBE0F901F905B
:100B8000189584E193E00E94240421E0892B09F464
:100B900020E0822F0895109217031092160388EE1A
:100BA00093E0A0E0B0E08093180390931903A09322
:100BB0001A03B0931B0389E891E090931503809387
:100BC000140385EC90E0909321038093200384EC40
:100BD00090E0909323038093220380EC90E0909325
:100BE00025038093240381EC90E090932703809366
:100BF000260382EC90E0909329038093280386ECEF
:100C000090E090932B0380932A0310922D0310926F
:100C10002E0310922F03109230030895CF92DF928B
:100C2000EF92FF920F931F93CF93DF936C017A01A2
:100C3000EB01E60EF71E00E010E0CE15DF0561F0D7
:100C40006991D601ED91FC910190F081E02DC601F2
:100C50000995080F191FF1CFC801DF91CF911F919E
:100C60000F91FF90EF90DF90CF900895611571057F
:100C700081F0DB010D900020E9F7AD0141505109F1
:100C8000461B570BDC01ED91FC910280F381E02DB6
:100C9000099480E090E008950C943606DC01ED9113
:100CA000FC910190F081E02D099465E971E00C94CC
:100CB00036060F931F93CF93DF93EC010E94360605
:100CC0008C01CE010E945506800F911FDF91CF91BC
:100CD0001F910F9108958F929F92AF92BF92CF92E2
:100CE000DF92EF92FF920F931F93CF93DF93CDB7D5
:100CF000DEB7A1970FB6F894DEBF0FBECDBF7C0163
:100D0000C42EE52FCB01D22E19A221E02D1510F013
:100D10002AE0D22E8E010F5D1F4F8D2C912CA12C1D
:100D2000B12C6C2D7E2FA50194010E94F2168C2D02
:100D3000D29E80191124015011098A3014F4805D6B
:100D400001C0895CF80180832115310541055105F9
:100D500021F0C22EE32FCA01E4CFB801C7010E94DF
:100D60003606A1960FB6F894DEBF0FBECDBFDF9159
:100D7000CF911F910F91FF90EF90DF90CF90BF9098
:100D8000AF909F908F900895CF92DF92EF92FF9255
:100D90000F931F93CF93DF93EC016A017B01211521
:100DA000310579F4E881F9810190F081E02D642F1B
:100DB000DF91CF911F910F91FF90EF90DF90CF9037
:100DC00009942A303105E9F477FF1AC06DE20E94D8
:100DD0004E068C0144275527BA014C195D096E094E
:100DE0007F092AE0CE010E946B06800F911FDF91E0
:100DF000CF911F910F91FF90EF90DF90CF900895CA
:100E00002AE0B701A601CE01DF91CF911F910F918A
:100E1000FF90EF90DF90CF900C946B060F931F9391
:100E2000CF93DF93EC019A01AB01662757FD6095E4
:100E3000762F0E94C4068C01CE010E945506800FB9
:100E4000911FDF91CF911F910F91089508950E94F6
:100E500047130E9426070E941202C1E5D4E00E94B7
:100E60000C042097E1F30E945104F9CF0F931F93D4
:100E7000DC0112960C9110E009301105C0F5F80163
:100E8000EC5CFF4F0C943317DC01ED91FC91008476
:100E9000F185E02D29C0DC01ED91FC910284F38500
:100EA000E02D22C0DC01ED91FC910484F585E02D5C
:100EB0001BC0DC01ED91FC910684F785E02D14C088
:100EC000DC01ED91FC910088F189E02D0DC0DC0181
:100ED000ED91FC910288F389E02D06C0DC01ED91D3
:100EE000FC910488F589E02D1F910F9109941F91C1
:100EF0000F910895CF93DF93EC01CB01BA0126E067
:100F000030E040E050E00E94141762307105810526
:100F1000910559F18CF46115710581059105F1F088
:100F20006130710581059105C1F5E881F981048081
:100F3000F581E02D65E02DC06430710581059105D6
:100F400011F1D4F0653071058105910531F5E88125
:100F5000F9810480F581E02D66E01BC0E881F9810C
:100F60000480F581E02D64E014C0E881F9810480FB
:100F7000F581E02D61E00DC0E881F9810480F58103
:100F8000E02D63E006C0E881F9810480F581E02D61
:100F900062E0CE01DF91CF910994DF91CF91089566
:100FA000CF93DF9347705527662777274150510924
:100FB000DC01CD91DC914730510528F4435C5F4F53
:100FC000FA010C943317EC81FD8161E01BC0EC81C8
:100FD000FD8165E017C0EC81FD8164E013C0EC8108
:100FE000FD8166E00FC0EC81FD8162E00BC0EC8109
:100FF000FD816AE007C0EC81FD8168E003C0EC81FF
:10100000FD8169E0DF91CF910994AF92BF92DF92A9
:10101000EF92FF920F931F93CF93DF931F92CDB761
:10102000DEB78C01FC018281843041F0883031F0E0
:10103000833031F0863021F022E003C024E001C08B
:1010400023E0A12CB12CE62EF12CDD24D394F80161
:10105000EA0DFB1DC7010A2C02C0959587950A94DD
:10106000E2F7678180FD6D25838129830E94E41367
:10107000FFEFAF1ABF0A2981A21648F30F90DF9144
:10108000CF911F910F91FF90EF90DF90BF90AF90A5
:1010900008950F931F93CF93DF93EC01E881F981BB
:1010A0000480F581E02D8C010D5B1F4FD8018C91E0
:1010B000882311F062E001C060E0CE010995E8816B
:1010C000F9810480F581E02DD8018C91882311F0FD
:1010D00063E001C061E0CE0109958BA59CA50E944B
:1010E0003C13E881F9810480F581E02DD8018C91D1
:1010F000882311F062E001C060E0CE01DF91CF9162
:101100001F910F910994CF93DF93EC0120E030E021
:10111000A9016B897C898D899E890E9418161816F1
:101120001CF4EFA5F8A902C0E9A9FAA9DF91CF91B3
:1011300009944370552766277727DC01ED91FC91D0
:101140000480F581E02D423051056105710571F093
:10115000433051056105710559F041305105610574
:10116000710511F062E005C063E003C061E001C0F9
:1011700060E00994CF93DF93EC01CB01BA0123E047
:1011800030E040E050E00E941417613071058105A5
:10119000910581F0623071058105910591F0672B11
:1011A000682B692BC1F4E881F9810480F581E02D79
:1011B00064E00DC0E881F9810480F581E02D61E0F3
:1011C00006C0E881F9810480F581E02D62E0CE015E
:1011D000DF91CF910994DF91CF9108954370552706
:1011E00066277727DC01ED91FC910480F581E02DE5
:1011F000423051056105710571F0433051056105BB
:10120000710559F0413051056105710511F065E036
:1012100005C066E003C06AE001C069E00994CF93AD
:10122000DF93EC018A818823A1F0E881F9810480B1
:10123000F581E02D60E0CE0109958EA58F3F49F044
:1012400061E00E94AB136DA58EA5DF91CF910C9448
:10125000E413DF91CF910895CF93DF93EC018A815E
:10126000882351F161E08B810E94AB1361E08C8196
:101270000E94AB138A81843011F0883039F461E028
:101280008D810E94AB1361E08E8106C0833011F026
:10129000863021F461E08D810E94AB138EA58F3FD3
:1012A00059F061E00E94AB136DA581E068278EA51F
:1012B000DF91CF910C94E413DF91CF910895CF92F9
:1012C000DF92EF92FF920F931F93CF93DF93EC0186
:1012D0004BA15CA16DA17EA1452B462B472B09F4A8
:1012E0004DC00E9419136B017C010FA118A529A5FF
:1012F0003AA54BA15CA16DA17EA1400F511F621FB9
:10130000731F401751076207730730F0C416D506E4
:10131000E606F70658F405C0C416D506E606F70635
:1013200068F1C016D106E206F30640F5FE01ED5B5A
:10133000FF4F80814B855C856D857E85882329F0F4
:101340004F5F5F4F6F4F7F4F04C04150510961099C
:1013500071094B875C876D877E87E881F9814B85B2
:101360005C856D857E850680F781E02DCE0109952F
:10137000CFA2D8A6E9A6FAA681E001C080E0DF915D
:10138000CF911F910F91FF90EF90DF90CF90089534
:101390000F931F93FC01678570898189928903856A
:1013A000148525853685601B710B820B930B1F916D
:1013B0000F910895FC016385748585859685089550
:1013C000FC0143875487658776874787508B618BFD
:1013D000728B13AA14AA15AA16AA13A214A215A2F4
:1013E00016A2138A148A158A168A08952F923F929C
:1013F0004F925F926F927F928F929F92AF92BF9225
:10140000CF92DF92EF92FF920F931F93CF93DF93D0
:1014100000D000D0CDB7DEB71C01FC0187849088D6
:10142000A188B28883859485A585B685881A990A8E
:10143000AA0ABB0A63897489858996899B01AC01D4
:101440000E941C166B017C01F101638D748D858DEA
:10145000968D9B01AC010E9465149B01AC01C701F4
:10146000B6010E94CD140E94351581149104A10487
:10147000B104A1F462307105810591050CF07CC0C6
:10148000F10113A214A215A216A2138A148A158AB6
:10149000168A13AA14AA15AA16AA03C1F10103A950
:1014A00014A925A936A9ED5BFF4F181419041A04D5
:1014B0001B04FCF410161106120613064CF46815F2
:1014C00079058A059B054CF52081211155C025C061
:1014D000011511052105310509F44EC0681579057E
:1014E0008A059B050CF048C08081882309F444C01C
:1014F00037C01016110612061306F4F40027112740
:101500009801081919092A093B0960177107820710
:1015100093071CF42081222379F19B01AC018827D9
:101520009927DC01821B930BA40BB50BF10183AB54
:1015300094ABA5ABB6AB20C0011511052105310553
:10154000D9F0CC24DD247601C818D908EA08FB08B4
:101550006C157D058E059F057CF4808181110CC082
:1015600030952095109501951F4F2F4F3F4FF1015A
:1015700003AB14AB25AB36ABF101C3A8D4A8E5A8E7
:10158000F6A881010D5B1F4FC114D104E104F104E1
:1015900091F487A990ADA1ADB2AD83AF94AFA5AFE3
:1015A000B6AF81E0181419041A041B040CF080E093
:1015B000F801808340C0F10183AC94ACA5ACB6AC1B
:1015C000A5019401C501B4010E9465142B013C01E1
:1015D000C701B6010E94681520E030E040E850E401
:1015E0000E941C1620E030E040E85FE30E94651492
:1015F0009B01AC01C301B2010E94CD149B01AC015F
:10160000C501B4010E9464142B013C01F101FF9655
:1016100080809180A280B3809401A5010E94181659
:10162000181614F442015301C401D501F10183AF2E
:1016300094AFA5AFB6AFFFEFCF1ADF0AEF0AFF0AEC
:10164000F101C3AAD4AAE5AAF6AA23AD34AD45ADEB
:1016500056ADCA01B90129833A834B835C830E944A
:101660003A15F10163A374A385A396A329813A8156
:101670004B815C8160E074E284E799E40E94CD14C0
:10168000F101638B748B858B968BF801208121117E
:1016900008C0DC01CB01B058F101838B948BA58B82
:1016A000B68B0F900F900F900F90DF91CF911F91FD
:1016B0000F91FF90EF90DF90CF90BF90AF909F90F1
:1016C0008F907F906F905F904F903F902F900895F4
:1016D0000F931F93FC010785108921893289041714
:1016E00015072607370741F04787508B618B728BB0
:1016F0001F910F910C94F6091F910F9108954F922D
:101700005F926F927F928F929F92AF92BF92CF9291
:10171000DF92EF92FF92CF93DF93EC016A017B019E
:101720008B8C9C8CAD8CBE8C9A01AB01C501B40135
:101730000E94C914882309F449C06BA97CA98DA90A
:101740009EA90E9468152B013C01A7019601C501C5
:10175000B4010E94CD149B01AC01C301B2010E94EF
:101760001C160E9435156BAB7CAB8DAB9EABA701F5
:10177000960160E070E080E090E40E94CD140E9449
:10178000831626E53EE04DE25FE30E941C1620E052
:1017900034E244E759E40E941C166FAB78AF89AF7E
:1017A0009AAFCB8EDC8EED8EFE8ECE01DF91CF9187
:1017B000FF90EF90DF90CF90BF90AF909F908F9071
:1017C0007F906F905F904F900C94F609DF91CF91CE
:1017D000FF90EF90DF90CF90BF90AF909F908F9051
:1017E0007F906F905F904F9008958F929F92AF92ED
:1017F000BF92CF92EF920F93CF93DF93EC018AEADF
:1018000091E0998388836A831B861C861D861E86C9
:101810001F86188A198A1A8A1B8A1C8A1D8A1E8AA0
:10182000812C912C80E8A82E8FE3B82E8F8A988E79
:10183000A98EBA8E1B8E1C8E1D8E1E8E8F8E98A228
:10184000A9A2BAA21BA21CA21DA21EA281E090E026
:101850009CA78BA78FEF8EA71FA218A619A61AA662
:101860004B832C830D83EE821BAA1CAA1DAA1EAAE1
:101870001FAA18AE19AE1AAE1BAE1CAE1DAE1EAE20
:10188000FE01FF9680829182A282B38234961082FA
:101890001F82188619861A86CC2019F0CE010E9464
:1018A0002C0940E050E060E87FE3CE01DF91CF916A
:1018B0000F91EF90CF90BF90AF909F908F900C942E
:1018C0007F0BCF92DF92EF92FF920F931F93CF93F4
:1018D000DF93EC016A017B019A01AB016F89788D7E
:1018E000898D9A8D0E94C914882309F446C0CF8A35
:1018F000D88EE98EFA8E8E01015C1F4FA7019601EA
:1019000060E074E284E799E40E94CD14F8016083FA
:101910007183828393838BA99CA9ADA9BEA9181654
:1019200019061A061B064CF56B897C898D899E89E0
:101930009B01AC010E941C166B017C016B8D7C8DA0
:101940008D8D9E8D9B01AC010E9465149B01AC01A5
:10195000C701B6010E94CD140E9435156BAB7CAB5C
:101960008DAB9EABCE01DF91CF911F910F91FF9078
:10197000EF90DF90CF900C94F609DF91CF911F91FB
:101980000F91FF90EF90DF90CF900895FC01678951
:10199000708D818D928D08956F927F928F929F921C
:1019A000AF92BF92CF92DF92EF92FF920F931F936D
:1019B000CF93DF93EC013A018B012B893C894D8950
:1019C0005E89B301C8010E94C914882309F454C078
:1019D000CF88D88CE98CFA8C46015701B7FAB094BD
:1019E000B7F8B094A5019401B301C8010E94C914CD
:1019F00087FD0BC0A7019601B301C8010E9418160C
:101A000018162CF43601870102C03401850120E04C
:101A100030E0A901B301C8010E94C914811105C0B9
:101A20001BA21CA21DA21EA221C09301A80160E05E
:101A300074E284E799E40E94CD149F770E943A15DE
:101A40006BA37CA38DA39EA37E0183E4E80EF11C0F
:101A5000DD24D39420E030E0A901B301C8010E9445
:101A6000181618160CF0D12CF701D082C301D8013A
:101A70008B8B9C8BAD8BBE8BDF91CF911F910F9188
:101A8000FF90EF90DF90CF90BF90AF909F908F909E
:101A90007F906F900895FC01148A0895FC01848959
:101AA0008A3010F080E0089591E0980F948BE80F51
:101AB000F11DE80FF11D7183608308952F923F920D
:101AC0004F925F926F927F928F929F92AF92BF924E
:101AD000CF92DF92EF92FF920F931F93CF93DF93FA
:101AE000CDB7DEB727970FB6F894DEBF0FBECDBFD8
:101AF0008C015B01912C1982212C312C812CF80155
:101B00008489981608F050C0F50124E0929EE00DFB
:101B1000F11D112440805180628073809801290D4D
:101B2000311D290D311DF901808191812C833D8367
:101B30000E94DA096B017C012C813D81F9018081D1
:101B400091810E94C60C9B01AC01C301B2016C19CA
:101B50007D098E099F0997FF07C090958095709524
:101B600061957F4F8F4F9F4F2C833D834A835B83CB
:101B70000E9468152C813D814A815B810E94CD14B1
:101B80007B016C012981322D432D582D0E9418169E
:101B9000181624F0E980F22CC32CD82C9394E982F7
:101BA0002F2C3C2C8D2CABCF20E030E0A90169819B
:101BB000722D832D982D0E94181618160CF043C014
:101BC000D12CF8018489D816F0F57501F4E0DF9E78
:101BD000E00CF11C1124F701408051806280738079
:101BE00098012D0D311D2D0D311D3F832E83F901DF
:101BF000808191810E94DA09A3019201261B370B93
:101C0000480B590BCA01B9010E9468152981322D70
:101C1000432D582D0E94CD142B013C01F70140812A
:101C2000518162817381EE81FF81808191810E9467
:101C3000680BB301A201EE81FF81808191810E9436
:101C4000CC0CD394BECF27960FB6F894DEBF0FBE50
:101C5000CDBFDF91CF911F910F91FF90EF90DF905B
:101C6000CF90BF90AF909F908F907F906F905F903C
:101C70004F903F902F900895EF92FF920F931F93F4
:101C8000CF93DF938C01E12CF12CF8018489F816B5
:101C9000A8F4E801CF0DD11DCF0DD11D8881998108
:101CA0000E94C809672B682B692B31F088819981C4
:101CB0000E945F09EE24E394F394E7CF8E2DDF9129
:101CC000CF911F910F91FF90EF9008958091E403C1
:101CD00090E02091E503821B910908952091E5038E
:101CE0008091E403281750F4E22FF0E0EA51FC4F12
:101CF000808190E02F5F2093E50308958FEF9FEFA1
:101D00000895E091E5038091E403E81730F4F0E0F2
:101D1000EA51FC4F808190E008958FEF9FEF089586
:101D20000895E091BD03F091BE033097E1F030914A
:101D3000E5032091E4033217B0F040E0242F30E0B7
:101D40002617370754F4DC01A20FB31F5C91D901A9
:101D5000AA51BC4F5C934F5FF1CF1092E5036093A3
:101D6000E403CB0109940895E091BF03F091C0030F
:101D7000309729F01092C3031092C203099408957A
:101D8000CF92DF92EF92FF920F931F93CF93DF9347
:101D90007C01CB018A012091C103222389F0EB0150
:101DA0006B01C40ED51ECC15DD0569F06991D70114
:101DB000ED91FC910190F081E02DC7010995F3CFE1
:101DC000642F0E947B0FC801DF91CF911F910F916B
:101DD000FF90EF90DF90CF900895CF93DF931F9205
:101DE000CDB7DEB769832091C1032223D1F02091C2
:101DF000C203203240F021E030E0FC013383228333
:101E000080E090E015C08091C303E82FF0E0EC5330
:101E1000FC4F998190838F5F8093C3038093C203AB
:101E200005C061E0CE0101960E947B0F81E090E049
:101E30000F90DF91CF910895FC011382128248EE3A
:101E400053E060E070E0448355836683778384ECDD
:101E500091E09183808308951092E5031092E4034A
:101E60001092C3031092C2030C94590FCF93DF93C7
:101E7000EC01862F0E94770F84EB9EE00E94990F61
:101E800081E99EE00E94940FCE01DF91CF910C94E6
:101E90002C0F0C94360F7093BE036093BD0308950E
:101EA0007093C0036093BF03089581EB93E00C949B
:101EB0001C0F1092730481E08093710410927004DF
:101EC00061E082E10E94E41361E083E10E94E41397
:101ED000E9EBF0E080818E7F808380818D7F80833D
:101EE00088E48093B80085E48093BC000895880F4F
:101EF0008093BA000895613298F4209173042430DD
:101F000089F460932804FC018AE294E0DC012A2F22
:101F1000281B261718F421912D93F9CF80E00895FE
:101F200081E0089582E0089590936D0480936C049D
:101F3000089590936F0480936E04089585ED8093C7
:101F4000BC008091BC0084FDFCCF10927304089506
:101F500085EC8093BC001092730408951F920F9239
:101F60000FB60F9211242F933F934F935F936F936C
:101F70007F938F939F93AF93BF93EF93FF93809142
:101F8000B900887F803609F49CC068F5883209F46E
:101F90005BC090F4803109F454C038F4882309F40C
:101FA000F5C0883009F44DC0F5C0883109F44CC043
:101FB000803209F45DC0EEC0803409F468C048F492
:101FC000803309F455C0883309F0E4C080930604D7
:101FD000A8C0803509F44FC0883509F45DC0883445
:101FE00009F0D8C0D5C0883909F4C6C0A8F488372C
:101FF00009F467C038F4883609F463C0803709F4FF
:1020000060C0C8C0883809F4B7C0803909F45FC01F
:10201000803809F0BFC05BC0803B09F485C038F44C
:10202000803A09F466C0883A09F47EC0B3C0803CA7
:1020300009F4A6C0883C09F4A3C0883B09F489C010
:10204000A9C08091720410C090914B0480914A0401
:10205000981770F5E0914B0481E08E0F80934B044C
:10206000F0E0E45BFB4F80818093BB0085EC85C092
:10207000809306048DC0E0914B0481E08E0F809325
:102080004B048091BB00F0E0E45BFB4F80839091B8
:102090004B0480914A046DC0E0914B0481E08E0FA7
:1020A00080934B048091BB00F0E0E45BFB4F8083A6
:1020B0008091710481116CC081E08093700484EA86
:1020C00060C083E08093730410920704CFCF8091A7
:1020D0000704803208F050C0E091070481E08E0FC1
:1020E000809307048091BB00F0E0E85FFB4F8083A2
:1020F000BDCF80910704803230F4E0910704F0E016
:10210000E85FFB4F10820E949E0F6091070470E011
:10211000E0916C04F0916D0488E094E009951092D0
:1021200007040E94A80F36C084E0809373041092C5
:10213000290410922804E0916E04F0916F0409952F
:1021400080912804811105C081E0809328041092B9
:102150002A04E091290481E08E0F80932904F0E0A5
:10216000E65DFB4F80818093BB00909129048091B4
:102170002804981708F47ACF85E88093BC000AC039
:1021800085EC8093BC001092730404C01092060486
:102190000E949E0FFF91EF91BF91AF919F918F9100
:1021A0007F916F915F914F913F912F910F900FBE53
:1021B0000F901F9018951F920F920FB60F92112437
:1021C0002F933F934F935F936F937F938F939F933F
:1021D000AF93BF93EF93FF938091750487FF05C082
:1021E00010928500109284001AC020917504332744
:1021F00027FD30958091740490E0281739077CF40E
:1022000080917504992787FD9095FC01EE0FFF1FC3
:10221000E80FF91FEA58FB4F808186FD15C08091B9
:1022200075048F5F8093750420917504332727FD13
:1022300030958091740490E028173907BCF48091A0
:1022400075048C305CF112C080917504992787FD6C
:102250009095FC01EE0FFF1FE80FF91FEA58FB4FA6
:10226000808160E08F730E94E413D9CF8091840055
:1022700090918500049680349C4918F480E49CE990
:1022800005C0809184009091850004969093890008
:10229000809388008FEF8093750438C0209184006C
:1022A0003091850080917504992787FD9095FC01F8
:1022B000EE0FFF1FE80FF91FEA58FB4F8181928153
:1022C000820F931F909389008093880080917504FA
:1022D000992787FD9095FC01EE0FFF1FE80FF91F6E
:1022E000EA58FB4F808186FF11C0809175049927C1
:1022F00087FD9095FC01EE0FFF1FE80FF91FEA58CC
:10230000FB4F808161E08F730E94E413FF91EF9196
:10231000BF91AF919F918F917F916F915F914F91FD
:102320003F912F910F900FBE0F901F901895209105
:1023300074042C30A0F431E0320F30937404FC01AB
:102340002083822F90E0FC01EE0FFF1FE80FF91FA2
:10235000EA58FB4F88EB9BE09283818308952FEF2F
:10236000FC0120830895DF92EF92FF920F931F9359
:10237000CF93DF93EC01D62E7A01890188818C30CE
:1023800008F066C061E08D2D0E94AB138881A82FF4
:10239000B0E0FD01EE0FFF1FEA0FFB1FEA58FB4FF5
:1023A0002D2D2F739081907C922B908360E272E0B0
:1023B0006E197F0977FF02C06D5F7F4F7595679536
:1023C00075956795698340E659E0401B510B57FFAF
:1023D00002C04D5F5F4F55954795559547954A8388
:1023E0006CE00E94E6169CE0899FB001112420E079
:1023F00030E0A901460F571FFA01EE0FFF1FE40F4F
:10240000F51FEA58FB4F908196FD16C02F5F3F4F96
:102410002C30310571F781110FC01092800082E0DD
:10242000809381001092850010928400B19A80916F
:102430006F00826080936F00888190E0FC01EE0F56
:10244000FF1FE80FF91FEA58FB4F808180648083EB
:102450008881DF91CF911F910F91FF90EF90DF90D6
:10246000089520E639E040E252E00C94B311FC01FB
:1024700080818C3070F5918128E830E0291B31098A
:1024800097FD3395220F331F220F331F62177307F7
:102490007CF0928128E532E0291B310997FD3395C4
:1024A000220F331F220F331F621773070CF49B0197
:1024B00022503109220F331F4FB7F89490E0FC01EE
:1024C000EE0FFF1FE80FF91FEA58FB4F32832183FD
:1024D0004FBF08954F925F926F927F92AF92BF92DB
:1024E000CF92DF92EF92FF920F931F93CF93DF93E0
:1024F000EC01603282E078070CF040C077FD06C046
:10250000653B71052CF064EB70E002C060E070E0A8
:10251000898128E830E0281B310987FD3395220F97
:10252000331F220F331F5901CC24B7FCC094DC2C7D
:10253000882777FD8095982F2A8148E552E0421B35
:10254000510927FD5395440F551F440F551F2A016C
:10255000662457FC6094762C7F926F925F924F9224
:1025600014EBE12EF12C00E010E020E030E0A901B6
:102570000E941A140F900F900F900F90CE01DF91D0
:10258000CF911F910F91FF90EF90DF90CF90BF9070
:10259000AF907F906F905F904F900C9437121F9286
:1025A0000F920FB60F9211242F933F938F939F9307
:1025B000AF93BF9380919B0490919C04A0919D0444
:1025C000B0919E0430919A0423E0230F2D3720F41C
:1025D0000196A11DB11D05C026E8230F0296A11D7D
:1025E000B11D20939A0480939B0490939C04A09324
:1025F0009D04B0939E0480919F049091A004A091AB
:10260000A104B091A2040196A11DB11D80939F0465
:102610009093A004A093A104B093A204BF91AF91A2
:102620009F918F913F912F910F900FBE0F901F9010
:1026300018953FB7F89480919F049091A004A091C1
:10264000A104B091A20426B5A89B05C02F3F19F0A4
:102650000196A11DB11D3FBF6627782F892F9A2FA4
:10266000620F711D811D911D42E0660F771F881F4B
:10267000991F4A95D1F708958230910538F0880F57
:10268000991F880F991F05970197F1F7089578947E
:1026900084B5826084BD84B5816084BD85B5826067
:1026A00085BD85B5816085BDEEE6F0E08081816005
:1026B0008083E1E8F0E01082808182608083808105
:1026C00081608083E0E8F0E0808181608083E1EBDD
:1026D000F0E0808184608083E0EBF0E080818160C5
:1026E0008083EAE7F0E0808184608083808182607B
:1026F0008083808181608083808180688083109264
:10270000C1000895833081F028F4813099F082303F
:10271000A1F008958730A9F08830B9F08430D1F461
:10272000809180008F7D03C0809180008F7780939F
:102730008000089584B58F7702C084B58F7D84BDF5
:1027400008958091B0008F7703C08091B0008F7D95
:102750008093B0000895CF93DF9390E0FC01E4569E
:10276000FF4F2491FC01E055FF4F8491882349F1EC
:1027700090E0880F991FFC01E253FF4FA591B4919F
:102780008C539F4FFC01C591D4919FB7611108C034
:10279000F8948C91209582238C93888182230AC09F
:1027A000623051F4F8948C91322F309583238C93BE
:1027B0008881822B888304C0F8948C91822B8C931F
:1027C0009FBFDF91CF9108950F931F93CF93DF9316
:1027D0001F92CDB7DEB7282F30E0F901E857FF4F41
:1027E0008491F901E456FF4F1491F901E055FF4F30
:1027F00004910023C9F0882321F069830E94821389
:102800006981E02FF0E0EE0FFF1FEC53FF4FA59121
:10281000B4919FB7F8948C91611103C010958123F6
:1028200001C0812B8C939FBF0F90DF91CF911F919F
:102830000F9108954F925F926F927F92AF92BF92E5
:10284000CF92DF92EF92FF920F931F93CF93DF937C
:10285000CDB7DEB729013A01621B730B840B950BD0
:1028600029893A894B895C892A193B094C095D09F8
:10287000298B3A8B4B8B5C8B9B01AC0169897A89E4
:102880008B899C890E94D616E418F5080609170959
:10289000A80197010E9414172A0D3B1D4C1D5D1DB8
:1028A000CA01B901DF91CF911F910F91FF90EF9075
:1028B000DF90CF90BF90AF907F906F905F904F90E0
:1028C0000895F8940C9453175058BB27AA270ED09C
:1028D00075C166D130F06BD120F031F49F3F11F417
:1028E0001EF45BC10EF4E095E7FB51C1E92F77D1EF
:1028F00080F3BA17620773078407950718F071F41D
:102900009EF58FC10EF4E0950B2EBA2FA02D0B0172
:10291000B90190010C01CA01A0011124FF27591B24
:1029200099F0593F50F4503E68F11A16F040A22F2A
:10293000232F342F4427585FF3CF4695379527959B
:10294000A795F0405395C9F77EF41F16BA0B620B9A
:10295000730B840BBAF09150A1F0FF0FBB1F661FE1
:10296000771F881FC2F70EC0BA0F621F731F841F24
:1029700048F4879577956795B795F7959E3F08F04A
:10298000B3CF9395880F08F09927EE0F9795879509
:102990000895D9D008F481E008950CD00FC107D173
:1029A00040F0FED030F021F45F3F19F0F0C051113B
:1029B00039C1F3C014D198F39923C9F35523B1F366
:1029C000951B550BBB27AA2762177307840738F09E
:1029D0009F5F5F4F220F331F441FAA1FA9F333D0FD
:1029E0000E2E3AF0E0E830D091505040E695001CB1
:1029F000CAF729D0FE2F27D0660F771F881FBB1F6D
:102A0000261737074807AB07B0E809F0BB0B802D46
:102A1000BF01FF2793585F4F2AF09E3F510568F092
:102A2000B6C000C15F3FECF3983EDCF38695779526
:102A30006795B795F7959F5FC9F7880F911D969594
:102A4000879597F90895E1E0660F771F881FBB1FF0
:102A5000621773078407BA0720F0621B730B840B9D
:102A6000BA0BEE1F88F7E095089504D06894B11171
:102A7000D9C00895BCD088F09F5790F0B92F9927FE
:102A8000B751A0F0D1F0660F771F881F991F1AF079
:102A9000BA95C9F712C0B13081F0C3D0B1E0089542
:102AA000C0C0672F782F8827B85F39F0B93FCCF3C3
:102AB000869577956795B395D9F73EF4909580956F
:102AC000709561957F4F8F4F9F4F0895E89409C08F
:102AD00097FB3EF490958095709561957F4F8F4F51
:102AE0009F4F9923A9F0F92F96E9BB279395F69567
:102AF000879577956795B795F111F8CFFAF4BB0FE5
:102B000011F460FF1BC06F5F7F4F8F4F9F4F16C048
:102B1000882311F096E911C0772321F09EE8872FD2
:102B2000762F05C0662371F096E8862F70E060E08E
:102B30002AF09A95660F771F881FDAF7880F969507
:102B4000879597F90895990F0008550FAA0BE0E8AB
:102B5000FEEF16161706E807F907C0F0121613065F
:102B6000E407F50798F0621B730B840B950B39F49F
:102B70000A2661F0232B242B252B21F408950A2605
:102B800009F4A140A6958FEF811D811D089597F945
:102B90009F6780E870E060E008959FEF80EC089503
:102BA00000240A941616170618060906089500242C
:102BB0000A9412161306140605060895092E0394A6
:102BC000000C11F4882352F0BB0F40F4BF2B11F41A
:102BD00060FF04C06F5F7F4F8F4F9F4F089557FD79
:102BE0009058440F551F59F05F3F71F04795880F7B
:102BF00097FB991F61F09F3F79F087950895121612
:102C000013061406551FF2CF4695F1DF08C01616BD
:102C100017061806991FF1CF86957105610508946E
:102C20000895E894BB2766277727CB0197F9089585
:102C30008ADF08F48FEF08950BD0C0CFB1DF28F002
:102C4000B6DF18F0952309F0A2CFA7CF1124EACF61
:102C5000C6DFA0F3959FD1F3950F50E0551F629FFB
:102C6000F001729FBB27F00DB11D639FAA27F00DE5
:102C7000B11DAA1F649F6627B00DA11D661F829F0C
:102C80002227B00DA11D621F739FB00DA11D621FF1
:102C9000839FA00D611D221F749F3327A00D611D0E
:102CA000231F849F600D211D822F762F6A2F1124F0
:102CB0009F5750408AF0E1F088234AF0EE0FFF1F43
:102CC000BB1F661F771F881F91505040A9F79E3F7A
:102CD000510570F05CCFA6CF5F3FECF3983EDCF37C
:102CE000869577956795B795F795E7959F5FC1F7B7
:102CF000FE2B880F911D9695879597F9089511F4ED
:102D00000EF44BCF3EC073DFD0F39923D9F3CEF34B
:102D10009F57550B87FF43D00024A0E640EA90015F
:102D200080585695979528F4805C660F771F881F0A
:102D300020F026173707480730F4621B730B840B0B
:102D4000202931294A2BA69517940794202531254F
:102D50004A2758F7660F771F881F20F02617370776
:102D6000480730F4620B730B840B200D311D411D9D
:102D7000A09581F7B901842F9158880F9695879572
:102D800008959F3F31F0915020F48795779567958E
:102D9000B795880F911D9695879597F9089591504D
:102DA0005040660F771F881FD2F70895DB018F937D
:102DB0009F930E943917BF91AF91A29F800D911DE3
:102DC000A39F900DB29F900D11240895991B79E057
:102DD00004C0991F961708F0961B881F7A95C9F7AB
:102DE00080950895A1E21A2EAA1BBB1BFD010DC000
:102DF000AA1FBB1FEE1FFF1FA217B307E407F507AB
:102E000020F0A21BB30BE40BF50B661F771F881F86
:102E1000991F1A9469F760957095809590959B011C
:102E2000AC01BD01CF010895052E97FB1EF400945F
:102E30000E942B1757FD07D00E94F21607FC03D003
:102E40004EF40C942B1750954095309521953F4F9B
:102E50004F4F5F4F089590958095709561957F4F86
:102E60008F4F9F4F0895EE0FFF1F0590F491E02DB7
:102E700009940E944417A59F900DB49F900DA49FA4
:102E8000800D911D11240895A29FB001B39FC00130
:102E9000A39F700D811D1124911DB29F700D811D86
:0A2EA0001124911D0895F894FFCF4E
:102EAA000100000050454E2055500050454E204428
:102EBA004F574E00574149540043414C49425241F1
:102ECA0054450043414C49425241544544005354ED
:102EDA0045500044524157205354415445004452EE
:102EEA004157004552524F522C20494E20444546E4
:102EFA0041554C54002D3E205374617274696E67BB
:102F0A002047686F73745772697465720049324357
:102F1A00207265636569766564203A20000900526B
:102F2A00455345540000000000A2040E0624043D47
:102F3A00042F0480040D0A006E616E00696E66003B
:102F4A006F7666002E00000000000F092C090508A4
:102F5A003607830849089908BA08EE087A07D0079D
:102F6A0000000000ED0EC00E660E6E0E810E900E71
:00000001FF
