:100000000C9459000C9481000C9481000C94810094
:100010000C9481000C9481000C9481000C9481005C
:100020000C9481000C9481000C9481000C9481004C
:100030000C9481000C9481000C9481000C9481003C
:100040000C94B5000C9481000C94CA020C94FC0230
:100050000C9481000C9481000C9481000C9481001C
:100060000C94C6050C9481000000000800020100F9
:100070000003040700000000000000000102040863
:100080001020408001020408102001020408102002
:10009000040404040404040402020202020203032E
:1000A0000303030300000000250028002B002C039D
:1000B0006D0511241FBECFEFD8E0DEBFCDBF11E02C
:1000C000A0E0B1E0E0E0FFE002C005900D92A233B5
:1000D000B107D9F722E0A2E3B1E001C01D92AD392A
:1000E000B207E1F710E0C2EBD0E004C02297FE01B6
:1000F0000E947A07CE3AD107C9F70E9474040C9483
:1001000053070C94000026E040E855E260E070E000
:100110008DE391E00E94680264E070E08AED91E076
:100120000E9466056EE970E08AED91E00C94680526
:1001300064E670E080E090E00C9422018AED91E0AA
:100140000E948304892B81F08AED91E00E948B0448
:1001500090933301809332014AE050E0BC018DE37B
:1001600091E00E945B04EACF08951F920F920FB6B0
:100170000F9211242F933F938F939F93AF93BF932D
:100180008091350190913601A0913701B0913801ED
:100190003091340123E0230F2D3720F40196A11D67
:1001A000B11D05C026E8230F0296A11DB11D2093A5
:1001B00034018093350190933601A0933701B093B9
:1001C00038018091390190913A01A0913B01B091A1
:1001D0003C010196A11DB11D8093390190933A0114
:1001E000A0933B01B0933C01BF91AF919F918F9140
:1001F0003F912F910F900FBE0F901F9018953FB712
:10020000F8948091390190913A01A0913B01B0910D
:100210003C0126B5A89B05C02F3F19F00196A11DF2
:10022000B11D3FBF6627782F892F9A2F620F711D4E
:10023000811D911D42E0660F771F881F991F4A9507
:10024000D1F70895CF92DF92EF92FF92CF93DF9391
:100250006B017C010E94FF00EB01C114D104E10499
:10026000F10489F00E94F3060E94FF006C1B7D0BD5
:10027000683E734090F381E0C81AD108E108F108A4
:10028000C851DC4FEACFDF91CF91FF90EF90DF9024
:10029000CF900895789484B5826084BD84B58160E0
:1002A00084BD85B5826085BD85B5816085BDEEE67E
:1002B000F0E0808181608083E1E8F0E0108280815D
:1002C00082608083808181608083E0E8F0E08081CB
:1002D00081608083E1EBF0E0808184608083E0EBEB
:1002E000F0E0808181608083EAE7F0E080818460D3
:1002F000808380818260808380818160808380812F
:10030000806880831092C1000895FC01818D228D48
:1003100090E0805C9F4F821B91098F73992708950D
:10032000FC01918D828D981731F0828DE80FF11DBF
:10033000858D90E008958FEF9FEF0895FC01918DDA
:10034000828D981761F0828DDF01A80FB11D5D9637
:100350008C91928D9F5F9F73928F90E008958FEFA5
:100360009FEF089582E293E0892B49F080E090E0CE
:10037000892B29F00E94220381110C94000008951A
:10038000FC01848DDF01A80FB11DA35ABF4F2C9132
:10039000848D90E001968F739927848FA689B78901
:1003A0002C93A089B1898C9180648C93938D848DDA
:1003B000981306C00288F389E02D80818F7D8083A9
:1003C0000895CF93DF93EC01888D8823C9F0EA89E3
:1003D000FB89808185FD05C0A889B9898C9186FD3E
:1003E0000FC00FB607FCF5CF808185FFF2CFA8893B
:1003F000B9898C9185FFEDCFCE010E94C001E7CF76
:10040000DF91CF910895CF92DF92FF920F931F93C8
:10041000CF93DF931F92CDB7DEB76C0181E0D60199
:1004200058968C9358975B969C915B975C968C91B1
:100430005C97981307C05096ED91FC91519780817D
:1004400085FD2EC0F601038D10E00F5F1F4F0F7367
:100450001127F02EF601848DF81211C00FB607FC9B
:10046000F9CFD6015096ED91FC915197808185FF8F
:10047000F1CFC60169830E94C0016981EBCF838DF2
:10048000E80FF11DE35AFF4F6083D6015B960C9392
:100490005B975296ED91FC915397808180620CC0DE
:1004A000D6015696ED91FC91579760835096ED9149
:1004B000FC91519780818064808381E090E00F906F
:1004C000DF91CF911F910F91FF90DF90CF90089512
:1004D000BF92CF92DF92EF92FF92CF93DF93EC0126
:1004E0006A017B01B22EE889F98982E08083411597
:1004F00081EE580761057105A1F060E079E08DE3B8
:1005000090E0A70196010E94560721503109410948
:1005100051095695479537952795211580E138075C
:1005200098F0E889F989108260E874E88EE190E03B
:10053000A70196010E94560721503109410951092E
:100540005695479537952795EC85FD853083EE8543
:10055000FF852083188EEC89FD89B082EA89FB89AA
:10056000808180618083EA89FB89808188608083C3
:10057000EA89FB89808180688083EA89FB898081A0
:100580008F7D8083DF91CF91FF90EF90DF90CF90B0
:10059000BF9008951F920F920FB60F9211242F93C0
:1005A0008F939F93EF93FF93E0914D01F0914E0154
:1005B0008081E0915301F091540182FD12C090813D
:1005C000809156018F5F8F7320915701821751F0F0
:1005D000E0915601F0E0E35CFE4F958F8093560169
:1005E00001C08081FF91EF919F918F912F910F908A
:1005F0000FBE0F901F9018951F920F920FB60F927B
:1006000011242F933F934F935F936F937F938F9317
:100610009F93AF93BF93EF93FF938DE391E00E947D
:10062000C001FF91EF91BF91AF919F918F917F9109
:100630006F915F914F913F912F910F900FBE0F904F
:100640001F9018958DE391E00E94850121E0892B90
:1006500009F420E0822F08951092400110923F018A
:1006600088EE93E0A0E0B0E08093410190934201D6
:10067000A0934301B093440184E091E090933E0144
:1006800080933D0185EC90E090934A01809349016D
:1006900084EC90E090934C0180934B0180EC90E0CF
:1006A00090934E0180934D0181EC90E09093500126
:1006B00080934F0182EC90E090935201809351011E
:1006C00086EC90E090935401809353011092560170
:1006D0001092570110925801109259010895CF922B
:1006E000DF92EF92FF920F931F93CF93DF936C01F2
:1006F0007A01EB01E60EF71E00E010E0CE15DF05F3
:1007000061F06991D601ED91FC910190F081E02DAD
:10071000C6010995080F191FF1CFC801DF91CF91CC
:100720001F910F91FF90EF90DF90CF90089561158A
:10073000710581F0DB010D900020E9F7AD0141501A
:100740005109461B570BDC01ED91FC910280F381AE
:10075000E02D099480E090E00895DC01ED91FC919A
:100760000190F081E02D099460E171E00C94970311
:100770008F929F92AF92BF92CF92DF92EF92FF92B1
:100780000F931F93CF93DF93CDB7DEB7A1970FB62B
:10079000F894DEBF0FBECDBF7C01C42EE52FCB0188
:1007A000D22E19A221E02D1510F02AE0D22E8E01B2
:1007B0000F5D1F4F8D2C912CA12CB12C6C2D7E2FF9
:1007C000A50194010E9456078C2DD29E80191124F8
:1007D000015011098A3014F4805D01C0895CF80170
:1007E0008083211531054105510521F0C22EE32FEB
:1007F000CA01E4CFB801C7010E949703A1960FB6C2
:10080000F894DEBF0FBECDBFDF91CF911F910F9146
:10081000FF90EF90DF90CF90BF90AF909F908F9020
:100820000895CF92DF92EF92FF920F931F93CF9391
:10083000DF93EC016A017B012115310579F4E88130
:10084000F9810190F081E02D642FDF91CF911F910C
:100850000F91FF90EF90DF90CF9009942A303105EF
:10086000E9F477FF1AC06DE20E94AD038C014427C2
:100870005527BA014C195D096E097F092AE0CE019E
:100880000E94B803800F911FDF91CF911F910F91AC
:10089000FF90EF90DF90CF9008952AE0B701A60176
:1008A000CE01DF91CF911F910F91FF90EF90DF90DC
:1008B000CF900C94B8030F931F93CF93DF93EC0169
:1008C0009A01AB01662757FD6095762F0E941104AF
:1008D0008C01CE010E94B403800F911FDF91CF9154
:1008E0001F910F91089508950E944A010E94730478
:1008F0000E948300C2EBD1E00E9498002097E1F3B0
:100900000E94B201F9CF80910D0290E020910E0279
:10091000821B9109089520910E0280910D022817E3
:1009200050F4E22FF0E0E15FFD4F808190E02F5F17
:1009300020930E0208958FEF9FEF0895E0910E022D
:1009400080910D02E81730F4F0E0E15FFD4F808107
:1009500090E008958FEF9FEF08950895E091E601EC
:10096000F091E7013097E1F030910E0220910D02F5
:100970003217B0F040E0242F30E02617370754F448
:10098000DC01A20FB31F5C91D901A15FBD4F5C9345
:100990004F5FF1CF10920E0260930D02CB010994CC
:1009A0000895E091E801F091E901309729F0109263
:1009B000EC011092EB0109940895CF92DF92EF922F
:1009C000FF920F931F93CF93DF937C01CB018A019A
:1009D0002091EA01222389F0EB016B01C40ED51EA0
:1009E000CC15DD0569F06991D701ED91FC9101907D
:1009F000F081E02DC7010995F3CF642F0E94930584
:100A0000C801DF91CF911F910F91FF90EF90DF9080
:100A1000CF900895CF93DF931F92CDB7DEB7698350
:100A20002091EA012223D1F02091EB01203240F005
:100A300021E030E0FC013383228380E090E015C0A8
:100A40008091EC01E82FF0E0E351FE4F9981908313
:100A50008F5F8093EC018093EB0105C061E0CE01D4
:100A600001960E94930581E090E00F90DF91CF9175
:100A70000895FC011382128248EE53E060E070E0BA
:100A8000448355836683778385E291E091838083F5
:100A9000089510920E0210920D021092EC01109225
:100AA000EB010C947105CF93DF93EC01862F0E942C
:100AB0008F0581ED94E00E94B1058EEA94E00E94DA
:100AC000AC05CE01DF91CF910C9449050C945305F0
:100AD0007093E7016093E60108958AED91E00C942C
:100AE000390510929C0281E080939A02109299023B
:100AF00061E082E10E941D0761E083E10E941D0721
:100B0000E9EBF0E080818E7F808380818D7F808320
:100B100088E48093B80085E48093BC000895880F32
:100B20008093BA000895613298F420919C02243099
:100B300089F460935102FC0183E592E0DC012A2FE5
:100B4000281B261718F421912D93F9CF80E00895E2
:100B500081E0089582E00895909396028093950233
:100B600008959093980280939702089585ED80935D
:100B7000BC008091BC0084FDFCCF10929C020895C3
:100B800085EC8093BC0010929C0208951F920F92F6
:100B90000FB60F9211242F933F934F935F936F9350
:100BA0007F938F939F93AF93BF93EF93FF93809126
:100BB000B900887F803609F49CC068F5883209F452
:100BC0005BC090F4803109F454C038F4882309F4F0
:100BD000F5C0883009F44DC0F5C0883109F44CC027
:100BE000803209F45DC0EEC0803409F468C048F476
:100BF000803309F455C0883309F0E4C080932F0294
:100C0000A8C0803509F44FC0883509F45DC0883428
:100C100009F0D8C0D5C0883909F4C6C0A8F488370F
:100C200009F467C038F4883609F463C0803709F4E2
:100C300060C0C8C0883809F4B7C0803909F45FC003
:100C4000803809F0BFC05BC0803B09F485C038F430
:100C5000803A09F466C0883A09F47EC0B3C0803C8B
:100C600009F4A6C0883C09F4A3C0883B09F489C0F4
:100C7000A9C080919B0210C0909174028091730270
:100C8000981770F5E091740281E08E0F80937402E2
:100C9000F0E0EB58FD4F80818093BB0085EC85C070
:100CA00080932F028DC0E091740281E08E0F8093BB
:100CB00074028091BB00F0E0EB58FD4F808390916F
:100CC0007402809173026DC0E091740281E08E0F16
:100CD000809374028091BB00F0E0EB58FD4F80835D
:100CE00080919A0281116CC081E08093990284EA1C
:100CF00060C083E080939C0210923002CFCF80913D
:100D00003002803208F050C0E091300281E08E0F56
:100D1000809330028091BB00F0E0EF5CFD4F808358
:100D2000BDCF80913002803230F4E0913002F0E0AB
:100D3000EF5CFD4F10820E94B6056091300270E0BA
:100D4000E0919502F091960281E392E0099510926C
:100D500030020E94C00536C084E080939C0210924D
:100D6000520210925102E0919702F0919802099577
:100D700080915102811105C081E08093510210924F
:100D80005302E091520281E08E0F80935202F0E014
:100D9000ED5AFD4F80818093BB009091520280916B
:100DA0005102981708F47ACF85E88093BC000AC0F6
:100DB00085EC8093BC0010929C0204C010922F021C
:100DC0000E94B605FF91EF91BF91AF919F918F91D6
:100DD0007F916F915F914F913F912F910F900FBE37
:100DE0000F901F9018950895833081F028F481307A
:100DF00099F08230A1F008958730A9F08830B9F0D9
:100E00008430D1F4809180008F7D03C08091800078
:100E10008F7780938000089584B58F7702C084B562
:100E20008F7D84BD08958091B0008F7703C080913D
:100E3000B0008F7D8093B00008950F931F93CF93E0
:100E4000DF931F92CDB7DEB7282F30E0F901E859C4
:100E5000FF4F8491F901E458FF4F1491F901E057D5
:100E6000FF4F04910023C9F0882321F069830E9479
:100E7000F4066981E02FF0E0EE0FFF1FEC55FF4F05
:100E8000A591B4919FB7F8948C91611103C010950E
:100E9000812301C0812B8C939FBF0F90DF91CF9155
:100EA0001F910F910895F8940C947E07A1E21A2ED9
:100EB000AA1BBB1BFD010DC0AA1FBB1FEE1FFF1FFE
:100EC000A217B307E407F50720F0A21BB30BE40B4E
:100ED000F50B661F771F881F991F1A9469F7609595
:100EE0007095809590959B01AC01BD01CF0108954F
:100EF000EE0FFF1F0590F491E02D0994F894FFCFB9
:100F00000000000003026F0385019E019001E101D2
:100F10000D0A006E616E00696E66006F7666002EC7
:100F200000000000000A05DD0483048B049E04AD6C
:020F30000400BB
:00000001FF
